{
  "_format": "hh-sol-artifact-1",
  "contractName": "AaveV3Strategy",
  "sourceName": "contracts/strategies/AaveV3Strategy.sol",
  "abi": [
    {
      "inputs": [
        {
          "internalType": "contract IERC20",
          "name": "asset_",
          "type": "address"
        },
        {
          "internalType": "contract IPool",
          "name": "pool_",
          "type": "address"
        },
        {
          "internalType": "contract IERC20",
          "name": "aToken_",
          "type": "address"
        }
      ],
      "stateMutability": "nonpayable",
      "type": "constructor"
    },
    {
      "inputs": [
        {
          "internalType": "address",
          "name": "token",
          "type": "address"
        }
      ],
      "name": "SafeERC20FailedOperation",
      "type": "error"
    },
    {
      "inputs": [],
      "name": "_asset",
      "outputs": [
        {
          "internalType": "contract IERC20",
          "name": "",
          "type": "address"
        }
      ],
      "stateMutability": "view",
      "type": "function"
    },
    {
      "inputs": [],
      "name": "aToken",
      "outputs": [
        {
          "internalType": "contract IERC20",
          "name": "",
          "type": "address"
        }
      ],
      "stateMutability": "view",
      "type": "function"
    },
    {
      "inputs": [],
      "name": "asset",
      "outputs": [
        {
          "internalType": "contract IERC20",
          "name": "",
          "type": "address"
        }
      ],
      "stateMutability": "view",
      "type": "function"
    },
    {
      "inputs": [
        {
          "internalType": "uint256",
          "name": "amount",
          "type": "uint256"
        }
      ],
      "name": "divest",
      "outputs": [
        {
          "internalType": "uint256",
          "name": "",
          "type": "uint256"
        }
      ],
      "stateMutability": "nonpayable",
      "type": "function"
    },
    {
      "inputs": [
        {
          "internalType": "uint256",
          "name": "amount",
          "type": "uint256"
        }
      ],
      "name": "invest",
      "outputs": [],
      "stateMutability": "nonpayable",
      "type": "function"
    },
    {
      "inputs": [],
      "name": "pool",
      "outputs": [
        {
          "internalType": "contract IPool",
          "name": "",
          "type": "address"
        }
      ],
      "stateMutability": "view",
      "type": "function"
    },
    {
      "inputs": [],
      "name": "totalAssets",
      "outputs": [
        {
          "internalType": "uint256",
          "name": "",
          "type": "uint256"
        }
      ],
      "stateMutability": "view",
      "type": "function"
    }
  ],
  "bytecode": "0x60e06040523480156200001157600080fd5b5060405162000e7738038062000e77833981810160405281019062000037919062000425565b8273ffffffffffffffffffffffffffffffffffffffff1660808173ffffffffffffffffffffffffffffffffffffffff16815250508173ffffffffffffffffffffffffffffffffffffffff1660a08173ffffffffffffffffffffffffffffffffffffffff16815250508073ffffffffffffffffffffffffffffffffffffffff1660c08173ffffffffffffffffffffffffffffffffffffffff168152505062000122827fffffffffffffffffffffffffffffffffffffffffffffffffffffffffffffffff60805173ffffffffffffffffffffffffffffffffffffffff166200012b60201b9092919060201c565b50505062000571565b60008373ffffffffffffffffffffffffffffffffffffffff1663095ea7b384846040516024016200015e929190620004ad565b604051602081830303815290604052915060e01b6020820180517bffffffffffffffffffffffffffffffffffffffffffffffffffffffff83818316178352505050509050620001b484826200025760201b60201c565b62000251576200023e848573ffffffffffffffffffffffffffffffffffffffff1663095ea7b3866000604051602401620001f092919062000527565b604051602081830303815290604052915060e01b6020820180517bffffffffffffffffffffffffffffffffffffffffffffffffffffffff8381831617835250505050620002ba60201b60201c565b620002508482620002ba60201b60201c565b5b50505050565b6000806000806020600086516020880160008a5af192503d91506000519050828015620002af575060008214620002925760018114620002ae565b60008673ffffffffffffffffffffffffffffffffffffffff163b115b5b935050505092915050565b600080602060008451602086016000885af180620002de576040513d6000823e3d81fd5b3d925060005191505060008214620002fb57600181141562000317565b60008473ffffffffffffffffffffffffffffffffffffffff163b145b156200035c57836040517f5274afe700000000000000000000000000000000000000000000000000000000815260040162000353919062000554565b60405180910390fd5b50505050565b600080fd5b600073ffffffffffffffffffffffffffffffffffffffff82169050919050565b6000620003948262000367565b9050919050565b6000620003a88262000387565b9050919050565b620003ba816200039b565b8114620003c657600080fd5b50565b600081519050620003da81620003af565b92915050565b6000620003ed8262000387565b9050919050565b620003ff81620003e0565b81146200040b57600080fd5b50565b6000815190506200041f81620003f4565b92915050565b60008060006060848603121562000441576200044062000362565b5b60006200045186828701620003c9565b935050602062000464868287016200040e565b92505060406200047786828701620003c9565b9150509250925092565b6200048c8162000387565b82525050565b6000819050919050565b620004a78162000492565b82525050565b6000604082019050620004c4600083018562000481565b620004d360208301846200049c565b9392505050565b6000819050919050565b6000819050919050565b60006200050f620005096200050384620004da565b620004e4565b62000492565b9050919050565b6200052181620004ee565b82525050565b60006040820190506200053e600083018562000481565b6200054d602083018462000516565b9392505050565b60006020820190506200056b600083018462000481565b92915050565b60805160a05160c0516108a5620005d2600039600081816101680152610423015260008181610207015281816102780152610358015260008181610231015281816102b40152818161032f01528181610394015261044701526108a56000f3fe608060405234801561001057600080fd5b506004361061007d5760003560e01c806338d52e0f1161005b57806338d52e0f146100da5780638ca17995146100f8578063a0c1f15e14610128578063fcea5e29146101465761007d565b806301e1d1141461008257806316f0115b146100a05780632afcf480146100be575b600080fd5b61008a610164565b60405161009791906105a6565b60405180910390f35b6100a8610205565b6040516100b59190610640565b60405180910390f35b6100d860048036038101906100d3919061068c565b610229565b005b6100e261032b565b6040516100ef91906106da565b60405180910390f35b610112600480360381019061010d919061068c565b610353565b60405161011f91906105a6565b60405180910390f35b610130610421565b60405161013d91906106da565b60405180910390f35b61014e610445565b60405161015b91906106da565b60405180910390f35b60007f000000000000000000000000000000000000000000000000000000000000000073ffffffffffffffffffffffffffffffffffffffff166370a08231306040518263ffffffff1660e01b81526004016101bf9190610716565b602060405180830381865afa1580156101dc573d6000803e3d6000fd5b505050506040513d601f19601f820116820180604052508101906102009190610746565b905090565b7f000000000000000000000000000000000000000000000000000000000000000081565b6102763330837f000000000000000000000000000000000000000000000000000000000000000073ffffffffffffffffffffffffffffffffffffffff16610469909392919063ffffffff16565b7f000000000000000000000000000000000000000000000000000000000000000073ffffffffffffffffffffffffffffffffffffffff1663617ba0377f0000000000000000000000000000000000000000000000000000000000000000833060006040518563ffffffff1660e01b81526004016102f694939291906107bc565b600060405180830381600087803b15801561031057600080fd5b505af1158015610324573d6000803e3d6000fd5b5050505050565b60007f0000000000000000000000000000000000000000000000000000000000000000905090565b6000807f000000000000000000000000000000000000000000000000000000000000000073ffffffffffffffffffffffffffffffffffffffff166369328dec7f000000000000000000000000000000000000000000000000000000000000000085336040518463ffffffff1660e01b81526004016103d393929190610801565b6020604051808303816000875af11580156103f2573d6000803e3d6000fd5b505050506040513d601f19601f820116820180604052508101906104169190610746565b905080915050919050565b7f000000000000000000000000000000000000000000000000000000000000000081565b7f000000000000000000000000000000000000000000000000000000000000000081565b6104e5848573ffffffffffffffffffffffffffffffffffffffff166323b872dd86868660405160240161049e93929190610838565b604051602081830303815290604052915060e01b6020820180517bffffffffffffffffffffffffffffffffffffffffffffffffffffffff83818316178352505050506104eb565b50505050565b600080602060008451602086016000885af18061050e576040513d6000823e3d81fd5b3d925060005191505060008214610529576001811415610545565b60008473ffffffffffffffffffffffffffffffffffffffff163b145b1561058757836040517f5274afe700000000000000000000000000000000000000000000000000000000815260040161057e9190610716565b60405180910390fd5b50505050565b6000819050919050565b6105a08161058d565b82525050565b60006020820190506105bb6000830184610597565b92915050565b600073ffffffffffffffffffffffffffffffffffffffff82169050919050565b6000819050919050565b60006106066106016105fc846105c1565b6105e1565b6105c1565b9050919050565b6000610618826105eb565b9050919050565b600061062a8261060d565b9050919050565b61063a8161061f565b82525050565b60006020820190506106556000830184610631565b92915050565b600080fd5b6106698161058d565b811461067457600080fd5b50565b60008135905061068681610660565b92915050565b6000602082840312156106a2576106a161065b565b5b60006106b084828501610677565b91505092915050565b60006106c48261060d565b9050919050565b6106d4816106b9565b82525050565b60006020820190506106ef60008301846106cb565b92915050565b6000610700826105c1565b9050919050565b610710816106f5565b82525050565b600060208201905061072b6000830184610707565b92915050565b60008151905061074081610660565b92915050565b60006020828403121561075c5761075b61065b565b5b600061076a84828501610731565b91505092915050565b6000819050919050565b600061ffff82169050919050565b60006107a66107a161079c84610773565b6105e1565b61077d565b9050919050565b6107b68161078b565b82525050565b60006080820190506107d16000830187610707565b6107de6020830186610597565b6107eb6040830185610707565b6107f860608301846107ad565b95945050505050565b60006060820190506108166000830186610707565b6108236020830185610597565b6108306040830184610707565b949350505050565b600060608201905061084d6000830186610707565b61085a6020830185610707565b6108676040830184610597565b94935050505056fea264697066735822122052416ea716e41e185eb990261a0e40d4e225231fba707039c2b07b7c52a61f7964736f6c63430008140033",
  "linkReferences": {},
  "deployedLinkReferences": {}
}