{
  "_format": "hh-sol-artifact-1",
  "contractName": "OmniYieldVault",
  "sourceName": "contracts/OmniYieldVault.sol",
  "abi": [
    {
      "inputs": [
        {
          "internalType": "contract IERC20",
          "name": "asset_",
          "type": "address"
        },
        {
          "internalType": "string",
          "name": "name_",
          "type": "string"
        },
        {
          "internalType": "string",
          "name": "symbol_",
          "type": "string"
        },
        {
          "internalType": "contract IPool",
          "name": "pool_",
          "type": "address"
        },
        {
          "internalType": "contract IERC20",
          "name": "aToken_",
          "type": "address"
        }
      ],
      "stateMutability": "nonpayable",
      "type": "constructor"
    },
    {
      "inputs": [
        {
          "internalType": "address",
          "name": "spender",
          "type": "address"
        },
        {
          "internalType": "uint256",
          "name": "allowance",
          "type": "uint256"
        },
        {
          "internalType": "uint256",
          "name": "needed",
          "type": "uint256"
        }
      ],
      "name": "ERC20InsufficientAllowance",
      "type": "error"
    },
    {
      "inputs": [
        {
          "internalType": "address",
          "name": "sender",
          "type": "address"
        },
        {
          "internalType": "uint256",
          "name": "balance",
          "type": "uint256"
        },
        {
          "internalType": "uint256",
          "name": "needed",
          "type": "uint256"
        }
      ],
      "name": "ERC20InsufficientBalance",
      "type": "error"
    },
    {
      "inputs": [
        {
          "internalType": "address",
          "name": "approver",
          "type": "address"
        }
      ],
      "name": "ERC20InvalidApprover",
      "type": "error"
    },
    {
      "inputs": [
        {
          "internalType": "address",
          "name": "receiver",
          "type": "address"
        }
      ],
      "name": "ERC20InvalidReceiver",
      "type": "error"
    },
    {
      "inputs": [
        {
          "internalType": "address",
          "name": "sender",
          "type": "address"
        }
      ],
      "name": "ERC20InvalidSender",
      "type": "error"
    },
    {
      "inputs": [
        {
          "internalType": "address",
          "name": "spender",
          "type": "address"
        }
      ],
      "name": "ERC20InvalidSpender",
      "type": "error"
    },
    {
      "inputs": [
        {
          "internalType": "address",
          "name": "receiver",
          "type": "address"
        },
        {
          "internalType": "uint256",
          "name": "assets",
          "type": "uint256"
        },
        {
          "internalType": "uint256",
          "name": "max",
          "type": "uint256"
        }
      ],
      "name": "ERC4626ExceededMaxDeposit",
      "type": "error"
    },
    {
      "inputs": [
        {
          "internalType": "address",
          "name": "receiver",
          "type": "address"
        },
        {
          "internalType": "uint256",
          "name": "shares",
          "type": "uint256"
        },
        {
          "internalType": "uint256",
          "name": "max",
          "type": "uint256"
        }
      ],
      "name": "ERC4626ExceededMaxMint",
      "type": "error"
    },
    {
      "inputs": [
        {
          "internalType": "address",
          "name": "owner",
          "type": "address"
        },
        {
          "internalType": "uint256",
          "name": "shares",
          "type": "uint256"
        },
        {
          "internalType": "uint256",
          "name": "max",
          "type": "uint256"
        }
      ],
      "name": "ERC4626ExceededMaxRedeem",
      "type": "error"
    },
    {
      "inputs": [
        {
          "internalType": "address",
          "name": "owner",
          "type": "address"
        },
        {
          "internalType": "uint256",
          "name": "assets",
          "type": "uint256"
        },
        {
          "internalType": "uint256",
          "name": "max",
          "type": "uint256"
        }
      ],
      "name": "ERC4626ExceededMaxWithdraw",
      "type": "error"
    },
    {
      "inputs": [
        {
          "internalType": "address",
          "name": "owner",
          "type": "address"
        }
      ],
      "name": "OwnableInvalidOwner",
      "type": "error"
    },
    {
      "inputs": [
        {
          "internalType": "address",
          "name": "account",
          "type": "address"
        }
      ],
      "name": "OwnableUnauthorizedAccount",
      "type": "error"
    },
    {
      "inputs": [
        {
          "internalType": "address",
          "name": "token",
          "type": "address"
        }
      ],
      "name": "SafeERC20FailedOperation",
      "type": "error"
    },
    {
      "anonymous": false,
      "inputs": [
        {
          "indexed": true,
          "internalType": "address",
          "name": "owner",
          "type": "address"
        },
        {
          "indexed": true,
          "internalType": "address",
          "name": "spender",
          "type": "address"
        },
        {
          "indexed": false,
          "internalType": "uint256",
          "name": "value",
          "type": "uint256"
        }
      ],
      "name": "Approval",
      "type": "event"
    },
    {
      "anonymous": false,
      "inputs": [
        {
          "indexed": true,
          "internalType": "address",
          "name": "sender",
          "type": "address"
        },
        {
          "indexed": true,
          "internalType": "address",
          "name": "owner",
          "type": "address"
        },
        {
          "indexed": false,
          "internalType": "uint256",
          "name": "assets",
          "type": "uint256"
        },
        {
          "indexed": false,
          "internalType": "uint256",
          "name": "shares",
          "type": "uint256"
        }
      ],
      "name": "Deposit",
      "type": "event"
    },
    {
      "anonymous": false,
      "inputs": [
        {
          "indexed": true,
          "internalType": "address",
          "name": "previousOwner",
          "type": "address"
        },
        {
          "indexed": true,
          "internalType": "address",
          "name": "newOwner",
          "type": "address"
        }
      ],
      "name": "OwnershipTransferred",
      "type": "event"
    },
    {
      "anonymous": false,
      "inputs": [
        {
          "indexed": true,
          "internalType": "address",
          "name": "from",
          "type": "address"
        },
        {
          "indexed": true,
          "internalType": "address",
          "name": "to",
          "type": "address"
        },
        {
          "indexed": false,
          "internalType": "uint256",
          "name": "value",
          "type": "uint256"
        }
      ],
      "name": "Transfer",
      "type": "event"
    },
    {
      "anonymous": false,
      "inputs": [
        {
          "indexed": true,
          "internalType": "address",
          "name": "sender",
          "type": "address"
        },
        {
          "indexed": true,
          "internalType": "address",
          "name": "receiver",
          "type": "address"
        },
        {
          "indexed": true,
          "internalType": "address",
          "name": "owner",
          "type": "address"
        },
        {
          "indexed": false,
          "internalType": "uint256",
          "name": "assets",
          "type": "uint256"
        },
        {
          "indexed": false,
          "internalType": "uint256",
          "name": "shares",
          "type": "uint256"
        }
      ],
      "name": "Withdraw",
      "type": "event"
    },
    {
      "inputs": [],
      "name": "aToken",
      "outputs": [
        {
          "internalType": "contract IERC20",
          "name": "",
          "type": "address"
        }
      ],
      "stateMutability": "view",
      "type": "function"
    },
    {
      "inputs": [
        {
          "internalType": "address",
          "name": "owner",
          "type": "address"
        },
        {
          "internalType": "address",
          "name": "spender",
          "type": "address"
        }
      ],
      "name": "allowance",
      "outputs": [
        {
          "internalType": "uint256",
          "name": "",
          "type": "uint256"
        }
      ],
      "stateMutability": "view",
      "type": "function"
    },
    {
      "inputs": [
        {
          "internalType": "address",
          "name": "spender",
          "type": "address"
        },
        {
          "internalType": "uint256",
          "name": "value",
          "type": "uint256"
        }
      ],
      "name": "approve",
      "outputs": [
        {
          "internalType": "bool",
          "name": "",
          "type": "bool"
        }
      ],
      "stateMutability": "nonpayable",
      "type": "function"
    },
    {
      "inputs": [],
      "name": "asset",
      "outputs": [
        {
          "internalType": "address",
          "name": "",
          "type": "address"
        }
      ],
      "stateMutability": "view",
      "type": "function"
    },
    {
      "inputs": [
        {
          "internalType": "address",
          "name": "account",
          "type": "address"
        }
      ],
      "name": "balanceOf",
      "outputs": [
        {
          "internalType": "uint256",
          "name": "",
          "type": "uint256"
        }
      ],
      "stateMutability": "view",
      "type": "function"
    },
    {
      "inputs": [
        {
          "internalType": "uint256",
          "name": "shares",
          "type": "uint256"
        }
      ],
      "name": "convertToAssets",
      "outputs": [
        {
          "internalType": "uint256",
          "name": "",
          "type": "uint256"
        }
      ],
      "stateMutability": "view",
      "type": "function"
    },
    {
      "inputs": [
        {
          "internalType": "uint256",
          "name": "assets",
          "type": "uint256"
        }
      ],
      "name": "convertToShares",
      "outputs": [
        {
          "internalType": "uint256",
          "name": "",
          "type": "uint256"
        }
      ],
      "stateMutability": "view",
      "type": "function"
    },
    {
      "inputs": [],
      "name": "decimals",
      "outputs": [
        {
          "internalType": "uint8",
          "name": "",
          "type": "uint8"
        }
      ],
      "stateMutability": "view",
      "type": "function"
    },
    {
      "inputs": [
        {
          "internalType": "uint256",
          "name": "assets",
          "type": "uint256"
        },
        {
          "internalType": "address",
          "name": "receiver",
          "type": "address"
        }
      ],
      "name": "deposit",
      "outputs": [
        {
          "internalType": "uint256",
          "name": "",
          "type": "uint256"
        }
      ],
      "stateMutability": "nonpayable",
      "type": "function"
    },
    {
      "inputs": [
        {
          "internalType": "address",
          "name": "",
          "type": "address"
        }
      ],
      "name": "maxDeposit",
      "outputs": [
        {
          "internalType": "uint256",
          "name": "",
          "type": "uint256"
        }
      ],
      "stateMutability": "view",
      "type": "function"
    },
    {
      "inputs": [
        {
          "internalType": "address",
          "name": "",
          "type": "address"
        }
      ],
      "name": "maxMint",
      "outputs": [
        {
          "internalType": "uint256",
          "name": "",
          "type": "uint256"
        }
      ],
      "stateMutability": "view",
      "type": "function"
    },
    {
      "inputs": [
        {
          "internalType": "address",
          "name": "owner",
          "type": "address"
        }
      ],
      "name": "maxRedeem",
      "outputs": [
        {
          "internalType": "uint256",
          "name": "",
          "type": "uint256"
        }
      ],
      "stateMutability": "view",
      "type": "function"
    },
    {
      "inputs": [
        {
          "internalType": "address",
          "name": "owner",
          "type": "address"
        }
      ],
      "name": "maxWithdraw",
      "outputs": [
        {
          "internalType": "uint256",
          "name": "",
          "type": "uint256"
        }
      ],
      "stateMutability": "view",
      "type": "function"
    },
    {
      "inputs": [
        {
          "internalType": "uint256",
          "name": "shares",
          "type": "uint256"
        },
        {
          "internalType": "address",
          "name": "receiver",
          "type": "address"
        }
      ],
      "name": "mint",
      "outputs": [
        {
          "internalType": "uint256",
          "name": "",
          "type": "uint256"
        }
      ],
      "stateMutability": "nonpayable",
      "type": "function"
    },
    {
      "inputs": [],
      "name": "name",
      "outputs": [
        {
          "internalType": "string",
          "name": "",
          "type": "string"
        }
      ],
      "stateMutability": "view",
      "type": "function"
    },
    {
      "inputs": [],
      "name": "owner",
      "outputs": [
        {
          "internalType": "address",
          "name": "",
          "type": "address"
        }
      ],
      "stateMutability": "view",
      "type": "function"
    },
    {
      "inputs": [],
      "name": "pool",
      "outputs": [
        {
          "internalType": "contract IPool",
          "name": "",
          "type": "address"
        }
      ],
      "stateMutability": "view",
      "type": "function"
    },
    {
      "inputs": [
        {
          "internalType": "uint256",
          "name": "assets",
          "type": "uint256"
        }
      ],
      "name": "previewDeposit",
      "outputs": [
        {
          "internalType": "uint256",
          "name": "",
          "type": "uint256"
        }
      ],
      "stateMutability": "view",
      "type": "function"
    },
    {
      "inputs": [
        {
          "internalType": "uint256",
          "name": "shares",
          "type": "uint256"
        }
      ],
      "name": "previewMint",
      "outputs": [
        {
          "internalType": "uint256",
          "name": "",
          "type": "uint256"
        }
      ],
      "stateMutability": "view",
      "type": "function"
    },
    {
      "inputs": [
        {
          "internalType": "uint256",
          "name": "shares",
          "type": "uint256"
        }
      ],
      "name": "previewRedeem",
      "outputs": [
        {
          "internalType": "uint256",
          "name": "",
          "type": "uint256"
        }
      ],
      "stateMutability": "view",
      "type": "function"
    },
    {
      "inputs": [
        {
          "internalType": "uint256",
          "name": "assets",
          "type": "uint256"
        }
      ],
      "name": "previewWithdraw",
      "outputs": [
        {
          "internalType": "uint256",
          "name": "",
          "type": "uint256"
        }
      ],
      "stateMutability": "view",
      "type": "function"
    },
    {
      "inputs": [
        {
          "internalType": "uint256",
          "name": "shares",
          "type": "uint256"
        },
        {
          "internalType": "address",
          "name": "receiver",
          "type": "address"
        },
        {
          "internalType": "address",
          "name": "owner",
          "type": "address"
        }
      ],
      "name": "redeem",
      "outputs": [
        {
          "internalType": "uint256",
          "name": "",
          "type": "uint256"
        }
      ],
      "stateMutability": "nonpayable",
      "type": "function"
    },
    {
      "inputs": [],
      "name": "renounceOwnership",
      "outputs": [],
      "stateMutability": "nonpayable",
      "type": "function"
    },
    {
      "inputs": [],
      "name": "symbol",
      "outputs": [
        {
          "internalType": "string",
          "name": "",
          "type": "string"
        }
      ],
      "stateMutability": "view",
      "type": "function"
    },
    {
      "inputs": [],
      "name": "totalAssets",
      "outputs": [
        {
          "internalType": "uint256",
          "name": "",
          "type": "uint256"
        }
      ],
      "stateMutability": "view",
      "type": "function"
    },
    {
      "inputs": [],
      "name": "totalSupply",
      "outputs": [
        {
          "internalType": "uint256",
          "name": "",
          "type": "uint256"
        }
      ],
      "stateMutability": "view",
      "type": "function"
    },
    {
      "inputs": [
        {
          "internalType": "address",
          "name": "to",
          "type": "address"
        },
        {
          "internalType": "uint256",
          "name": "value",
          "type": "uint256"
        }
      ],
      "name": "transfer",
      "outputs": [
        {
          "internalType": "bool",
          "name": "",
          "type": "bool"
        }
      ],
      "stateMutability": "nonpayable",
      "type": "function"
    },
    {
      "inputs": [
        {
          "internalType": "address",
          "name": "from",
          "type": "address"
        },
        {
          "internalType": "address",
          "name": "to",
          "type": "address"
        },
        {
          "internalType": "uint256",
          "name": "value",
          "type": "uint256"
        }
      ],
      "name": "transferFrom",
      "outputs": [
        {
          "internalType": "bool",
          "name": "",
          "type": "bool"
        }
      ],
      "stateMutability": "nonpayable",
      "type": "function"
    },
    {
      "inputs": [
        {
          "internalType": "address",
          "name": "newOwner",
          "type": "address"
        }
      ],
      "name": "transferOwnership",
      "outputs": [],
      "stateMutability": "nonpayable",
      "type": "function"
    },
    {
      "inputs": [
        {
          "internalType": "uint256",
          "name": "assets",
          "type": "uint256"
        },
        {
          "internalType": "address",
          "name": "receiver",
          "type": "address"
        },
        {
          "internalType": "address",
          "name": "owner",
          "type": "address"
        }
      ],
      "name": "withdraw",
      "outputs": [
        {
          "internalType": "uint256",
          "name": "",
          "type": "uint256"
        }
      ],
      "stateMutability": "nonpayable",
      "type": "function"
    }
  ],
  "bytecode": "0x60c06040523480156200001157600080fd5b5060405162003307380380620033078339818101604052810190620000379190620006b6565b3385858581600390816200004c9190620009c7565b5080600490816200005e9190620009c7565b50505060008062000075836200028560201b60201c565b91509150816200008757601262000089565b805b60ff1660a08160ff16815250508273ffffffffffffffffffffffffffffffffffffffff1660808173ffffffffffffffffffffffffffffffffffffffff1681525050505050600073ffffffffffffffffffffffffffffffffffffffff168173ffffffffffffffffffffffffffffffffffffffff1603620001425760006040517f1e4fbdf700000000000000000000000000000000000000000000000000000000815260040162000139919062000abf565b60405180910390fd5b62000153816200039f60201b60201c565b5081600660006101000a81548173ffffffffffffffffffffffffffffffffffffffff021916908373ffffffffffffffffffffffffffffffffffffffff16021790555080600760006101000a81548173ffffffffffffffffffffffffffffffffffffffff021916908373ffffffffffffffffffffffffffffffffffffffff1602179055508473ffffffffffffffffffffffffffffffffffffffff1663095ea7b3837fffffffffffffffffffffffffffffffffffffffffffffffffffffffffffffffff6040518363ffffffff1660e01b81526004016200023392919062000aed565b6020604051808303816000875af115801562000253573d6000803e3d6000fd5b505050506040513d601f19601f8201168201806040525081019062000279919062000b57565b50505050505062000c52565b6000806000808473ffffffffffffffffffffffffffffffffffffffff1660405160240160405160208183030381529060405263313ce56760e01b6020820180517bffffffffffffffffffffffffffffffffffffffffffffffffffffffff8381831617835250505050604051620002fc919062000bd6565b600060405180830381855afa9150503d806000811462000339576040519150601f19603f3d011682016040523d82523d6000602084013e6200033e565b606091505b50915091508180156200035357506020815110155b15620003905760008180602001905181019062000371919062000c20565b905060ff801681116200038e57600181945094505050506200039a565b505b6000809350935050505b915091565b6000600560009054906101000a900473ffffffffffffffffffffffffffffffffffffffff16905081600560006101000a81548173ffffffffffffffffffffffffffffffffffffffff021916908373ffffffffffffffffffffffffffffffffffffffff1602179055508173ffffffffffffffffffffffffffffffffffffffff168173ffffffffffffffffffffffffffffffffffffffff167f8be0079c531659141344cd1fd0a4f28419497f9722a3daafe3b4186f6b6457e060405160405180910390a35050565b6000604051905090565b600080fd5b600080fd5b600073ffffffffffffffffffffffffffffffffffffffff82169050919050565b6000620004a68262000479565b9050919050565b6000620004ba8262000499565b9050919050565b620004cc81620004ad565b8114620004d857600080fd5b50565b600081519050620004ec81620004c1565b92915050565b600080fd5b600080fd5b6000601f19601f8301169050919050565b7f4e487b7100000000000000000000000000000000000000000000000000000000600052604160045260246000fd5b6200054782620004fc565b810181811067ffffffffffffffff821117156200056957620005686200050d565b5b80604052505050565b60006200057e62000465565b90506200058c82826200053c565b919050565b600067ffffffffffffffff821115620005af57620005ae6200050d565b5b620005ba82620004fc565b9050602081019050919050565b60005b83811015620005e7578082015181840152602081019050620005ca565b60008484015250505050565b60006200060a620006048462000591565b62000572565b905082815260208101848484011115620006295762000628620004f7565b5b62000636848285620005c7565b509392505050565b600082601f830112620006565762000655620004f2565b5b815162000668848260208601620005f3565b91505092915050565b60006200067e8262000499565b9050919050565b620006908162000671565b81146200069c57600080fd5b50565b600081519050620006b08162000685565b92915050565b600080600080600060a08688031215620006d557620006d46200046f565b5b6000620006e588828901620004db565b955050602086015167ffffffffffffffff81111562000709576200070862000474565b5b62000717888289016200063e565b945050604086015167ffffffffffffffff8111156200073b576200073a62000474565b5b62000749888289016200063e565b93505060606200075c888289016200069f565b92505060806200076f88828901620004db565b9150509295509295909350565b600081519050919050565b7f4e487b7100000000000000000000000000000000000000000000000000000000600052602260045260246000fd5b60006002820490506001821680620007cf57607f821691505b602082108103620007e557620007e462000787565b5b50919050565b60008190508160005260206000209050919050565b60006020601f8301049050919050565b600082821b905092915050565b6000600883026200084f7fffffffffffffffffffffffffffffffffffffffffffffffffffffffffffffffff8262000810565b6200085b868362000810565b95508019841693508086168417925050509392505050565b6000819050919050565b6000819050919050565b6000620008a8620008a26200089c8462000873565b6200087d565b62000873565b9050919050565b6000819050919050565b620008c48362000887565b620008dc620008d382620008af565b8484546200081d565b825550505050565b600090565b620008f3620008e4565b62000900818484620008b9565b505050565b5b8181101562000928576200091c600082620008e9565b60018101905062000906565b5050565b601f82111562000977576200094181620007eb565b6200094c8462000800565b810160208510156200095c578190505b620009746200096b8562000800565b83018262000905565b50505b505050565b600082821c905092915050565b60006200099c600019846008026200097c565b1980831691505092915050565b6000620009b7838362000989565b9150826002028217905092915050565b620009d2826200077c565b67ffffffffffffffff811115620009ee57620009ed6200050d565b5b620009fa8254620007b6565b62000a078282856200092c565b600060209050601f83116001811462000a3f576000841562000a2a578287015190505b62000a368582620009a9565b86555062000aa6565b601f19841662000a4f86620007eb565b60005b8281101562000a795784890151825560018201915060208501945060208101905062000a52565b8683101562000a99578489015162000a95601f89168262000989565b8355505b6001600288020188555050505b505050505050565b62000ab98162000499565b82525050565b600060208201905062000ad6600083018462000aae565b92915050565b62000ae78162000873565b82525050565b600060408201905062000b04600083018562000aae565b62000b13602083018462000adc565b9392505050565b60008115159050919050565b62000b318162000b1a565b811462000b3d57600080fd5b50565b60008151905062000b518162000b26565b92915050565b60006020828403121562000b705762000b6f6200046f565b5b600062000b808482850162000b40565b91505092915050565b600081519050919050565b600081905092915050565b600062000bac8262000b89565b62000bb8818562000b94565b935062000bca818560208601620005c7565b80840191505092915050565b600062000be4828462000b9f565b915081905092915050565b62000bfa8162000873565b811462000c0657600080fd5b50565b60008151905062000c1a8162000bef565b92915050565b60006020828403121562000c395762000c386200046f565b5b600062000c498482850162000c09565b91505092915050565b60805160a05161268f62000c78600039600061088e015260006108c0015261268f6000f3fe608060405234801561001057600080fd5b50600436106101da5760003560e01c80638da5cb5b11610104578063ba087652116100a2578063d905777e11610071578063d905777e146105f7578063dd62ed3e14610627578063ef8b30f714610657578063f2fde38b14610687576101da565b8063ba08765214610537578063c63d75b614610567578063c6e6f59214610597578063ce96cb77146105c7576101da565b8063a0c1f15e116100de578063a0c1f15e14610489578063a9059cbb146104a7578063b3d7f6b9146104d7578063b460af9414610507576101da565b80638da5cb5b1461041d57806394bf804d1461043b57806395d89b411461046b576101da565b806323b872dd1161017c5780634cdad5061161014b5780634cdad506146103835780636e553f65146103b357806370a08231146103e3578063715018a614610413576101da565b806323b872dd146102e7578063313ce5671461031757806338d52e0f14610335578063402d267d14610353576101da565b8063095ea7b3116101b8578063095ea7b31461024b5780630a28a4771461027b57806316f0115b146102ab57806318160ddd146102c9576101da565b806301e1d114146101df57806306fdde03146101fd57806307a2d13a1461021b575b600080fd5b6101e76106a3565b6040516101f49190611d24565b60405180910390f35b610205610746565b6040516102129190611dcf565b60405180910390f35b61023560048036038101906102309190611e22565b6107d8565b6040516102429190611d24565b60405180910390f35b61026560048036038101906102609190611ead565b6107ec565b6040516102729190611f08565b60405180910390f35b61029560048036038101906102909190611e22565b61080f565b6040516102a29190611d24565b60405180910390f35b6102b3610823565b6040516102c09190611f82565b60405180910390f35b6102d1610849565b6040516102de9190611d24565b60405180910390f35b61030160048036038101906102fc9190611f9d565b610853565b60405161030e9190611f08565b60405180910390f35b61031f610882565b60405161032c919061200c565b60405180910390f35b61033d6108bc565b60405161034a9190612036565b60405180910390f35b61036d60048036038101906103689190612051565b6108e4565b60405161037a9190611d24565b60405180910390f35b61039d60048036038101906103989190611e22565b61090e565b6040516103aa9190611d24565b60405180910390f35b6103cd60048036038101906103c8919061207e565b610922565b6040516103da9190611d24565b60405180910390f35b6103fd60048036038101906103f89190612051565b6109a4565b60405161040a9190611d24565b60405180910390f35b61041b6109ec565b005b610425610a00565b6040516104329190612036565b60405180910390f35b6104556004803603810190610450919061207e565b610a2a565b6040516104629190611d24565b60405180910390f35b610473610aac565b6040516104809190611dcf565b60405180910390f35b610491610b3e565b60405161049e91906120df565b60405180910390f35b6104c160048036038101906104bc9190611ead565b610b64565b6040516104ce9190611f08565b60405180910390f35b6104f160048036038101906104ec9190611e22565b610b87565b6040516104fe9190611d24565b60405180910390f35b610521600480360381019061051c91906120fa565b610b9b565b60405161052e9190611d24565b60405180910390f35b610551600480360381019061054c91906120fa565b610c1f565b60405161055e9190611d24565b60405180910390f35b610581600480360381019061057c9190612051565b610ca3565b60405161058e9190611d24565b60405180910390f35b6105b160048036038101906105ac9190611e22565b610ccd565b6040516105be9190611d24565b60405180910390f35b6105e160048036038101906105dc9190612051565b610ce1565b6040516105ee9190611d24565b60405180910390f35b610611600480360381019061060c9190612051565b610cfd565b60405161061e9190611d24565b60405180910390f35b610641600480360381019061063c919061214d565b610d0f565b60405161064e9190611d24565b60405180910390f35b610671600480360381019061066c9190611e22565b610d96565b60405161067e9190611d24565b60405180910390f35b6106a1600480360381019061069c9190612051565b610daa565b005b6000600760009054906101000a900473ffffffffffffffffffffffffffffffffffffffff1673ffffffffffffffffffffffffffffffffffffffff166370a08231306040518263ffffffff1660e01b81526004016107009190612036565b602060405180830381865afa15801561071d573d6000803e3d6000fd5b505050506040513d601f19601f8201168201806040525081019061074191906121a2565b905090565b606060038054610755906121fe565b80601f0160208091040260200160405190810160405280929190818152602001828054610781906121fe565b80156107ce5780601f106107a3576101008083540402835291602001916107ce565b820191906000526020600020905b8154815290600101906020018083116107b157829003601f168201915b5050505050905090565b60006107e5826000610e30565b9050919050565b6000806107f7610e89565b9050610804818585610e91565b600191505092915050565b600061081c826001610ea3565b9050919050565b600660009054906101000a900473ffffffffffffffffffffffffffffffffffffffff1681565b6000600254905090565b60008061085e610e89565b905061086b858285610efc565b610876858585610f91565b60019150509392505050565b600061088c611085565b7f00000000000000000000000000000000000000000000000000000000000000006108b7919061225e565b905090565b60007f0000000000000000000000000000000000000000000000000000000000000000905090565b60007fffffffffffffffffffffffffffffffffffffffffffffffffffffffffffffffff9050919050565b600061091b826000610e30565b9050919050565b60008061092e836108e4565b905080841115610979578284826040517f79012fb200000000000000000000000000000000000000000000000000000000815260040161097093929190612293565b60405180910390fd5b600061098485610d96565b9050610999610991610e89565b85878461108a565b809250505092915050565b60008060008373ffffffffffffffffffffffffffffffffffffffff1673ffffffffffffffffffffffffffffffffffffffff168152602001908152602001600020549050919050565b6109f4611137565b6109fe60006111be565b565b6000600560009054906101000a900473ffffffffffffffffffffffffffffffffffffffff16905090565b600080610a3683610ca3565b905080841115610a81578284826040517f284ff667000000000000000000000000000000000000000000000000000000008152600401610a7893929190612293565b60405180910390fd5b6000610a8c85610b87565b9050610aa1610a99610e89565b85838861108a565b809250505092915050565b606060048054610abb906121fe565b80601f0160208091040260200160405190810160405280929190818152602001828054610ae7906121fe565b8015610b345780601f10610b0957610100808354040283529160200191610b34565b820191906000526020600020905b815481529060010190602001808311610b1757829003601f168201915b5050505050905090565b600760009054906101000a900473ffffffffffffffffffffffffffffffffffffffff1681565b600080610b6f610e89565b9050610b7c818585610f91565b600191505092915050565b6000610b94826001610e30565b9050919050565b600080610ba783610ce1565b905080851115610bf2578285826040517ffe9cceec000000000000000000000000000000000000000000000000000000008152600401610be993929190612293565b60405180910390fd5b6000610bfd8661080f565b9050610c13610c0a610e89565b86868985611284565b80925050509392505050565b600080610c2b83610cfd565b905080851115610c76578285826040517fb94abeec000000000000000000000000000000000000000000000000000000008152600401610c6d93929190612293565b60405180910390fd5b6000610c818661090e565b9050610c97610c8e610e89565b8686848a611284565b80925050509392505050565b60007fffffffffffffffffffffffffffffffffffffffffffffffffffffffffffffffff9050919050565b6000610cda826000610ea3565b9050919050565b6000610cf6610cef836109a4565b6000610e30565b9050919050565b6000610d08826109a4565b9050919050565b6000600160008473ffffffffffffffffffffffffffffffffffffffff1673ffffffffffffffffffffffffffffffffffffffff16815260200190815260200160002060008373ffffffffffffffffffffffffffffffffffffffff1673ffffffffffffffffffffffffffffffffffffffff16815260200190815260200160002054905092915050565b6000610da3826000610ea3565b9050919050565b610db2611137565b600073ffffffffffffffffffffffffffffffffffffffff168173ffffffffffffffffffffffffffffffffffffffff1603610e245760006040517f1e4fbdf7000000000000000000000000000000000000000000000000000000008152600401610e1b9190612036565b60405180910390fd5b610e2d816111be565b50565b6000610e816001610e3f6106a3565b610e4991906122ca565b610e51611085565b600a610e5d9190612431565b610e65610849565b610e6f91906122ca565b8486611342909392919063ffffffff16565b905092915050565b600033905090565b610e9e8383836001611391565b505050565b6000610ef4610eb0611085565b600a610ebc9190612431565b610ec4610849565b610ece91906122ca565b6001610ed86106a3565b610ee291906122ca565b8486611342909392919063ffffffff16565b905092915050565b6000610f088484610d0f565b90507fffffffffffffffffffffffffffffffffffffffffffffffffffffffffffffffff811015610f8b5781811015610f7b578281836040517ffb8f41b2000000000000000000000000000000000000000000000000000000008152600401610f7293929190612293565b60405180910390fd5b610f8a84848484036000611391565b5b50505050565b600073ffffffffffffffffffffffffffffffffffffffff168373ffffffffffffffffffffffffffffffffffffffff16036110035760006040517f96c6fd1e000000000000000000000000000000000000000000000000000000008152600401610ffa9190612036565b60405180910390fd5b600073ffffffffffffffffffffffffffffffffffffffff168273ffffffffffffffffffffffffffffffffffffffff16036110755760006040517fec442f0500000000000000000000000000000000000000000000000000000000815260040161106c9190612036565b60405180910390fd5b611080838383611568565b505050565b600090565b6110968484848461178d565b600660009054906101000a900473ffffffffffffffffffffffffffffffffffffffff1673ffffffffffffffffffffffffffffffffffffffff1663617ba0376110dc6108bc565b843060006040518563ffffffff1660e01b81526004016110ff94939291906124c5565b600060405180830381600087803b15801561111957600080fd5b505af115801561112d573d6000803e3d6000fd5b5050505050505050565b61113f610e89565b73ffffffffffffffffffffffffffffffffffffffff1661115d610a00565b73ffffffffffffffffffffffffffffffffffffffff16146111bc57611180610e89565b6040517f118cdaa70000000000000000000000000000000000000000000000000000000081526004016111b39190612036565b60405180910390fd5b565b6000600560009054906101000a900473ffffffffffffffffffffffffffffffffffffffff16905081600560006101000a81548173ffffffffffffffffffffffffffffffffffffffff021916908373ffffffffffffffffffffffffffffffffffffffff1602179055508173ffffffffffffffffffffffffffffffffffffffff168173ffffffffffffffffffffffffffffffffffffffff167f8be0079c531659141344cd1fd0a4f28419497f9722a3daafe3b4186f6b6457e060405160405180910390a35050565b600660009054906101000a900473ffffffffffffffffffffffffffffffffffffffff1673ffffffffffffffffffffffffffffffffffffffff166369328dec6112ca6108bc565b84306040518463ffffffff1660e01b81526004016112ea9392919061250a565b6020604051808303816000875af1158015611309573d6000803e3d6000fd5b505050506040513d601f19601f8201168201806040525081019061132d91906121a2565b5061133b8585858585611817565b5050505050565b6000611372611350836118f7565b801561136d57506000848061136857611367612541565b5b868809115b611925565b61137d868686611931565b61138791906122ca565b9050949350505050565b600073ffffffffffffffffffffffffffffffffffffffff168473ffffffffffffffffffffffffffffffffffffffff16036114035760006040517fe602df050000000000000000000000000000000000000000000000000000000081526004016113fa9190612036565b60405180910390fd5b600073ffffffffffffffffffffffffffffffffffffffff168373ffffffffffffffffffffffffffffffffffffffff16036114755760006040517f94280d6200000000000000000000000000000000000000000000000000000000815260040161146c9190612036565b60405180910390fd5b81600160008673ffffffffffffffffffffffffffffffffffffffff1673ffffffffffffffffffffffffffffffffffffffff16815260200190815260200160002060008573ffffffffffffffffffffffffffffffffffffffff1673ffffffffffffffffffffffffffffffffffffffff168152602001908152602001600020819055508015611562578273ffffffffffffffffffffffffffffffffffffffff168473ffffffffffffffffffffffffffffffffffffffff167f8c5be1e5ebec7d5bd14f71427d1e84f3dd0314c0f7b2291e5b200ac8c7c3b925846040516115599190611d24565b60405180910390a35b50505050565b600073ffffffffffffffffffffffffffffffffffffffff168373ffffffffffffffffffffffffffffffffffffffff16036115ba5780600260008282546115ae91906122ca565b9250508190555061168d565b60008060008573ffffffffffffffffffffffffffffffffffffffff1673ffffffffffffffffffffffffffffffffffffffff16815260200190815260200160002054905081811015611646578381836040517fe450d38c00000000000000000000000000000000000000000000000000000000815260040161163d93929190612293565b60405180910390fd5b8181036000808673ffffffffffffffffffffffffffffffffffffffff1673ffffffffffffffffffffffffffffffffffffffff16815260200190815260200160002081905550505b600073ffffffffffffffffffffffffffffffffffffffff168273ffffffffffffffffffffffffffffffffffffffff16036116d65780600260008282540392505081905550611723565b806000808473ffffffffffffffffffffffffffffffffffffffff1673ffffffffffffffffffffffffffffffffffffffff168152602001908152602001600020600082825401925050819055505b8173ffffffffffffffffffffffffffffffffffffffff168373ffffffffffffffffffffffffffffffffffffffff167fddf252ad1be2c89b69c2b068fc378daa952ba7f163c4a11628f55a4df523b3ef836040516117809190611d24565b60405180910390a3505050565b6117a06117986108bc565b853085611a19565b6117aa8382611a9b565b8273ffffffffffffffffffffffffffffffffffffffff168473ffffffffffffffffffffffffffffffffffffffff167fdcbc1c05240f31ff3ad067ef1ee35ce4997762752e3a095284754544f4c709d78484604051611809929190612570565b60405180910390a350505050565b8273ffffffffffffffffffffffffffffffffffffffff168573ffffffffffffffffffffffffffffffffffffffff161461185657611855838683610efc565b5b6118608382611b1d565b61187261186b6108bc565b8584611b9f565b8273ffffffffffffffffffffffffffffffffffffffff168473ffffffffffffffffffffffffffffffffffffffff168673ffffffffffffffffffffffffffffffffffffffff167ffbde797d201c681b91056529119e0b02407c7bb96a4a2c75c01fc9667232c8db85856040516118e8929190612570565b60405180910390a45050505050565b6000600160028360038111156119105761190f612599565b5b61191a91906125c8565b60ff16149050919050565b60008115159050919050565b60008060006119408686611c1e565b91509150600082036119665783818161195c5761195b612541565b5b0492505050611a12565b818411611986576119856119806000861460126011611c3d565b611c57565b5b600084868809905081811183039250808203915060008560000386169050808604955080830492506001818260000304019050808402831792506000600287600302189050808702600203810290508087026002038102905080870260020381029050808702600203810290508087026002038102905080870260020381029050808402955050505050505b9392505050565b611a95848573ffffffffffffffffffffffffffffffffffffffff166323b872dd868686604051602401611a4e939291906125f9565b604051602081830303815290604052915060e01b6020820180517bffffffffffffffffffffffffffffffffffffffffffffffffffffffff8381831617835250505050611c69565b50505050565b600073ffffffffffffffffffffffffffffffffffffffff168273ffffffffffffffffffffffffffffffffffffffff1603611b0d5760006040517fec442f05000000000000000000000000000000000000000000000000000000008152600401611b049190612036565b60405180910390fd5b611b1960008383611568565b5050565b600073ffffffffffffffffffffffffffffffffffffffff168273ffffffffffffffffffffffffffffffffffffffff1603611b8f5760006040517f96c6fd1e000000000000000000000000000000000000000000000000000000008152600401611b869190612036565b60405180910390fd5b611b9b82600083611568565b5050565b611c19838473ffffffffffffffffffffffffffffffffffffffff1663a9059cbb8585604051602401611bd2929190612630565b604051602081830303815290604052915060e01b6020820180517bffffffffffffffffffffffffffffffffffffffffffffffffffffffff8381831617835250505050611c69565b505050565b6000806000198385098385029150818110828203039250509250929050565b6000611c4884611925565b82841802821890509392505050565b634e487b71600052806020526024601cfd5b600080602060008451602086016000885af180611c8c576040513d6000823e3d81fd5b3d925060005191505060008214611ca7576001811415611cc3565b60008473ffffffffffffffffffffffffffffffffffffffff163b145b15611d0557836040517f5274afe7000000000000000000000000000000000000000000000000000000008152600401611cfc9190612036565b60405180910390fd5b50505050565b6000819050919050565b611d1e81611d0b565b82525050565b6000602082019050611d396000830184611d15565b92915050565b600081519050919050565b600082825260208201905092915050565b60005b83811015611d79578082015181840152602081019050611d5e565b60008484015250505050565b6000601f19601f8301169050919050565b6000611da182611d3f565b611dab8185611d4a565b9350611dbb818560208601611d5b565b611dc481611d85565b840191505092915050565b60006020820190508181036000830152611de98184611d96565b905092915050565b600080fd5b611dff81611d0b565b8114611e0a57600080fd5b50565b600081359050611e1c81611df6565b92915050565b600060208284031215611e3857611e37611df1565b5b6000611e4684828501611e0d565b91505092915050565b600073ffffffffffffffffffffffffffffffffffffffff82169050919050565b6000611e7a82611e4f565b9050919050565b611e8a81611e6f565b8114611e9557600080fd5b50565b600081359050611ea781611e81565b92915050565b60008060408385031215611ec457611ec3611df1565b5b6000611ed285828601611e98565b9250506020611ee385828601611e0d565b9150509250929050565b60008115159050919050565b611f0281611eed565b82525050565b6000602082019050611f1d6000830184611ef9565b92915050565b6000819050919050565b6000611f48611f43611f3e84611e4f565b611f23565b611e4f565b9050919050565b6000611f5a82611f2d565b9050919050565b6000611f6c82611f4f565b9050919050565b611f7c81611f61565b82525050565b6000602082019050611f976000830184611f73565b92915050565b600080600060608486031215611fb657611fb5611df1565b5b6000611fc486828701611e98565b9350506020611fd586828701611e98565b9250506040611fe686828701611e0d565b9150509250925092565b600060ff82169050919050565b61200681611ff0565b82525050565b60006020820190506120216000830184611ffd565b92915050565b61203081611e6f565b82525050565b600060208201905061204b6000830184612027565b92915050565b60006020828403121561206757612066611df1565b5b600061207584828501611e98565b91505092915050565b6000806040838503121561209557612094611df1565b5b60006120a385828601611e0d565b92505060206120b485828601611e98565b9150509250929050565b60006120c982611f4f565b9050919050565b6120d9816120be565b82525050565b60006020820190506120f460008301846120d0565b92915050565b60008060006060848603121561211357612112611df1565b5b600061212186828701611e0d565b935050602061213286828701611e98565b925050604061214386828701611e98565b9150509250925092565b6000806040838503121561216457612163611df1565b5b600061217285828601611e98565b925050602061218385828601611e98565b9150509250929050565b60008151905061219c81611df6565b92915050565b6000602082840312156121b8576121b7611df1565b5b60006121c68482850161218d565b91505092915050565b7f4e487b7100000000000000000000000000000000000000000000000000000000600052602260045260246000fd5b6000600282049050600182168061221657607f821691505b602082108103612229576122286121cf565b5b50919050565b7f4e487b7100000000000000000000000000000000000000000000000000000000600052601160045260246000fd5b600061226982611ff0565b915061227483611ff0565b9250828201905060ff81111561228d5761228c61222f565b5b92915050565b60006060820190506122a86000830186612027565b6122b56020830185611d15565b6122c26040830184611d15565b949350505050565b60006122d582611d0b565b91506122e083611d0b565b92508282019050808211156122f8576122f761222f565b5b92915050565b60008160011c9050919050565b6000808291508390505b6001851115612355578086048111156123315761233061222f565b5b60018516156123405780820291505b808102905061234e856122fe565b9450612315565b94509492505050565b60008261236e576001905061242a565b8161237c576000905061242a565b8160018114612392576002811461239c576123cb565b600191505061242a565b60ff8411156123ae576123ad61222f565b5b8360020a9150848211156123c5576123c461222f565b5b5061242a565b5060208310610133831016604e8410600b84101617156124005782820a9050838111156123fb576123fa61222f565b5b61242a565b61240d848484600161230b565b925090508184048111156124245761242361222f565b5b81810290505b9392505050565b600061243c82611d0b565b915061244783611ff0565b92506124747fffffffffffffffffffffffffffffffffffffffffffffffffffffffffffffffff848461235e565b905092915050565b6000819050919050565b600061ffff82169050919050565b60006124af6124aa6124a58461247c565b611f23565b612486565b9050919050565b6124bf81612494565b82525050565b60006080820190506124da6000830187612027565b6124e76020830186611d15565b6124f46040830185612027565b61250160608301846124b6565b95945050505050565b600060608201905061251f6000830186612027565b61252c6020830185611d15565b6125396040830184612027565b949350505050565b7f4e487b7100000000000000000000000000000000000000000000000000000000600052601260045260246000fd5b60006040820190506125856000830185611d15565b6125926020830184611d15565b9392505050565b7f4e487b7100000000000000000000000000000000000000000000000000000000600052602160045260246000fd5b60006125d382611ff0565b91506125de83611ff0565b9250826125ee576125ed612541565b5b828206905092915050565b600060608201905061260e6000830186612027565b61261b6020830185612027565b6126286040830184611d15565b949350505050565b60006040820190506126456000830185612027565b6126526020830184611d15565b939250505056fea2646970667358221220ff79d38b27ad7ab5f9d417dadf616a01e92c4979c4c3d4b2f76b711d862b3d2c64736f6c63430008140033",
  "linkReferences": {},
  "deployedLinkReferences": {}
}