{
  "_format": "hh-sol-artifact-1",
  "contractName": "MockPool",
  "sourceName": "contracts/mocks/MockPool.sol",
  "abi": [
    {
      "inputs": [
        {
          "internalType": "contract IERC20",
          "name": "_asset",
          "type": "address"
        }
      ],
      "stateMutability": "nonpayable",
      "type": "constructor"
    },
    {
      "inputs": [],
      "name": "aToken",
      "outputs": [
        {
          "internalType": "contract MockAToken",
          "name": "",
          "type": "address"
        }
      ],
      "stateMutability": "view",
      "type": "function"
    },
    {
      "inputs": [],
      "name": "asset",
      "outputs": [
        {
          "internalType": "contract IERC20",
          "name": "",
          "type": "address"
        }
      ],
      "stateMutability": "view",
      "type": "function"
    },
    {
      "inputs": [
        {
          "internalType": "address",
          "name": "_asset",
          "type": "address"
        },
        {
          "internalType": "uint256",
          "name": "amount",
          "type": "uint256"
        },
        {
          "internalType": "address",
          "name": "onBehalfOf",
          "type": "address"
        },
        {
          "internalType": "uint16",
          "name": "referralCode",
          "type": "uint16"
        }
      ],
      "name": "supply",
      "outputs": [],
      "stateMutability": "nonpayable",
      "type": "function"
    },
    {
      "inputs": [
        {
          "internalType": "address",
          "name": "_asset",
          "type": "address"
        },
        {
          "internalType": "uint256",
          "name": "amount",
          "type": "uint256"
        },
        {
          "internalType": "address",
          "name": "to",
          "type": "address"
        }
      ],
      "name": "withdraw",
      "outputs": [
        {
          "internalType": "uint256",
          "name": "",
          "type": "uint256"
        }
      ],
      "stateMutability": "nonpayable",
      "type": "function"
    }
  ],
  "bytecode": "0x60806040523480156200001157600080fd5b506040516200249d3803806200249d833981810160405281019062000037919062000183565b80600160006101000a81548173ffffffffffffffffffffffffffffffffffffffff021916908373ffffffffffffffffffffffffffffffffffffffff160217905550806040516200008790620000f7565b62000093919062000277565b604051809103906000f080158015620000b0573d6000803e3d6000fd5b506000806101000a81548173ffffffffffffffffffffffffffffffffffffffff021916908373ffffffffffffffffffffffffffffffffffffffff16021790555050620002be565b6119288062000b7583390190565b600080fd5b600073ffffffffffffffffffffffffffffffffffffffff82169050919050565b600062000137826200010a565b9050919050565b60006200014b826200012a565b9050919050565b6200015d816200013e565b81146200016957600080fd5b50565b6000815190506200017d8162000152565b92915050565b6000602082840312156200019c576200019b62000105565b5b6000620001ac848285016200016c565b91505092915050565b600082825260208201905092915050565b7f41617665204d6f636b2055534443000000000000000000000000000000000000600082015250565b6000620001fe600e83620001b5565b91506200020b82620001c6565b602082019050919050565b7f614d555344430000000000000000000000000000000000000000000000000000600082015250565b60006200024e600683620001b5565b91506200025b8262000216565b602082019050919050565b62000271816200012a565b82525050565b600060608201905081810360008301526200029281620001ef565b90508181036020830152620002a7816200023f565b9050620002b8604083018462000266565b92915050565b6108a780620002ce6000396000f3fe608060405234801561001057600080fd5b506004361061004c5760003560e01c806338d52e0f14610051578063617ba0371461006f57806369328dec1461008b578063a0c1f15e146100bb575b600080fd5b6100596100d9565b6040516100669190610532565b60405180910390f35b61008960048036038101906100849190610600565b6100ff565b005b6100a560048036038101906100a09190610667565b6102c5565b6040516100b291906106c9565b60405180910390f35b6100c361048f565b6040516100d09190610705565b60405180910390f35b600160009054906101000a900473ffffffffffffffffffffffffffffffffffffffff1681565b600160009054906101000a900473ffffffffffffffffffffffffffffffffffffffff1673ffffffffffffffffffffffffffffffffffffffff168473ffffffffffffffffffffffffffffffffffffffff161461018f576040517f08c379a00000000000000000000000000000000000000000000000000000000081526004016101869061077d565b60405180910390fd5b600160009054906101000a900473ffffffffffffffffffffffffffffffffffffffff1673ffffffffffffffffffffffffffffffffffffffff166323b872dd3330866040518463ffffffff1660e01b81526004016101ee939291906107ac565b6020604051808303816000875af115801561020d573d6000803e3d6000fd5b505050506040513d601f19601f82011682018060405250810190610231919061081b565b5060008054906101000a900473ffffffffffffffffffffffffffffffffffffffff1673ffffffffffffffffffffffffffffffffffffffff166340c10f1983856040518363ffffffff1660e01b815260040161028d929190610848565b600060405180830381600087803b1580156102a757600080fd5b505af11580156102bb573d6000803e3d6000fd5b5050505050505050565b6000600160009054906101000a900473ffffffffffffffffffffffffffffffffffffffff1673ffffffffffffffffffffffffffffffffffffffff168473ffffffffffffffffffffffffffffffffffffffff1614610357576040517f08c379a000000000000000000000000000000000000000000000000000000000815260040161034e9061077d565b60405180910390fd5b60008054906101000a900473ffffffffffffffffffffffffffffffffffffffff1673ffffffffffffffffffffffffffffffffffffffff16639dc29fac33856040518363ffffffff1660e01b81526004016103b2929190610848565b600060405180830381600087803b1580156103cc57600080fd5b505af11580156103e0573d6000803e3d6000fd5b50505050600160009054906101000a900473ffffffffffffffffffffffffffffffffffffffff1673ffffffffffffffffffffffffffffffffffffffff1663a9059cbb83856040518363ffffffff1660e01b8152600401610441929190610848565b6020604051808303816000875af1158015610460573d6000803e3d6000fd5b505050506040513d601f19601f82011682018060405250810190610484919061081b565b508290509392505050565b60008054906101000a900473ffffffffffffffffffffffffffffffffffffffff1681565b600073ffffffffffffffffffffffffffffffffffffffff82169050919050565b6000819050919050565b60006104f86104f36104ee846104b3565b6104d3565b6104b3565b9050919050565b600061050a826104dd565b9050919050565b600061051c826104ff565b9050919050565b61052c81610511565b82525050565b60006020820190506105476000830184610523565b92915050565b600080fd5b600061055d826104b3565b9050919050565b61056d81610552565b811461057857600080fd5b50565b60008135905061058a81610564565b92915050565b6000819050919050565b6105a381610590565b81146105ae57600080fd5b50565b6000813590506105c08161059a565b92915050565b600061ffff82169050919050565b6105dd816105c6565b81146105e857600080fd5b50565b6000813590506105fa816105d4565b92915050565b6000806000806080858703121561061a5761061961054d565b5b60006106288782880161057b565b9450506020610639878288016105b1565b935050604061064a8782880161057b565b925050606061065b878288016105eb565b91505092959194509250565b6000806000606084860312156106805761067f61054d565b5b600061068e8682870161057b565b935050602061069f868287016105b1565b92505060406106b08682870161057b565b9150509250925092565b6106c381610590565b82525050565b60006020820190506106de60008301846106ba565b92915050565b60006106ef826104ff565b9050919050565b6106ff816106e4565b82525050565b600060208201905061071a60008301846106f6565b92915050565b600082825260208201905092915050565b7f57726f6e67206173736574000000000000000000000000000000000000000000600082015250565b6000610767600b83610720565b915061077282610731565b602082019050919050565b600060208201905081810360008301526107968161075a565b9050919050565b6107a681610552565b82525050565b60006060820190506107c1600083018661079d565b6107ce602083018561079d565b6107db60408301846106ba565b949350505050565b60008115159050919050565b6107f8816107e3565b811461080357600080fd5b50565b600081519050610815816107ef565b92915050565b6000602082840312156108315761083061054d565b5b600061083f84828501610806565b91505092915050565b600060408201905061085d600083018561079d565b61086a60208301846106ba565b939250505056fea264697066735822122096be1d349b0ad0cdbb958f8d3fdf534c946f3fb6b3f17499a638c58c14268f9d64736f6c6343000814003360806040523480156200001157600080fd5b5060405162001928380380620019288339818101604052810190620000379190620002e2565b828281600390816200004a9190620005c7565b5080600490816200005c9190620005c7565b50505033600560006101000a81548173ffffffffffffffffffffffffffffffffffffffff021916908373ffffffffffffffffffffffffffffffffffffffff16021790555080600660006101000a81548173ffffffffffffffffffffffffffffffffffffffff021916908373ffffffffffffffffffffffffffffffffffffffff160217905550505050620006ae565b6000604051905090565b600080fd5b600080fd5b600080fd5b600080fd5b6000601f19601f8301169050919050565b7f4e487b7100000000000000000000000000000000000000000000000000000000600052604160045260246000fd5b620001538262000108565b810181811067ffffffffffffffff8211171562000175576200017462000119565b5b80604052505050565b60006200018a620000ea565b905062000198828262000148565b919050565b600067ffffffffffffffff821115620001bb57620001ba62000119565b5b620001c68262000108565b9050602081019050919050565b60005b83811015620001f3578082015181840152602081019050620001d6565b60008484015250505050565b60006200021662000210846200019d565b6200017e565b90508281526020810184848401111562000235576200023462000103565b5b62000242848285620001d3565b509392505050565b600082601f830112620002625762000261620000fe565b5b815162000274848260208601620001ff565b91505092915050565b600073ffffffffffffffffffffffffffffffffffffffff82169050919050565b6000620002aa826200027d565b9050919050565b620002bc816200029d565b8114620002c857600080fd5b50565b600081519050620002dc81620002b1565b92915050565b600080600060608486031215620002fe57620002fd620000f4565b5b600084015167ffffffffffffffff8111156200031f576200031e620000f9565b5b6200032d868287016200024a565b935050602084015167ffffffffffffffff811115620003515762000350620000f9565b5b6200035f868287016200024a565b92505060406200037286828701620002cb565b9150509250925092565b600081519050919050565b7f4e487b7100000000000000000000000000000000000000000000000000000000600052602260045260246000fd5b60006002820490506001821680620003cf57607f821691505b602082108103620003e557620003e462000387565b5b50919050565b60008190508160005260206000209050919050565b60006020601f8301049050919050565b600082821b905092915050565b6000600883026200044f7fffffffffffffffffffffffffffffffffffffffffffffffffffffffffffffffff8262000410565b6200045b868362000410565b95508019841693508086168417925050509392505050565b6000819050919050565b6000819050919050565b6000620004a8620004a26200049c8462000473565b6200047d565b62000473565b9050919050565b6000819050919050565b620004c48362000487565b620004dc620004d382620004af565b8484546200041d565b825550505050565b600090565b620004f3620004e4565b62000500818484620004b9565b505050565b5b8181101562000528576200051c600082620004e9565b60018101905062000506565b5050565b601f82111562000577576200054181620003eb565b6200054c8462000400565b810160208510156200055c578190505b620005746200056b8562000400565b83018262000505565b50505b505050565b600082821c905092915050565b60006200059c600019846008026200057c565b1980831691505092915050565b6000620005b7838362000589565b9150826002028217905092915050565b620005d2826200037c565b67ffffffffffffffff811115620005ee57620005ed62000119565b5b620005fa8254620003b6565b620006078282856200052c565b600060209050601f8311600181146200063f57600084156200062a578287015190505b620006368582620005a9565b865550620006a6565b601f1984166200064f86620003eb565b60005b82811015620006795784890151825560018201915060208501945060208101905062000652565b8683101562000699578489015162000695601f89168262000589565b8355505b6001600288020188555050505b505050505050565b61126a80620006be6000396000f3fe608060405234801561001057600080fd5b50600436106100cf5760003560e01c806340c10f191161008c57806395d89b411161006657806395d89b41146102165780639dc29fac14610234578063a9059cbb14610250578063dd62ed3e14610280576100cf565b806340c10f19146101ac57806370a08231146101c85780637158da7c146101f8576100cf565b806306fdde03146100d4578063095ea7b3146100f257806316f0115b1461012257806318160ddd1461014057806323b872dd1461015e578063313ce5671461018e575b600080fd5b6100dc6102b0565b6040516100e99190610de6565b60405180910390f35b61010c60048036038101906101079190610ea1565b610342565b6040516101199190610efc565b60405180910390f35b61012a610365565b6040516101379190610f26565b60405180910390f35b61014861038b565b6040516101559190610f50565b60405180910390f35b61017860048036038101906101739190610f6b565b610395565b6040516101859190610efc565b60405180910390f35b6101966103c4565b6040516101a39190610fda565b60405180910390f35b6101c660048036038101906101c19190610ea1565b6103cd565b005b6101e260048036038101906101dd9190610ff5565b61046b565b6040516101ef9190610f50565b60405180910390f35b6102006104b3565b60405161020d9190610f26565b60405180910390f35b61021e6104d9565b60405161022b9190610de6565b60405180910390f35b61024e60048036038101906102499190610ea1565b61056b565b005b61026a60048036038101906102659190610ea1565b610609565b6040516102779190610efc565b60405180910390f35b61029a60048036038101906102959190611022565b61062c565b6040516102a79190610f50565b60405180910390f35b6060600380546102bf90611091565b80601f01602080910402602001604051908101604052809291908181526020018280546102eb90611091565b80156103385780601f1061030d57610100808354040283529160200191610338565b820191906000526020600020905b81548152906001019060200180831161031b57829003601f168201915b5050505050905090565b60008061034d6106b3565b905061035a8185856106bb565b600191505092915050565b600560009054906101000a900473ffffffffffffffffffffffffffffffffffffffff1681565b6000600254905090565b6000806103a06106b3565b90506103ad8582856106cd565b6103b8858585610762565b60019150509392505050565b60006012905090565b600560009054906101000a900473ffffffffffffffffffffffffffffffffffffffff1673ffffffffffffffffffffffffffffffffffffffff163373ffffffffffffffffffffffffffffffffffffffff161461045d576040517f08c379a00000000000000000000000000000000000000000000000000000000081526004016104549061110e565b60405180910390fd5b6104678282610856565b5050565b60008060008373ffffffffffffffffffffffffffffffffffffffff1673ffffffffffffffffffffffffffffffffffffffff168152602001908152602001600020549050919050565b600660009054906101000a900473ffffffffffffffffffffffffffffffffffffffff1681565b6060600480546104e890611091565b80601f016020809104026020016040519081016040528092919081815260200182805461051490611091565b80156105615780601f1061053657610100808354040283529160200191610561565b820191906000526020600020905b81548152906001019060200180831161054457829003601f168201915b5050505050905090565b600560009054906101000a900473ffffffffffffffffffffffffffffffffffffffff1673ffffffffffffffffffffffffffffffffffffffff163373ffffffffffffffffffffffffffffffffffffffff16146105fb576040517f08c379a00000000000000000000000000000000000000000000000000000000081526004016105f29061117a565b60405180910390fd5b61060582826108d8565b5050565b6000806106146106b3565b9050610621818585610762565b600191505092915050565b6000600160008473ffffffffffffffffffffffffffffffffffffffff1673ffffffffffffffffffffffffffffffffffffffff16815260200190815260200160002060008373ffffffffffffffffffffffffffffffffffffffff1673ffffffffffffffffffffffffffffffffffffffff16815260200190815260200160002054905092915050565b600033905090565b6106c8838383600161095a565b505050565b60006106d9848461062c565b90507fffffffffffffffffffffffffffffffffffffffffffffffffffffffffffffffff81101561075c578181101561074c578281836040517ffb8f41b20000000000000000000000000000000000000000000000000000000081526004016107439392919061119a565b60405180910390fd5b61075b8484848403600061095a565b5b50505050565b600073ffffffffffffffffffffffffffffffffffffffff168373ffffffffffffffffffffffffffffffffffffffff16036107d45760006040517f96c6fd1e0000000000000000000000000000000000000000000000000000000081526004016107cb9190610f26565b60405180910390fd5b600073ffffffffffffffffffffffffffffffffffffffff168273ffffffffffffffffffffffffffffffffffffffff16036108465760006040517fec442f0500000000000000000000000000000000000000000000000000000000815260040161083d9190610f26565b60405180910390fd5b610851838383610b31565b505050565b600073ffffffffffffffffffffffffffffffffffffffff168273ffffffffffffffffffffffffffffffffffffffff16036108c85760006040517fec442f050000000000000000000000000000000000000000000000000000000081526004016108bf9190610f26565b60405180910390fd5b6108d460008383610b31565b5050565b600073ffffffffffffffffffffffffffffffffffffffff168273ffffffffffffffffffffffffffffffffffffffff160361094a5760006040517f96c6fd1e0000000000000000000000000000000000000000000000000000000081526004016109419190610f26565b60405180910390fd5b61095682600083610b31565b5050565b600073ffffffffffffffffffffffffffffffffffffffff168473ffffffffffffffffffffffffffffffffffffffff16036109cc5760006040517fe602df050000000000000000000000000000000000000000000000000000000081526004016109c39190610f26565b60405180910390fd5b600073ffffffffffffffffffffffffffffffffffffffff168373ffffffffffffffffffffffffffffffffffffffff1603610a3e5760006040517f94280d62000000000000000000000000000000000000000000000000000000008152600401610a359190610f26565b60405180910390fd5b81600160008673ffffffffffffffffffffffffffffffffffffffff1673ffffffffffffffffffffffffffffffffffffffff16815260200190815260200160002060008573ffffffffffffffffffffffffffffffffffffffff1673ffffffffffffffffffffffffffffffffffffffff168152602001908152602001600020819055508015610b2b578273ffffffffffffffffffffffffffffffffffffffff168473ffffffffffffffffffffffffffffffffffffffff167f8c5be1e5ebec7d5bd14f71427d1e84f3dd0314c0f7b2291e5b200ac8c7c3b92584604051610b229190610f50565b60405180910390a35b50505050565b600073ffffffffffffffffffffffffffffffffffffffff168373ffffffffffffffffffffffffffffffffffffffff1603610b83578060026000828254610b779190611200565b92505081905550610c56565b60008060008573ffffffffffffffffffffffffffffffffffffffff1673ffffffffffffffffffffffffffffffffffffffff16815260200190815260200160002054905081811015610c0f578381836040517fe450d38c000000000000000000000000000000000000000000000000000000008152600401610c069392919061119a565b60405180910390fd5b8181036000808673ffffffffffffffffffffffffffffffffffffffff1673ffffffffffffffffffffffffffffffffffffffff16815260200190815260200160002081905550505b600073ffffffffffffffffffffffffffffffffffffffff168273ffffffffffffffffffffffffffffffffffffffff1603610c9f5780600260008282540392505081905550610cec565b806000808473ffffffffffffffffffffffffffffffffffffffff1673ffffffffffffffffffffffffffffffffffffffff168152602001908152602001600020600082825401925050819055505b8173ffffffffffffffffffffffffffffffffffffffff168373ffffffffffffffffffffffffffffffffffffffff167fddf252ad1be2c89b69c2b068fc378daa952ba7f163c4a11628f55a4df523b3ef83604051610d499190610f50565b60405180910390a3505050565b600081519050919050565b600082825260208201905092915050565b60005b83811015610d90578082015181840152602081019050610d75565b60008484015250505050565b6000601f19601f8301169050919050565b6000610db882610d56565b610dc28185610d61565b9350610dd2818560208601610d72565b610ddb81610d9c565b840191505092915050565b60006020820190508181036000830152610e008184610dad565b905092915050565b600080fd5b600073ffffffffffffffffffffffffffffffffffffffff82169050919050565b6000610e3882610e0d565b9050919050565b610e4881610e2d565b8114610e5357600080fd5b50565b600081359050610e6581610e3f565b92915050565b6000819050919050565b610e7e81610e6b565b8114610e8957600080fd5b50565b600081359050610e9b81610e75565b92915050565b60008060408385031215610eb857610eb7610e08565b5b6000610ec685828601610e56565b9250506020610ed785828601610e8c565b9150509250929050565b60008115159050919050565b610ef681610ee1565b82525050565b6000602082019050610f116000830184610eed565b92915050565b610f2081610e2d565b82525050565b6000602082019050610f3b6000830184610f17565b92915050565b610f4a81610e6b565b82525050565b6000602082019050610f656000830184610f41565b92915050565b600080600060608486031215610f8457610f83610e08565b5b6000610f9286828701610e56565b9350506020610fa386828701610e56565b9250506040610fb486828701610e8c565b9150509250925092565b600060ff82169050919050565b610fd481610fbe565b82525050565b6000602082019050610fef6000830184610fcb565b92915050565b60006020828403121561100b5761100a610e08565b5b600061101984828501610e56565b91505092915050565b6000806040838503121561103957611038610e08565b5b600061104785828601610e56565b925050602061105885828601610e56565b9150509250929050565b7f4e487b7100000000000000000000000000000000000000000000000000000000600052602260045260246000fd5b600060028204905060018216806110a957607f821691505b6020821081036110bc576110bb611062565b5b50919050565b7f4f6e6c7920706f6f6c2063616e206d696e740000000000000000000000000000600082015250565b60006110f8601283610d61565b9150611103826110c2565b602082019050919050565b60006020820190508181036000830152611127816110eb565b9050919050565b7f4f6e6c7920706f6f6c2063616e206275726e0000000000000000000000000000600082015250565b6000611164601283610d61565b915061116f8261112e565b602082019050919050565b6000602082019050818103600083015261119381611157565b9050919050565b60006060820190506111af6000830186610f17565b6111bc6020830185610f41565b6111c96040830184610f41565b949350505050565b7f4e487b7100000000000000000000000000000000000000000000000000000000600052601160045260246000fd5b600061120b82610e6b565b915061121683610e6b565b925082820190508082111561122e5761122d6111d1565b5b9291505056fea2646970667358221220090069a3dffd0623d95475ccde77f4fcc1066e69e3bb52779e85edb18a80ffd364736f6c63430008140033",
  "linkReferences": {},
  "deployedLinkReferences": {}
}