{
  "_format": "hh-sol-artifact-1",
  "contractName": "MockStrategy",
  "sourceName": "contracts/mocks/MockStrategy.sol",
  "abi": [
    {
      "inputs": [
        {
          "internalType": "contract IERC20",
          "name": "asset_",
          "type": "address"
        }
      ],
      "stateMutability": "nonpayable",
      "type": "constructor"
    },
    {
      "inputs": [
        {
          "internalType": "address",
          "name": "token",
          "type": "address"
        }
      ],
      "name": "SafeERC20FailedOperation",
      "type": "error"
    },
    {
      "inputs": [],
      "name": "_asset",
      "outputs": [
        {
          "internalType": "contract IERC20",
          "name": "",
          "type": "address"
        }
      ],
      "stateMutability": "view",
      "type": "function"
    },
    {
      "inputs": [],
      "name": "asset",
      "outputs": [
        {
          "internalType": "contract IERC20",
          "name": "",
          "type": "address"
        }
      ],
      "stateMutability": "view",
      "type": "function"
    },
    {
      "inputs": [
        {
          "internalType": "uint256",
          "name": "amount",
          "type": "uint256"
        }
      ],
      "name": "divest",
      "outputs": [
        {
          "internalType": "uint256",
          "name": "",
          "type": "uint256"
        }
      ],
      "stateMutability": "nonpayable",
      "type": "function"
    },
    {
      "inputs": [],
      "name": "harvest",
      "outputs": [
        {
          "internalType": "uint256",
          "name": "profit",
          "type": "uint256"
        }
      ],
      "stateMutability": "nonpayable",
      "type": "function"
    },
    {
      "inputs": [
        {
          "internalType": "uint256",
          "name": "amount",
          "type": "uint256"
        }
      ],
      "name": "invest",
      "outputs": [],
      "stateMutability": "nonpayable",
      "type": "function"
    },
    {
      "inputs": [],
      "name": "invested",
      "outputs": [
        {
          "internalType": "uint256",
          "name": "",
          "type": "uint256"
        }
      ],
      "stateMutability": "view",
      "type": "function"
    },
    {
      "inputs": [
        {
          "internalType": "uint256",
          "name": "",
          "type": "uint256"
        }
      ],
      "name": "simulateYield",
      "outputs": [],
      "stateMutability": "pure",
      "type": "function"
    },
    {
      "inputs": [],
      "name": "totalAssets",
      "outputs": [
        {
          "internalType": "uint256",
          "name": "",
          "type": "uint256"
        }
      ],
      "stateMutability": "view",
      "type": "function"
    }
  ],
  "bytecode": "0x60a060405234801561001057600080fd5b50604051610afb380380610afb833981810160405281019061003291906100e1565b8073ffffffffffffffffffffffffffffffffffffffff1660808173ffffffffffffffffffffffffffffffffffffffff16815250505061010e565b600080fd5b600073ffffffffffffffffffffffffffffffffffffffff82169050919050565b600061009c82610071565b9050919050565b60006100ae82610091565b9050919050565b6100be816100a3565b81146100c957600080fd5b50565b6000815190506100db816100b5565b92915050565b6000602082840312156100f7576100f661006c565b5b6000610105848285016100cc565b91505092915050565b6080516109a161015a6000396000818161018f0152818161023401528181610298015281816102c10152818161037c015281816103ca0152818161047e015261050501526109a16000f3fe608060405234801561001057600080fd5b50600436106100885760003560e01c80638ca179951161005b5780638ca1799514610103578063cafb220214610133578063e7ca856d14610151578063fcea5e291461016d57610088565b806301e1d1141461008d5780632afcf480146100ab57806338d52e0f146100c75780634641257d146100e5575b600080fd5b61009561018b565b6040516100a291906106e3565b60405180910390f35b6100c560048036038101906100c0919061072f565b61022c565b005b6100cf610294565b6040516100dc91906107db565b60405180910390f35b6100ed6102bc565b6040516100fa91906106e3565b60405180910390f35b61011d6004803603810190610118919061072f565b6103c5565b60405161012a91906106e3565b60405180910390f35b61013b6104fa565b60405161014891906106e3565b60405180910390f35b61016b6004803603810190610166919061072f565b610500565b005b610175610503565b60405161018291906107db565b60405180910390f35b60007f000000000000000000000000000000000000000000000000000000000000000073ffffffffffffffffffffffffffffffffffffffff166370a08231306040518263ffffffff1660e01b81526004016101e69190610817565b602060405180830381865afa158015610203573d6000803e3d6000fd5b505050506040513d601f19601f820116820180604052508101906102279190610847565b905090565b6102793330837f000000000000000000000000000000000000000000000000000000000000000073ffffffffffffffffffffffffffffffffffffffff16610527909392919063ffffffff16565b8060008082825461028a91906108a3565b9250508190555050565b60007f0000000000000000000000000000000000000000000000000000000000000000905090565b6000807f000000000000000000000000000000000000000000000000000000000000000073ffffffffffffffffffffffffffffffffffffffff166370a08231306040518263ffffffff1660e01b81526004016103189190610817565b602060405180830381865afa158015610335573d6000803e3d6000fd5b505050506040513d601f19601f820116820180604052508101906103599190610847565b90506000548111156103c1576000548161037391906108d7565b91506103c033837f000000000000000000000000000000000000000000000000000000000000000073ffffffffffffffffffffffffffffffffffffffff166105a99092919063ffffffff16565b5b5090565b6000807f000000000000000000000000000000000000000000000000000000000000000073ffffffffffffffffffffffffffffffffffffffff166370a08231306040518263ffffffff1660e01b81526004016104219190610817565b602060405180830381865afa15801561043e573d6000803e3d6000fd5b505050506040513d601f19601f820116820180604052508101906104629190610847565b905060008184116104735783610475565b815b90506104c233827f000000000000000000000000000000000000000000000000000000000000000073ffffffffffffffffffffffffffffffffffffffff166105a99092919063ffffffff16565b60005481106104d757600080819055506104f0565b806000808282546104e891906108d7565b925050819055505b8092505050919050565b60005481565b50565b7f000000000000000000000000000000000000000000000000000000000000000081565b6105a3848573ffffffffffffffffffffffffffffffffffffffff166323b872dd86868660405160240161055c9392919061090b565b604051602081830303815290604052915060e01b6020820180517bffffffffffffffffffffffffffffffffffffffffffffffffffffffff8381831617835250505050610628565b50505050565b610623838473ffffffffffffffffffffffffffffffffffffffff1663a9059cbb85856040516024016105dc929190610942565b604051602081830303815290604052915060e01b6020820180517bffffffffffffffffffffffffffffffffffffffffffffffffffffffff8381831617835250505050610628565b505050565b600080602060008451602086016000885af18061064b576040513d6000823e3d81fd5b3d925060005191505060008214610666576001811415610682565b60008473ffffffffffffffffffffffffffffffffffffffff163b145b156106c457836040517f5274afe70000000000000000000000000000000000000000000000000000000081526004016106bb9190610817565b60405180910390fd5b50505050565b6000819050919050565b6106dd816106ca565b82525050565b60006020820190506106f860008301846106d4565b92915050565b600080fd5b61070c816106ca565b811461071757600080fd5b50565b60008135905061072981610703565b92915050565b600060208284031215610745576107446106fe565b5b60006107538482850161071a565b91505092915050565b600073ffffffffffffffffffffffffffffffffffffffff82169050919050565b6000819050919050565b60006107a161079c6107978461075c565b61077c565b61075c565b9050919050565b60006107b382610786565b9050919050565b60006107c5826107a8565b9050919050565b6107d5816107ba565b82525050565b60006020820190506107f060008301846107cc565b92915050565b60006108018261075c565b9050919050565b610811816107f6565b82525050565b600060208201905061082c6000830184610808565b92915050565b60008151905061084181610703565b92915050565b60006020828403121561085d5761085c6106fe565b5b600061086b84828501610832565b91505092915050565b7f4e487b7100000000000000000000000000000000000000000000000000000000600052601160045260246000fd5b60006108ae826106ca565b91506108b9836106ca565b92508282019050808211156108d1576108d0610874565b5b92915050565b60006108e2826106ca565b91506108ed836106ca565b925082820390508181111561090557610904610874565b5b92915050565b60006060820190506109206000830186610808565b61092d6020830185610808565b61093a60408301846106d4565b949350505050565b60006040820190506109576000830185610808565b61096460208301846106d4565b939250505056fea2646970667358221220b949f5872141afa29c89eb716b1138c3ecada5e7c034227b6120edbbd454732264736f6c63430008140033",
  "linkReferences": {},
  "deployedLinkReferences": {}
}