{
  "_format": "hh-sol-artifact-1",
  "contractName": "MockStrategy",
  "sourceName": "contracts/mocks/MockStrategy.sol",
  "abi": [
    {
      "inputs": [
        {
          "internalType": "contract IERC20",
          "name": "asset_",
          "type": "address"
        }
      ],
      "stateMutability": "nonpayable",
      "type": "constructor"
    },
    {
      "inputs": [
        {
          "internalType": "address",
          "name": "token",
          "type": "address"
        }
      ],
      "name": "SafeERC20FailedOperation",
      "type": "error"
    },
    {
      "inputs": [],
      "name": "_asset",
      "outputs": [
        {
          "internalType": "contract IERC20",
          "name": "",
          "type": "address"
        }
      ],
      "stateMutability": "view",
      "type": "function"
    },
    {
      "inputs": [],
      "name": "asset",
      "outputs": [
        {
          "internalType": "contract IERC20",
          "name": "",
          "type": "address"
        }
      ],
      "stateMutability": "view",
      "type": "function"
    },
    {
      "inputs": [
        {
          "internalType": "uint256",
          "name": "amount",
          "type": "uint256"
        }
      ],
      "name": "divest",
      "outputs": [
        {
          "internalType": "uint256",
          "name": "",
          "type": "uint256"
        }
      ],
      "stateMutability": "nonpayable",
      "type": "function"
    },
    {
      "inputs": [
        {
          "internalType": "uint256",
          "name": "amount",
          "type": "uint256"
        }
      ],
      "name": "invest",
      "outputs": [],
      "stateMutability": "nonpayable",
      "type": "function"
    },
    {
      "inputs": [],
      "name": "simulatedYield",
      "outputs": [
        {
          "internalType": "uint256",
          "name": "",
          "type": "uint256"
        }
      ],
      "stateMutability": "view",
      "type": "function"
    },
    {
      "inputs": [],
      "name": "totalAssets",
      "outputs": [
        {
          "internalType": "uint256",
          "name": "",
          "type": "uint256"
        }
      ],
      "stateMutability": "view",
      "type": "function"
    }
  ],
  "bytecode": "0x60a060405234801561001057600080fd5b506040516108a43803806108a4833981810160405281019061003291906100e1565b8073ffffffffffffffffffffffffffffffffffffffff1660808173ffffffffffffffffffffffffffffffffffffffff16815250505061010e565b600080fd5b600073ffffffffffffffffffffffffffffffffffffffff82169050919050565b600061009c82610071565b9050919050565b60006100ae82610091565b9050919050565b6100be816100a3565b81146100c957600080fd5b50565b6000815190506100db816100b5565b92915050565b6000602082840312156100f7576100f661006c565b5b6000610105848285016100cc565b91505092915050565b60805161075861014c6000396000818161012f015281816101da015281816102260152818161024f01528181610303015261035301526107586000f3fe608060405234801561001057600080fd5b50600436106100625760003560e01c806301e1d11414610067578063297c7d81146100855780632afcf480146100a357806338d52e0f146100bf5780638ca17995146100dd578063fcea5e291461010d575b600080fd5b61006f61012b565b60405161007c9190610531565b60405180910390f35b61008d6101cc565b60405161009a9190610531565b60405180910390f35b6100bd60048036038101906100b8919061057d565b6101d2565b005b6100c7610222565b6040516100d49190610629565b60405180910390f35b6100f760048036038101906100f2919061057d565b61024a565b6040516101049190610531565b60405180910390f35b610115610351565b6040516101229190610629565b60405180910390f35b60007f000000000000000000000000000000000000000000000000000000000000000073ffffffffffffffffffffffffffffffffffffffff166370a08231306040518263ffffffff1660e01b81526004016101869190610665565b602060405180830381865afa1580156101a3573d6000803e3d6000fd5b505050506040513d601f19601f820116820180604052508101906101c79190610695565b905090565b60005481565b61021f3330837f000000000000000000000000000000000000000000000000000000000000000073ffffffffffffffffffffffffffffffffffffffff16610375909392919063ffffffff16565b50565b60007f0000000000000000000000000000000000000000000000000000000000000000905090565b6000807f000000000000000000000000000000000000000000000000000000000000000073ffffffffffffffffffffffffffffffffffffffff166370a08231306040518263ffffffff1660e01b81526004016102a69190610665565b602060405180830381865afa1580156102c3573d6000803e3d6000fd5b505050506040513d601f19601f820116820180604052508101906102e79190610695565b905060008184116102f857836102fa565b815b905061034733827f000000000000000000000000000000000000000000000000000000000000000073ffffffffffffffffffffffffffffffffffffffff166103f79092919063ffffffff16565b8092505050919050565b7f000000000000000000000000000000000000000000000000000000000000000081565b6103f1848573ffffffffffffffffffffffffffffffffffffffff166323b872dd8686866040516024016103aa939291906106c2565b604051602081830303815290604052915060e01b6020820180517bffffffffffffffffffffffffffffffffffffffffffffffffffffffff8381831617835250505050610476565b50505050565b610471838473ffffffffffffffffffffffffffffffffffffffff1663a9059cbb858560405160240161042a9291906106f9565b604051602081830303815290604052915060e01b6020820180517bffffffffffffffffffffffffffffffffffffffffffffffffffffffff8381831617835250505050610476565b505050565b600080602060008451602086016000885af180610499576040513d6000823e3d81fd5b3d9250600051915050600082146104b45760018114156104d0565b60008473ffffffffffffffffffffffffffffffffffffffff163b145b1561051257836040517f5274afe70000000000000000000000000000000000000000000000000000000081526004016105099190610665565b60405180910390fd5b50505050565b6000819050919050565b61052b81610518565b82525050565b60006020820190506105466000830184610522565b92915050565b600080fd5b61055a81610518565b811461056557600080fd5b50565b60008135905061057781610551565b92915050565b6000602082840312156105935761059261054c565b5b60006105a184828501610568565b91505092915050565b600073ffffffffffffffffffffffffffffffffffffffff82169050919050565b6000819050919050565b60006105ef6105ea6105e5846105aa565b6105ca565b6105aa565b9050919050565b6000610601826105d4565b9050919050565b6000610613826105f6565b9050919050565b61062381610608565b82525050565b600060208201905061063e600083018461061a565b92915050565b600061064f826105aa565b9050919050565b61065f81610644565b82525050565b600060208201905061067a6000830184610656565b92915050565b60008151905061068f81610551565b92915050565b6000602082840312156106ab576106aa61054c565b5b60006106b984828501610680565b91505092915050565b60006060820190506106d76000830186610656565b6106e46020830185610656565b6106f16040830184610522565b949350505050565b600060408201905061070e6000830185610656565b61071b6020830184610522565b939250505056fea2646970667358221220b15f96d7f4ddf9d25336daf25afd3f6aa9cc992f2c265833e209cdd04f4387f764736f6c63430008140033",
  "linkReferences": {},
  "deployedLinkReferences": {}
}