{"contracts/OmniYieldVault.sol":{"OmniYieldVault":{"abi":[{"inputs":[{"internalType":"contract IERC20","name":"asset_","type":"address"},{"internalType":"string","name":"name_","type":"string"},{"internalType":"string","name":"symbol_","type":"string"},{"internalType":"contract IStrategy","name":"strategy_","type":"address"}],"stateMutability":"nonpayable","type":"constructor"},{"inputs":[{"internalType":"address","name":"spender","type":"address"},{"internalType":"uint256","name":"allowance","type":"uint256"},{"internalType":"uint256","name":"needed","type":"uint256"}],"name":"ERC20InsufficientAllowance","type":"error"},{"inputs":[{"internalType":"address","name":"sender","type":"address"},{"internalType":"uint256","name":"balance","type":"uint256"},{"internalType":"uint256","name":"needed","type":"uint256"}],"name":"ERC20InsufficientBalance","type":"error"},{"inputs":[{"internalType":"address","name":"approver","type":"address"}],"name":"ERC20InvalidApprover","type":"error"},{"inputs":[{"internalType":"address","name":"receiver","type":"address"}],"name":"ERC20InvalidReceiver","type":"error"},{"inputs":[{"internalType":"address","name":"sender","type":"address"}],"name":"ERC20InvalidSender","type":"error"},{"inputs":[{"internalType":"address","name":"spender","type":"address"}],"name":"ERC20InvalidSpender","type":"error"},{"inputs":[{"internalType":"address","name":"receiver","type":"address"},{"internalType":"uint256","name":"assets","type":"uint256"},{"internalType":"uint256","name":"max","type":"uint256"}],"name":"ERC4626ExceededMaxDeposit","type":"error"},{"inputs":[{"internalType":"address","name":"receiver","type":"address"},{"internalType":"uint256","name":"shares","type":"uint256"},{"internalType":"uint256","name":"max","type":"uint256"}],"name":"ERC4626ExceededMaxMint","type":"error"},{"inputs":[{"internalType":"address","name":"owner","type":"address"},{"internalType":"uint256","name":"shares","type":"uint256"},{"internalType":"uint256","name":"max","type":"uint256"}],"name":"ERC4626ExceededMaxRedeem","type":"error"},{"inputs":[{"internalType":"address","name":"owner","type":"address"},{"internalType":"uint256","name":"assets","type":"uint256"},{"internalType":"uint256","name":"max","type":"uint256"}],"name":"ERC4626ExceededMaxWithdraw","type":"error"},{"inputs":[{"internalType":"address","name":"owner","type":"address"}],"name":"OwnableInvalidOwner","type":"error"},{"inputs":[{"internalType":"address","name":"account","type":"address"}],"name":"OwnableUnauthorizedAccount","type":"error"},{"inputs":[{"internalType":"address","name":"token","type":"address"}],"name":"SafeERC20FailedOperation","type":"error"},{"anonymous":false,"inputs":[{"indexed":true,"internalType":"address","name":"owner","type":"address"},{"indexed":true,"internalType":"address","name":"spender","type":"address"},{"indexed":false,"internalType":"uint256","name":"value","type":"uint256"}],"name":"Approval","type":"event"},{"anonymous":false,"inputs":[{"indexed":true,"internalType":"address","name":"sender","type":"address"},{"indexed":true,"internalType":"address","name":"owner","type":"address"},{"indexed":false,"internalType":"uint256","name":"assets","type":"uint256"},{"indexed":false,"internalType":"uint256","name":"shares","type":"uint256"}],"name":"Deposit","type":"event"},{"anonymous":false,"inputs":[{"indexed":true,"internalType":"address","name":"previousOwner","type":"address"},{"indexed":true,"internalType":"address","name":"newOwner","type":"address"}],"name":"OwnershipTransferred","type":"event"},{"anonymous":false,"inputs":[{"indexed":true,"internalType":"address","name":"oldStrategy","type":"address"},{"indexed":true,"internalType":"address","name":"newStrategy","type":"address"}],"name":"StrategyUpdated","type":"event"},{"anonymous":false,"inputs":[{"indexed":true,"internalType":"address","name":"from","type":"address"},{"indexed":true,"internalType":"address","name":"to","type":"address"},{"indexed":false,"internalType":"uint256","name":"value","type":"uint256"}],"name":"Transfer","type":"event"},{"anonymous":false,"inputs":[{"indexed":true,"internalType":"address","name":"sender","type":"address"},{"indexed":true,"internalType":"address","name":"receiver","type":"address"},{"indexed":true,"internalType":"address","name":"owner","type":"address"},{"indexed":false,"internalType":"uint256","name":"assets","type":"uint256"},{"indexed":false,"internalType":"uint256","name":"shares","type":"uint256"}],"name":"Withdraw","type":"event"},{"inputs":[{"internalType":"address","name":"owner","type":"address"},{"internalType":"address","name":"spender","type":"address"}],"name":"allowance","outputs":[{"internalType":"uint256","name":"","type":"uint256"}],"stateMutability":"view","type":"function"},{"inputs":[{"internalType":"address","name":"spender","type":"address"},{"internalType":"uint256","name":"value","type":"uint256"}],"name":"approve","outputs":[{"internalType":"bool","name":"","type":"bool"}],"stateMutability":"nonpayable","type":"function"},{"inputs":[],"name":"asset","outputs":[{"internalType":"address","name":"","type":"address"}],"stateMutability":"view","type":"function"},{"inputs":[{"internalType":"address","name":"account","type":"address"}],"name":"balanceOf","outputs":[{"internalType":"uint256","name":"","type":"uint256"}],"stateMutability":"view","type":"function"},{"inputs":[{"internalType":"uint256","name":"shares","type":"uint256"}],"name":"convertToAssets","outputs":[{"internalType":"uint256","name":"","type":"uint256"}],"stateMutability":"view","type":"function"},{"inputs":[{"internalType":"uint256","name":"assets","type":"uint256"}],"name":"convertToShares","outputs":[{"internalType":"uint256","name":"","type":"uint256"}],"stateMutability":"view","type":"function"},{"inputs":[],"name":"decimals","outputs":[{"internalType":"uint8","name":"","type":"uint8"}],"stateMutability":"view","type":"function"},{"inputs":[{"internalType":"uint256","name":"assets","type":"uint256"},{"internalType":"address","name":"receiver","type":"address"}],"name":"deposit","outputs":[{"internalType":"uint256","name":"","type":"uint256"}],"stateMutability":"nonpayable","type":"function"},{"inputs":[{"internalType":"address","name":"","type":"address"}],"name":"maxDeposit","outputs":[{"internalType":"uint256","name":"","type":"uint256"}],"stateMutability":"view","type":"function"},{"inputs":[{"internalType":"address","name":"","type":"address"}],"name":"maxMint","outputs":[{"internalType":"uint256","name":"","type":"uint256"}],"stateMutability":"view","type":"function"},{"inputs":[{"internalType":"address","name":"owner","type":"address"}],"name":"maxRedeem","outputs":[{"internalType":"uint256","name":"","type":"uint256"}],"stateMutability":"view","type":"function"},{"inputs":[{"internalType":"address","name":"owner","type":"address"}],"name":"maxWithdraw","outputs":[{"internalType":"uint256","name":"","type":"uint256"}],"stateMutability":"view","type":"function"},{"inputs":[{"internalType":"uint256","name":"shares","type":"uint256"},{"internalType":"address","name":"receiver","type":"address"}],"name":"mint","outputs":[{"internalType":"uint256","name":"","type":"uint256"}],"stateMutability":"nonpayable","type":"function"},{"inputs":[],"name":"name","outputs":[{"internalType":"string","name":"","type":"string"}],"stateMutability":"view","type":"function"},{"inputs":[],"name":"owner","outputs":[{"internalType":"address","name":"","type":"address"}],"stateMutability":"view","type":"function"},{"inputs":[],"name":"pendingStrategy","outputs":[{"internalType":"address","name":"","type":"address"}],"stateMutability":"view","type":"function"},{"inputs":[{"internalType":"uint256","name":"assets","type":"uint256"}],"name":"previewDeposit","outputs":[{"internalType":"uint256","name":"","type":"uint256"}],"stateMutability":"view","type":"function"},{"inputs":[{"internalType":"uint256","name":"shares","type":"uint256"}],"name":"previewMint","outputs":[{"internalType":"uint256","name":"","type":"uint256"}],"stateMutability":"view","type":"function"},{"inputs":[{"internalType":"uint256","name":"shares","type":"uint256"}],"name":"previewRedeem","outputs":[{"internalType":"uint256","name":"","type":"uint256"}],"stateMutability":"view","type":"function"},{"inputs":[{"internalType":"uint256","name":"assets","type":"uint256"}],"name":"previewWithdraw","outputs":[{"internalType":"uint256","name":"","type":"uint256"}],"stateMutability":"view","type":"function"},{"inputs":[{"internalType":"uint256","name":"shares","type":"uint256"},{"internalType":"address","name":"receiver","type":"address"},{"internalType":"address","name":"owner","type":"address"}],"name":"redeem","outputs":[{"internalType":"uint256","name":"","type":"uint256"}],"stateMutability":"nonpayable","type":"function"},{"inputs":[],"name":"renounceOwnership","outputs":[],"stateMutability":"nonpayable","type":"function"},{"inputs":[{"internalType":"contract IStrategy","name":"newStrategy","type":"address"}],"name":"setStrategy","outputs":[],"stateMutability":"nonpayable","type":"function"},{"inputs":[],"name":"strategy","outputs":[{"internalType":"contract IStrategy","name":"","type":"address"}],"stateMutability":"view","type":"function"},{"inputs":[],"name":"symbol","outputs":[{"internalType":"string","name":"","type":"string"}],"stateMutability":"view","type":"function"},{"inputs":[],"name":"totalAssets","outputs":[{"internalType":"uint256","name":"","type":"uint256"}],"stateMutability":"view","type":"function"},{"inputs":[],"name":"totalSupply","outputs":[{"internalType":"uint256","name":"","type":"uint256"}],"stateMutability":"view","type":"function"},{"inputs":[{"internalType":"address","name":"to","type":"address"},{"internalType":"uint256","name":"value","type":"uint256"}],"name":"transfer","outputs":[{"internalType":"bool","name":"","type":"bool"}],"stateMutability":"nonpayable","type":"function"},{"inputs":[{"internalType":"address","name":"from","type":"address"},{"internalType":"address","name":"to","type":"address"},{"internalType":"uint256","name":"value","type":"uint256"}],"name":"transferFrom","outputs":[{"internalType":"bool","name":"","type":"bool"}],"stateMutability":"nonpayable","type":"function"},{"inputs":[{"internalType":"address","name":"newOwner","type":"address"}],"name":"transferOwnership","outputs":[],"stateMutability":"nonpayable","type":"function"},{"inputs":[{"internalType":"uint256","name":"assets","type":"uint256"},{"internalType":"address","name":"receiver","type":"address"},{"internalType":"address","name":"owner","type":"address"}],"name":"withdraw","outputs":[{"internalType":"uint256","name":"","type":"uint256"}],"stateMutability":"nonpayable","type":"function"}],"evm":{"bytecode":{"linkReferences":{},"object":"60c06040523480156200001157600080fd5b5060405162003b4338038062003b438339818101604052810190620000379190620007c8565b3384848481600390816200004c919062000ac3565b5080600490816200005e919062000ac3565b50505060008062000075836200039760201b60201c565b91509150816200008757601262000089565b805b60ff1660a08160ff16815250508273ffffffffffffffffffffffffffffffffffffffff1660808173ffffffffffffffffffffffffffffffffffffffff1681525050505050600073ffffffffffffffffffffffffffffffffffffffff168173ffffffffffffffffffffffffffffffffffffffff1603620001425760006040517f1e4fbdf700000000000000000000000000000000000000000000000000000000815260040162000139919062000bbb565b60405180910390fd5b6200015381620004b160201b60201c565b50600073ffffffffffffffffffffffffffffffffffffffff168173ffffffffffffffffffffffffffffffffffffffff1603620001c6576040517f08c379a0000000000000000000000000000000000000000000000000000000008152600401620001bd9062000c39565b60405180910390fd5b8373ffffffffffffffffffffffffffffffffffffffff168173ffffffffffffffffffffffffffffffffffffffff166338d52e0f6040518163ffffffff1660e01b8152600401602060405180830381865afa15801562000229573d6000803e3d6000fd5b505050506040513d601f19601f820116820180604052508101906200024f919062000c5b565b73ffffffffffffffffffffffffffffffffffffffff1614620002a8576040517f08c379a00000000000000000000000000000000000000000000000000000000081526004016200029f9062000cdd565b60405180910390fd5b80600660006101000a81548173ffffffffffffffffffffffffffffffffffffffff021916908373ffffffffffffffffffffffffffffffffffffffff1602179055508373ffffffffffffffffffffffffffffffffffffffff1663095ea7b3827fffffffffffffffffffffffffffffffffffffffffffffffffffffffffffffffff6040518363ffffffff1660e01b81526004016200034692919062000d10565b6020604051808303816000875af115801562000366573d6000803e3d6000fd5b505050506040513d601f19601f820116820180604052508101906200038c919062000d7a565b505050505062000e75565b6000806000808473ffffffffffffffffffffffffffffffffffffffff1660405160240160405160208183030381529060405263313ce56760e01b6020820180517bffffffffffffffffffffffffffffffffffffffffffffffffffffffff83818316178352505050506040516200040e919062000df9565b600060405180830381855afa9150503d80600081146200044b576040519150601f19603f3d011682016040523d82523d6000602084013e62000450565b606091505b50915091508180156200046557506020815110155b15620004a25760008180602001905181019062000483919062000e43565b905060ff80168111620004a05760018194509450505050620004ac565b505b6000809350935050505b915091565b6000600560009054906101000a900473ffffffffffffffffffffffffffffffffffffffff16905081600560006101000a81548173ffffffffffffffffffffffffffffffffffffffff021916908373ffffffffffffffffffffffffffffffffffffffff1602179055508173ffffffffffffffffffffffffffffffffffffffff168173ffffffffffffffffffffffffffffffffffffffff167f8be0079c531659141344cd1fd0a4f28419497f9722a3daafe3b4186f6b6457e060405160405180910390a35050565b6000604051905090565b600080fd5b600080fd5b600073ffffffffffffffffffffffffffffffffffffffff82169050919050565b6000620005b8826200058b565b9050919050565b6000620005cc82620005ab565b9050919050565b620005de81620005bf565b8114620005ea57600080fd5b50565b600081519050620005fe81620005d3565b92915050565b600080fd5b600080fd5b6000601f19601f8301169050919050565b7f4e487b7100000000000000000000000000000000000000000000000000000000600052604160045260246000fd5b62000659826200060e565b810181811067ffffffffffffffff821117156200067b576200067a6200061f565b5b80604052505050565b60006200069062000577565b90506200069e82826200064e565b919050565b600067ffffffffffffffff821115620006c157620006c06200061f565b5b620006cc826200060e565b9050602081019050919050565b60005b83811015620006f9578082015181840152602081019050620006dc565b60008484015250505050565b60006200071c6200071684620006a3565b62000684565b9050828152602081018484840111156200073b576200073a62000609565b5b62000748848285620006d9565b509392505050565b600082601f83011262000768576200076762000604565b5b81516200077a84826020860162000705565b91505092915050565b60006200079082620005ab565b9050919050565b620007a28162000783565b8114620007ae57600080fd5b50565b600081519050620007c28162000797565b92915050565b60008060008060808587031215620007e557620007e462000581565b5b6000620007f587828801620005ed565b945050602085015167ffffffffffffffff81111562000819576200081862000586565b5b620008278782880162000750565b935050604085015167ffffffffffffffff8111156200084b576200084a62000586565b5b620008598782880162000750565b92505060606200086c87828801620007b1565b91505092959194509250565b600081519050919050565b7f4e487b7100000000000000000000000000000000000000000000000000000000600052602260045260246000fd5b60006002820490506001821680620008cb57607f821691505b602082108103620008e157620008e062000883565b5b50919050565b60008190508160005260206000209050919050565b60006020601f8301049050919050565b600082821b905092915050565b6000600883026200094b7fffffffffffffffffffffffffffffffffffffffffffffffffffffffffffffffff826200090c565b6200095786836200090c565b95508019841693508086168417925050509392505050565b6000819050919050565b6000819050919050565b6000620009a46200099e62000998846200096f565b62000979565b6200096f565b9050919050565b6000819050919050565b620009c08362000983565b620009d8620009cf82620009ab565b84845462000919565b825550505050565b600090565b620009ef620009e0565b620009fc818484620009b5565b505050565b5b8181101562000a245762000a18600082620009e5565b60018101905062000a02565b5050565b601f82111562000a735762000a3d81620008e7565b62000a4884620008fc565b8101602085101562000a58578190505b62000a7062000a6785620008fc565b83018262000a01565b50505b505050565b600082821c905092915050565b600062000a986000198460080262000a78565b1980831691505092915050565b600062000ab3838362000a85565b9150826002028217905092915050565b62000ace8262000878565b67ffffffffffffffff81111562000aea5762000ae96200061f565b5b62000af68254620008b2565b62000b0382828562000a28565b600060209050601f83116001811462000b3b576000841562000b26578287015190505b62000b32858262000aa5565b86555062000ba2565b601f19841662000b4b86620008e7565b60005b8281101562000b755784890151825560018201915060208501945060208101905062000b4e565b8683101562000b95578489015162000b91601f89168262000a85565b8355505b6001600288020188555050505b505050505050565b62000bb581620005ab565b82525050565b600060208201905062000bd2600083018462000baa565b92915050565b600082825260208201905092915050565b7f496e76616c696420737472617465677900000000000000000000000000000000600082015250565b600062000c2160108362000bd8565b915062000c2e8262000be9565b602082019050919050565b6000602082019050818103600083015262000c548162000c12565b9050919050565b60006020828403121562000c745762000c7362000581565b5b600062000c8484828501620005ed565b91505092915050565b7f4173736574206d69736d61746368000000000000000000000000000000000000600082015250565b600062000cc5600e8362000bd8565b915062000cd28262000c8d565b602082019050919050565b6000602082019050818103600083015262000cf88162000cb6565b9050919050565b62000d0a816200096f565b82525050565b600060408201905062000d27600083018562000baa565b62000d36602083018462000cff565b9392505050565b60008115159050919050565b62000d548162000d3d565b811462000d6057600080fd5b50565b60008151905062000d748162000d49565b92915050565b60006020828403121562000d935762000d9262000581565b5b600062000da38482850162000d63565b91505092915050565b600081519050919050565b600081905092915050565b600062000dcf8262000dac565b62000ddb818562000db7565b935062000ded818560208601620006d9565b80840191505092915050565b600062000e07828462000dc2565b915081905092915050565b62000e1d816200096f565b811462000e2957600080fd5b50565b60008151905062000e3d8162000e12565b92915050565b60006020828403121562000e5c5762000e5b62000581565b5b600062000e6c8482850162000e2c565b91505092915050565b60805160a051612ca862000e9b600039600061090f01526000610c8e0152612ca86000f3fe608060405234801561001057600080fd5b50600436106101e55760003560e01c8063715018a61161010f578063ba087652116100a2578063d905777e11610071578063d905777e1461061e578063dd62ed3e1461064e578063ef8b30f71461067e578063f2fde38b146106ae576101e5565b8063ba0876521461055e578063c63d75b61461058e578063c6e6f592146105be578063ce96cb77146105ee576101e5565b8063a8c62e76116100de578063a8c62e76146104b0578063a9059cbb146104ce578063b3d7f6b9146104fe578063b460af941461052e576101e5565b8063715018a61461043a5780638da5cb5b1461044457806394bf804d1461046257806395d89b4114610492576101e5565b8063313ce56711610187578063465fc5d211610156578063465fc5d21461038c5780634cdad506146103aa5780636e553f65146103da57806370a082311461040a576101e5565b8063313ce5671461030457806333a100ca1461032257806338d52e0f1461033e578063402d267d1461035c576101e5565b8063095ea7b3116101c3578063095ea7b3146102565780630a28a4771461028657806318160ddd146102b657806323b872dd146102d4576101e5565b806301e1d114146101ea57806306fdde031461020857806307a2d13a14610226575b600080fd5b6101f26106ca565b6040516101ff919061219f565b60405180910390f35b6102106107ed565b60405161021d919061224a565b60405180910390f35b610240600480360381019061023b919061229d565b61087f565b60405161024d919061219f565b60405180910390f35b610270600480360381019061026b9190612328565b610893565b60405161027d9190612383565b60405180910390f35b6102a0600480360381019061029b919061229d565b6108b6565b6040516102ad919061219f565b60405180910390f35b6102be6108ca565b6040516102cb919061219f565b60405180910390f35b6102ee60048036038101906102e9919061239e565b6108d4565b6040516102fb9190612383565b60405180910390f35b61030c610903565b604051610319919061240d565b60405180910390f35b61033c60048036038101906103379190612466565b61093d565b005b610346610c8a565b60405161035391906124a2565b60405180910390f35b610376600480360381019061037191906124bd565b610cb2565b604051610383919061219f565b60405180910390f35b610394610cdc565b6040516103a191906124a2565b60405180910390f35b6103c460048036038101906103bf919061229d565b610d02565b6040516103d1919061219f565b60405180910390f35b6103f460048036038101906103ef91906124ea565b610d16565b604051610401919061219f565b60405180910390f35b610424600480360381019061041f91906124bd565b610d98565b604051610431919061219f565b60405180910390f35b610442610de0565b005b61044c610df4565b60405161045991906124a2565b60405180910390f35b61047c600480360381019061047791906124ea565b610e1e565b604051610489919061219f565b60405180910390f35b61049a610ea0565b6040516104a7919061224a565b60405180910390f35b6104b8610f32565b6040516104c59190612589565b60405180910390f35b6104e860048036038101906104e39190612328565b610f58565b6040516104f59190612383565b60405180910390f35b6105186004803603810190610513919061229d565b610f7b565b604051610525919061219f565b60405180910390f35b610548600480360381019061054391906125a4565b610f8f565b604051610555919061219f565b60405180910390f35b610578600480360381019061057391906125a4565b611013565b604051610585919061219f565b60405180910390f35b6105a860048036038101906105a391906124bd565b611097565b6040516105b5919061219f565b60405180910390f35b6105d860048036038101906105d3919061229d565b6110c1565b6040516105e5919061219f565b60405180910390f35b610608600480360381019061060391906124bd565b6110d5565b604051610615919061219f565b60405180910390f35b610638600480360381019061063391906124bd565b6110f1565b604051610645919061219f565b60405180910390f35b610668600480360381019061066391906125f7565b611103565b604051610675919061219f565b60405180910390f35b6106986004803603810190610693919061229d565b61118a565b6040516106a5919061219f565b60405180910390f35b6106c860048036038101906106c391906124bd565b61119e565b005b60006106d4610c8a565b73ffffffffffffffffffffffffffffffffffffffff166370a08231306040518263ffffffff1660e01b815260040161070c91906124a2565b602060405180830381865afa158015610729573d6000803e3d6000fd5b505050506040513d601f19601f8201168201806040525081019061074d919061264c565b600660009054906101000a900473ffffffffffffffffffffffffffffffffffffffff1673ffffffffffffffffffffffffffffffffffffffff166301e1d1146040518163ffffffff1660e01b8152600401602060405180830381865afa1580156107ba573d6000803e3d6000fd5b505050506040513d601f19601f820116820180604052508101906107de919061264c565b6107e891906126a8565b905090565b6060600380546107fc9061270b565b80601f01602080910402602001604051908101604052809291908181526020018280546108289061270b565b80156108755780601f1061084a57610100808354040283529160200191610875565b820191906000526020600020905b81548152906001019060200180831161085857829003601f168201915b5050505050905090565b600061088c826000611224565b9050919050565b60008061089e61127d565b90506108ab818585611285565b600191505092915050565b60006108c3826001611297565b9050919050565b6000600254905090565b6000806108df61127d565b90506108ec8582856112f0565b6108f7858585611385565b60019150509392505050565b600061090d611479565b7f0000000000000000000000000000000000000000000000000000000000000000610938919061273c565b905090565b61094561147e565b600073ffffffffffffffffffffffffffffffffffffffff168173ffffffffffffffffffffffffffffffffffffffff16036109b4576040517f08c379a00000000000000000000000000000000000000000000000000000000081526004016109ab906127bd565b60405180910390fd5b6109bc610c8a565b73ffffffffffffffffffffffffffffffffffffffff168173ffffffffffffffffffffffffffffffffffffffff166338d52e0f6040518163ffffffff1660e01b8152600401602060405180830381865afa158015610a1d573d6000803e3d6000fd5b505050506040513d601f19601f82011682018060405250810190610a41919061281b565b73ffffffffffffffffffffffffffffffffffffffff1614610a97576040517f08c379a0000000000000000000000000000000000000000000000000000000008152600401610a8e90612894565b60405180910390fd5b6000600660009054906101000a900473ffffffffffffffffffffffffffffffffffffffff169050610ac6610c8a565b73ffffffffffffffffffffffffffffffffffffffff1663095ea7b38260006040518363ffffffff1660e01b8152600401610b019291906128ef565b6020604051808303816000875af1158015610b20573d6000803e3d6000fd5b505050506040513d601f19601f82011682018060405250810190610b449190612944565b5081600660006101000a81548173ffffffffffffffffffffffffffffffffffffffff021916908373ffffffffffffffffffffffffffffffffffffffff160217905550610b8e610c8a565b73ffffffffffffffffffffffffffffffffffffffff1663095ea7b3837fffffffffffffffffffffffffffffffffffffffffffffffffffffffffffffffff6040518363ffffffff1660e01b8152600401610be8929190612971565b6020604051808303816000875af1158015610c07573d6000803e3d6000fd5b505050506040513d601f19601f82011682018060405250810190610c2b9190612944565b508173ffffffffffffffffffffffffffffffffffffffff168173ffffffffffffffffffffffffffffffffffffffff167fe4cec16b1a7e6b7979e923da619a8b1e5fd0f0fb6e5c1cf647f350430ee61ca960405160405180910390a35050565b60007f0000000000000000000000000000000000000000000000000000000000000000905090565b60007fffffffffffffffffffffffffffffffffffffffffffffffffffffffffffffffff9050919050565b600760009054906101000a900473ffffffffffffffffffffffffffffffffffffffff1681565b6000610d0f826000611224565b9050919050565b600080610d2283610cb2565b905080841115610d6d578284826040517f79012fb2000000000000000000000000000000000000000000000000000000008152600401610d649392919061299a565b60405180910390fd5b6000610d788561118a565b9050610d8d610d8561127d565b858784611505565b809250505092915050565b60008060008373ffffffffffffffffffffffffffffffffffffffff1673ffffffffffffffffffffffffffffffffffffffff168152602001908152602001600020549050919050565b610de861147e565b610df260006115a4565b565b6000600560009054906101000a900473ffffffffffffffffffffffffffffffffffffffff16905090565b600080610e2a83611097565b905080841115610e75578284826040517f284ff667000000000000000000000000000000000000000000000000000000008152600401610e6c9392919061299a565b60405180910390fd5b6000610e8085610f7b565b9050610e95610e8d61127d565b858388611505565b809250505092915050565b606060048054610eaf9061270b565b80601f0160208091040260200160405190810160405280929190818152602001828054610edb9061270b565b8015610f285780601f10610efd57610100808354040283529160200191610f28565b820191906000526020600020905b815481529060010190602001808311610f0b57829003601f168201915b5050505050905090565b600660009054906101000a900473ffffffffffffffffffffffffffffffffffffffff1681565b600080610f6361127d565b9050610f70818585611385565b600191505092915050565b6000610f88826001611224565b9050919050565b600080610f9b836110d5565b905080851115610fe6578285826040517ffe9cceec000000000000000000000000000000000000000000000000000000008152600401610fdd9392919061299a565b60405180910390fd5b6000610ff1866108b6565b9050611007610ffe61127d565b8686898561166a565b80925050509392505050565b60008061101f836110f1565b90508085111561106a578285826040517fb94abeec0000000000000000000000000000000000000000000000000000000081526004016110619392919061299a565b60405180910390fd5b600061107586610d02565b905061108b61108261127d565b8686848a61166a565b80925050509392505050565b60007fffffffffffffffffffffffffffffffffffffffffffffffffffffffffffffffff9050919050565b60006110ce826000611297565b9050919050565b60006110ea6110e383610d98565b6000611224565b9050919050565b60006110fc82610d98565b9050919050565b6000600160008473ffffffffffffffffffffffffffffffffffffffff1673ffffffffffffffffffffffffffffffffffffffff16815260200190815260200160002060008373ffffffffffffffffffffffffffffffffffffffff1673ffffffffffffffffffffffffffffffffffffffff16815260200190815260200160002054905092915050565b6000611197826000611297565b9050919050565b6111a661147e565b600073ffffffffffffffffffffffffffffffffffffffff168173ffffffffffffffffffffffffffffffffffffffff16036112185760006040517f1e4fbdf700000000000000000000000000000000000000000000000000000000815260040161120f91906124a2565b60405180910390fd5b611221816115a4565b50565b600061127560016112336106ca565b61123d91906126a8565b611245611479565b600a6112519190612b04565b6112596108ca565b61126391906126a8565b84866117bd909392919063ffffffff16565b905092915050565b600033905090565b611292838383600161180c565b505050565b60006112e86112a4611479565b600a6112b09190612b04565b6112b86108ca565b6112c291906126a8565b60016112cc6106ca565b6112d691906126a8565b84866117bd909392919063ffffffff16565b905092915050565b60006112fc8484611103565b90507fffffffffffffffffffffffffffffffffffffffffffffffffffffffffffffffff81101561137f578181101561136f578281836040517ffb8f41b20000000000000000000000000000000000000000000000000000000081526004016113669392919061299a565b60405180910390fd5b61137e8484848403600061180c565b5b50505050565b600073ffffffffffffffffffffffffffffffffffffffff168373ffffffffffffffffffffffffffffffffffffffff16036113f75760006040517f96c6fd1e0000000000000000000000000000000000000000000000000000000081526004016113ee91906124a2565b60405180910390fd5b600073ffffffffffffffffffffffffffffffffffffffff168273ffffffffffffffffffffffffffffffffffffffff16036114695760006040517fec442f0500000000000000000000000000000000000000000000000000000000815260040161146091906124a2565b60405180910390fd5b6114748383836119e3565b505050565b600090565b61148661127d565b73ffffffffffffffffffffffffffffffffffffffff166114a4610df4565b73ffffffffffffffffffffffffffffffffffffffff1614611503576114c761127d565b6040517f118cdaa70000000000000000000000000000000000000000000000000000000081526004016114fa91906124a2565b60405180910390fd5b565b61151184848484611c08565b600660009054906101000a900473ffffffffffffffffffffffffffffffffffffffff1673ffffffffffffffffffffffffffffffffffffffff16632afcf480836040518263ffffffff1660e01b815260040161156c919061219f565b600060405180830381600087803b15801561158657600080fd5b505af115801561159a573d6000803e3d6000fd5b5050505050505050565b6000600560009054906101000a900473ffffffffffffffffffffffffffffffffffffffff16905081600560006101000a81548173ffffffffffffffffffffffffffffffffffffffff021916908373ffffffffffffffffffffffffffffffffffffffff1602179055508173ffffffffffffffffffffffffffffffffffffffff168173ffffffffffffffffffffffffffffffffffffffff167f8be0079c531659141344cd1fd0a4f28419497f9722a3daafe3b4186f6b6457e060405160405180910390a35050565b6000611674610c8a565b73ffffffffffffffffffffffffffffffffffffffff166370a08231306040518263ffffffff1660e01b81526004016116ac91906124a2565b602060405180830381865afa1580156116c9573d6000803e3d6000fd5b505050506040513d601f19601f820116820180604052508101906116ed919061264c565b9050808311156117a857600081846117059190612b4f565b9050600660009054906101000a900473ffffffffffffffffffffffffffffffffffffffff1673ffffffffffffffffffffffffffffffffffffffff16638ca17995826040518263ffffffff1660e01b8152600401611762919061219f565b6020604051808303816000875af1158015611781573d6000803e3d6000fd5b505050506040513d601f19601f820116820180604052508101906117a5919061264c565b50505b6117b58686868686611c92565b505050505050565b60006117ed6117cb83611d72565b80156117e85750600084806117e3576117e2612b83565b5b868809115b611da0565b6117f8868686611dac565b61180291906126a8565b9050949350505050565b600073ffffffffffffffffffffffffffffffffffffffff168473ffffffffffffffffffffffffffffffffffffffff160361187e5760006040517fe602df0500000000000000000000000000000000000000000000000000000000815260040161187591906124a2565b60405180910390fd5b600073ffffffffffffffffffffffffffffffffffffffff168373ffffffffffffffffffffffffffffffffffffffff16036118f05760006040517f94280d620000000000000000000000000000000000000000000000000000000081526004016118e791906124a2565b60405180910390fd5b81600160008673ffffffffffffffffffffffffffffffffffffffff1673ffffffffffffffffffffffffffffffffffffffff16815260200190815260200160002060008573ffffffffffffffffffffffffffffffffffffffff1673ffffffffffffffffffffffffffffffffffffffff1681526020019081526020016000208190555080156119dd578273ffffffffffffffffffffffffffffffffffffffff168473ffffffffffffffffffffffffffffffffffffffff167f8c5be1e5ebec7d5bd14f71427d1e84f3dd0314c0f7b2291e5b200ac8c7c3b925846040516119d4919061219f565b60405180910390a35b50505050565b600073ffffffffffffffffffffffffffffffffffffffff168373ffffffffffffffffffffffffffffffffffffffff1603611a35578060026000828254611a2991906126a8565b92505081905550611b08565b60008060008573ffffffffffffffffffffffffffffffffffffffff1673ffffffffffffffffffffffffffffffffffffffff16815260200190815260200160002054905081811015611ac1578381836040517fe450d38c000000000000000000000000000000000000000000000000000000008152600401611ab89392919061299a565b60405180910390fd5b8181036000808673ffffffffffffffffffffffffffffffffffffffff1673ffffffffffffffffffffffffffffffffffffffff16815260200190815260200160002081905550505b600073ffffffffffffffffffffffffffffffffffffffff168273ffffffffffffffffffffffffffffffffffffffff1603611b515780600260008282540392505081905550611b9e565b806000808473ffffffffffffffffffffffffffffffffffffffff1673ffffffffffffffffffffffffffffffffffffffff168152602001908152602001600020600082825401925050819055505b8173ffffffffffffffffffffffffffffffffffffffff168373ffffffffffffffffffffffffffffffffffffffff167fddf252ad1be2c89b69c2b068fc378daa952ba7f163c4a11628f55a4df523b3ef83604051611bfb919061219f565b60405180910390a3505050565b611c1b611c13610c8a565b853085611e94565b611c258382611f16565b8273ffffffffffffffffffffffffffffffffffffffff168473ffffffffffffffffffffffffffffffffffffffff167fdcbc1c05240f31ff3ad067ef1ee35ce4997762752e3a095284754544f4c709d78484604051611c84929190612bb2565b60405180910390a350505050565b8273ffffffffffffffffffffffffffffffffffffffff168573ffffffffffffffffffffffffffffffffffffffff1614611cd157611cd08386836112f0565b5b611cdb8382611f98565b611ced611ce6610c8a565b858461201a565b8273ffffffffffffffffffffffffffffffffffffffff168473ffffffffffffffffffffffffffffffffffffffff168673ffffffffffffffffffffffffffffffffffffffff167ffbde797d201c681b91056529119e0b02407c7bb96a4a2c75c01fc9667232c8db8585604051611d63929190612bb2565b60405180910390a45050505050565b600060016002836003811115611d8b57611d8a612bdb565b5b611d959190612c0a565b60ff16149050919050565b60008115159050919050565b6000806000611dbb8686612099565b9150915060008203611de157838181611dd757611dd6612b83565b5b0492505050611e8d565b818411611e0157611e00611dfb60008614601260116120b8565b6120d2565b5b600084868809905081811183039250808203915060008560000386169050808604955080830492506001818260000304019050808402831792506000600287600302189050808702600203810290508087026002038102905080870260020381029050808702600203810290508087026002038102905080870260020381029050808402955050505050505b9392505050565b611f10848573ffffffffffffffffffffffffffffffffffffffff166323b872dd868686604051602401611ec993929190612c3b565b604051602081830303815290604052915060e01b6020820180517bffffffffffffffffffffffffffffffffffffffffffffffffffffffff83818316178352505050506120e4565b50505050565b600073ffffffffffffffffffffffffffffffffffffffff168273ffffffffffffffffffffffffffffffffffffffff1603611f885760006040517fec442f05000000000000000000000000000000000000000000000000000000008152600401611f7f91906124a2565b60405180910390fd5b611f94600083836119e3565b5050565b600073ffffffffffffffffffffffffffffffffffffffff168273ffffffffffffffffffffffffffffffffffffffff160361200a5760006040517f96c6fd1e00000000000000000000000000000000000000000000000000000000815260040161200191906124a2565b60405180910390fd5b612016826000836119e3565b5050565b612094838473ffffffffffffffffffffffffffffffffffffffff1663a9059cbb858560405160240161204d929190612971565b604051602081830303815290604052915060e01b6020820180517bffffffffffffffffffffffffffffffffffffffffffffffffffffffff83818316178352505050506120e4565b505050565b6000806000198385098385029150818110828203039250509250929050565b60006120c384611da0565b82841802821890509392505050565b634e487b71600052806020526024601cfd5b600080602060008451602086016000885af180612107576040513d6000823e3d81fd5b3d92506000519150506000821461212257600181141561213e565b60008473ffffffffffffffffffffffffffffffffffffffff163b145b1561218057836040517f5274afe700000000000000000000000000000000000000000000000000000000815260040161217791906124a2565b60405180910390fd5b50505050565b6000819050919050565b61219981612186565b82525050565b60006020820190506121b46000830184612190565b92915050565b600081519050919050565b600082825260208201905092915050565b60005b838110156121f45780820151818401526020810190506121d9565b60008484015250505050565b6000601f19601f8301169050919050565b600061221c826121ba565b61222681856121c5565b93506122368185602086016121d6565b61223f81612200565b840191505092915050565b600060208201905081810360008301526122648184612211565b905092915050565b600080fd5b61227a81612186565b811461228557600080fd5b50565b60008135905061229781612271565b92915050565b6000602082840312156122b3576122b261226c565b5b60006122c184828501612288565b91505092915050565b600073ffffffffffffffffffffffffffffffffffffffff82169050919050565b60006122f5826122ca565b9050919050565b612305816122ea565b811461231057600080fd5b50565b600081359050612322816122fc565b92915050565b6000806040838503121561233f5761233e61226c565b5b600061234d85828601612313565b925050602061235e85828601612288565b9150509250929050565b60008115159050919050565b61237d81612368565b82525050565b60006020820190506123986000830184612374565b92915050565b6000806000606084860312156123b7576123b661226c565b5b60006123c586828701612313565b93505060206123d686828701612313565b92505060406123e786828701612288565b9150509250925092565b600060ff82169050919050565b612407816123f1565b82525050565b600060208201905061242260008301846123fe565b92915050565b6000612433826122ea565b9050919050565b61244381612428565b811461244e57600080fd5b50565b6000813590506124608161243a565b92915050565b60006020828403121561247c5761247b61226c565b5b600061248a84828501612451565b91505092915050565b61249c816122ea565b82525050565b60006020820190506124b76000830184612493565b92915050565b6000602082840312156124d3576124d261226c565b5b60006124e184828501612313565b91505092915050565b600080604083850312156125015761250061226c565b5b600061250f85828601612288565b925050602061252085828601612313565b9150509250929050565b6000819050919050565b600061254f61254a612545846122ca565b61252a565b6122ca565b9050919050565b600061256182612534565b9050919050565b600061257382612556565b9050919050565b61258381612568565b82525050565b600060208201905061259e600083018461257a565b92915050565b6000806000606084860312156125bd576125bc61226c565b5b60006125cb86828701612288565b93505060206125dc86828701612313565b92505060406125ed86828701612313565b9150509250925092565b6000806040838503121561260e5761260d61226c565b5b600061261c85828601612313565b925050602061262d85828601612313565b9150509250929050565b60008151905061264681612271565b92915050565b6000602082840312156126625761266161226c565b5b600061267084828501612637565b91505092915050565b7f4e487b7100000000000000000000000000000000000000000000000000000000600052601160045260246000fd5b60006126b382612186565b91506126be83612186565b92508282019050808211156126d6576126d5612679565b5b92915050565b7f4e487b7100000000000000000000000000000000000000000000000000000000600052602260045260246000fd5b6000600282049050600182168061272357607f821691505b602082108103612736576127356126dc565b5b50919050565b6000612747826123f1565b9150612752836123f1565b9250828201905060ff81111561276b5761276a612679565b5b92915050565b7f496e76616c696420737472617465677900000000000000000000000000000000600082015250565b60006127a76010836121c5565b91506127b282612771565b602082019050919050565b600060208201905081810360008301526127d68161279a565b9050919050565b60006127e8826122ea565b9050919050565b6127f8816127dd565b811461280357600080fd5b50565b600081519050612815816127ef565b92915050565b6000602082840312156128315761283061226c565b5b600061283f84828501612806565b91505092915050565b7f4173736574206d69736d61746368000000000000000000000000000000000000600082015250565b600061287e600e836121c5565b915061288982612848565b602082019050919050565b600060208201905081810360008301526128ad81612871565b9050919050565b6000819050919050565b60006128d96128d46128cf846128b4565b61252a565b612186565b9050919050565b6128e9816128be565b82525050565b60006040820190506129046000830185612493565b61291160208301846128e0565b9392505050565b61292181612368565b811461292c57600080fd5b50565b60008151905061293e81612918565b92915050565b60006020828403121561295a5761295961226c565b5b60006129688482850161292f565b91505092915050565b60006040820190506129866000830185612493565b6129936020830184612190565b9392505050565b60006060820190506129af6000830186612493565b6129bc6020830185612190565b6129c96040830184612190565b949350505050565b60008160011c9050919050565b6000808291508390505b6001851115612a2857808604811115612a0457612a03612679565b5b6001851615612a135780820291505b8081029050612a21856129d1565b94506129e8565b94509492505050565b600082612a415760019050612afd565b81612a4f5760009050612afd565b8160018114612a655760028114612a6f57612a9e565b6001915050612afd565b60ff841115612a8157612a80612679565b5b8360020a915084821115612a9857612a97612679565b5b50612afd565b5060208310610133831016604e8410600b8410161715612ad35782820a905083811115612ace57612acd612679565b5b612afd565b612ae084848460016129de565b92509050818404811115612af757612af6612679565b5b81810290505b9392505050565b6000612b0f82612186565b9150612b1a836123f1565b9250612b477fffffffffffffffffffffffffffffffffffffffffffffffffffffffffffffffff8484612a31565b905092915050565b6000612b5a82612186565b9150612b6583612186565b9250828203905081811115612b7d57612b7c612679565b5b92915050565b7f4e487b7100000000000000000000000000000000000000000000000000000000600052601260045260246000fd5b6000604082019050612bc76000830185612190565b612bd46020830184612190565b9392505050565b7f4e487b7100000000000000000000000000000000000000000000000000000000600052602160045260246000fd5b6000612c15826123f1565b9150612c20836123f1565b925082612c3057612c2f612b83565b5b828206905092915050565b6000606082019050612c506000830186612493565b612c5d6020830185612493565b612c6a6040830184612190565b94935050505056fea2646970667358221220099d11fe97fe92a7bcb36b8335f1477fc75d2d805a1f0e5a81e27f9228bda87664736f6c63430008140033","opcodes":"PUSH1 0xC0 PUSH1 0x40 MSTORE CALLVALUE DUP1 ISZERO PUSH3 0x11 JUMPI PUSH1 0x0 DUP1 REVERT JUMPDEST POP PUSH1 0x40 MLOAD PUSH3 0x3B43 CODESIZE SUB DUP1 PUSH3 0x3B43 DUP4 CODECOPY DUP2 DUP2 ADD PUSH1 0x40 MSTORE DUP2 ADD SWAP1 PUSH3 0x37 SWAP2 SWAP1 PUSH3 0x7C8 JUMP JUMPDEST CALLER DUP5 DUP5 DUP5 DUP2 PUSH1 0x3 SWAP1 DUP2 PUSH3 0x4C SWAP2 SWAP1 PUSH3 0xAC3 JUMP JUMPDEST POP DUP1 PUSH1 0x4 SWAP1 DUP2 PUSH3 0x5E SWAP2 SWAP1 PUSH3 0xAC3 JUMP JUMPDEST POP POP POP PUSH1 0x0 DUP1 PUSH3 0x75 DUP4 PUSH3 0x397 PUSH1 0x20 SHL PUSH1 0x20 SHR JUMP JUMPDEST SWAP2 POP SWAP2 POP DUP2 PUSH3 0x87 JUMPI PUSH1 0x12 PUSH3 0x89 JUMP JUMPDEST DUP1 JUMPDEST PUSH1 0xFF AND PUSH1 0xA0 DUP2 PUSH1 0xFF AND DUP2 MSTORE POP POP DUP3 PUSH20 0xFFFFFFFFFFFFFFFFFFFFFFFFFFFFFFFFFFFFFFFF AND PUSH1 0x80 DUP2 PUSH20 0xFFFFFFFFFFFFFFFFFFFFFFFFFFFFFFFFFFFFFFFF AND DUP2 MSTORE POP POP POP POP POP PUSH1 0x0 PUSH20 0xFFFFFFFFFFFFFFFFFFFFFFFFFFFFFFFFFFFFFFFF AND DUP2 PUSH20 0xFFFFFFFFFFFFFFFFFFFFFFFFFFFFFFFFFFFFFFFF AND SUB PUSH3 0x142 JUMPI PUSH1 0x0 PUSH1 0x40 MLOAD PUSH32 0x1E4FBDF700000000000000000000000000000000000000000000000000000000 DUP2 MSTORE PUSH1 0x4 ADD PUSH3 0x139 SWAP2 SWAP1 PUSH3 0xBBB JUMP JUMPDEST PUSH1 0x40 MLOAD DUP1 SWAP2 SUB SWAP1 REVERT JUMPDEST PUSH3 0x153 DUP2 PUSH3 0x4B1 PUSH1 0x20 SHL PUSH1 0x20 SHR JUMP JUMPDEST POP PUSH1 0x0 PUSH20 0xFFFFFFFFFFFFFFFFFFFFFFFFFFFFFFFFFFFFFFFF AND DUP2 PUSH20 0xFFFFFFFFFFFFFFFFFFFFFFFFFFFFFFFFFFFFFFFF AND SUB PUSH3 0x1C6 JUMPI PUSH1 0x40 MLOAD PUSH32 0x8C379A000000000000000000000000000000000000000000000000000000000 DUP2 MSTORE PUSH1 0x4 ADD PUSH3 0x1BD SWAP1 PUSH3 0xC39 JUMP JUMPDEST PUSH1 0x40 MLOAD DUP1 SWAP2 SUB SWAP1 REVERT JUMPDEST DUP4 PUSH20 0xFFFFFFFFFFFFFFFFFFFFFFFFFFFFFFFFFFFFFFFF AND DUP2 PUSH20 0xFFFFFFFFFFFFFFFFFFFFFFFFFFFFFFFFFFFFFFFF AND PUSH4 0x38D52E0F PUSH1 0x40 MLOAD DUP2 PUSH4 0xFFFFFFFF AND PUSH1 0xE0 SHL DUP2 MSTORE PUSH1 0x4 ADD PUSH1 0x20 PUSH1 0x40 MLOAD DUP1 DUP4 SUB DUP2 DUP7 GAS STATICCALL ISZERO DUP1 ISZERO PUSH3 0x229 JUMPI RETURNDATASIZE PUSH1 0x0 DUP1 RETURNDATACOPY RETURNDATASIZE PUSH1 0x0 REVERT JUMPDEST POP POP POP POP PUSH1 0x40 MLOAD RETURNDATASIZE PUSH1 0x1F NOT PUSH1 0x1F DUP3 ADD AND DUP3 ADD DUP1 PUSH1 0x40 MSTORE POP DUP2 ADD SWAP1 PUSH3 0x24F SWAP2 SWAP1 PUSH3 0xC5B JUMP JUMPDEST PUSH20 0xFFFFFFFFFFFFFFFFFFFFFFFFFFFFFFFFFFFFFFFF AND EQ PUSH3 0x2A8 JUMPI PUSH1 0x40 MLOAD PUSH32 0x8C379A000000000000000000000000000000000000000000000000000000000 DUP2 MSTORE PUSH1 0x4 ADD PUSH3 0x29F SWAP1 PUSH3 0xCDD JUMP JUMPDEST PUSH1 0x40 MLOAD DUP1 SWAP2 SUB SWAP1 REVERT JUMPDEST DUP1 PUSH1 0x6 PUSH1 0x0 PUSH2 0x100 EXP DUP2 SLOAD DUP2 PUSH20 0xFFFFFFFFFFFFFFFFFFFFFFFFFFFFFFFFFFFFFFFF MUL NOT AND SWAP1 DUP4 PUSH20 0xFFFFFFFFFFFFFFFFFFFFFFFFFFFFFFFFFFFFFFFF AND MUL OR SWAP1 SSTORE POP DUP4 PUSH20 0xFFFFFFFFFFFFFFFFFFFFFFFFFFFFFFFFFFFFFFFF AND PUSH4 0x95EA7B3 DUP3 PUSH32 0xFFFFFFFFFFFFFFFFFFFFFFFFFFFFFFFFFFFFFFFFFFFFFFFFFFFFFFFFFFFFFFFF PUSH1 0x40 MLOAD DUP4 PUSH4 0xFFFFFFFF AND PUSH1 0xE0 SHL DUP2 MSTORE PUSH1 0x4 ADD PUSH3 0x346 SWAP3 SWAP2 SWAP1 PUSH3 0xD10 JUMP JUMPDEST PUSH1 0x20 PUSH1 0x40 MLOAD DUP1 DUP4 SUB DUP2 PUSH1 0x0 DUP8 GAS CALL ISZERO DUP1 ISZERO PUSH3 0x366 JUMPI RETURNDATASIZE PUSH1 0x0 DUP1 RETURNDATACOPY RETURNDATASIZE PUSH1 0x0 REVERT JUMPDEST POP POP POP POP PUSH1 0x40 MLOAD RETURNDATASIZE PUSH1 0x1F NOT PUSH1 0x1F DUP3 ADD AND DUP3 ADD DUP1 PUSH1 0x40 MSTORE POP DUP2 ADD SWAP1 PUSH3 0x38C SWAP2 SWAP1 PUSH3 0xD7A JUMP JUMPDEST POP POP POP POP POP PUSH3 0xE75 JUMP JUMPDEST PUSH1 0x0 DUP1 PUSH1 0x0 DUP1 DUP5 PUSH20 0xFFFFFFFFFFFFFFFFFFFFFFFFFFFFFFFFFFFFFFFF AND PUSH1 0x40 MLOAD PUSH1 0x24 ADD PUSH1 0x40 MLOAD PUSH1 0x20 DUP2 DUP4 SUB SUB DUP2 MSTORE SWAP1 PUSH1 0x40 MSTORE PUSH4 0x313CE567 PUSH1 0xE0 SHL PUSH1 0x20 DUP3 ADD DUP1 MLOAD PUSH28 0xFFFFFFFFFFFFFFFFFFFFFFFFFFFFFFFFFFFFFFFFFFFFFFFFFFFFFFFF DUP4 DUP2 DUP4 AND OR DUP4 MSTORE POP POP POP POP PUSH1 0x40 MLOAD PUSH3 0x40E SWAP2 SWAP1 PUSH3 0xDF9 JUMP JUMPDEST PUSH1 0x0 PUSH1 0x40 MLOAD DUP1 DUP4 SUB DUP2 DUP6 GAS STATICCALL SWAP2 POP POP RETURNDATASIZE DUP1 PUSH1 0x0 DUP2 EQ PUSH3 0x44B JUMPI PUSH1 0x40 MLOAD SWAP2 POP PUSH1 0x1F NOT PUSH1 0x3F RETURNDATASIZE ADD AND DUP3 ADD PUSH1 0x40 MSTORE RETURNDATASIZE DUP3 MSTORE RETURNDATASIZE PUSH1 0x0 PUSH1 0x20 DUP5 ADD RETURNDATACOPY PUSH3 0x450 JUMP JUMPDEST PUSH1 0x60 SWAP2 POP JUMPDEST POP SWAP2 POP SWAP2 POP DUP2 DUP1 ISZERO PUSH3 0x465 JUMPI POP PUSH1 0x20 DUP2 MLOAD LT ISZERO JUMPDEST ISZERO PUSH3 0x4A2 JUMPI PUSH1 0x0 DUP2 DUP1 PUSH1 0x20 ADD SWAP1 MLOAD DUP2 ADD SWAP1 PUSH3 0x483 SWAP2 SWAP1 PUSH3 0xE43 JUMP JUMPDEST SWAP1 POP PUSH1 0xFF DUP1 AND DUP2 GT PUSH3 0x4A0 JUMPI PUSH1 0x1 DUP2 SWAP5 POP SWAP5 POP POP POP POP PUSH3 0x4AC JUMP JUMPDEST POP JUMPDEST PUSH1 0x0 DUP1 SWAP4 POP SWAP4 POP POP POP JUMPDEST SWAP2 POP SWAP2 JUMP JUMPDEST PUSH1 0x0 PUSH1 0x5 PUSH1 0x0 SWAP1 SLOAD SWAP1 PUSH2 0x100 EXP SWAP1 DIV PUSH20 0xFFFFFFFFFFFFFFFFFFFFFFFFFFFFFFFFFFFFFFFF AND SWAP1 POP DUP2 PUSH1 0x5 PUSH1 0x0 PUSH2 0x100 EXP DUP2 SLOAD DUP2 PUSH20 0xFFFFFFFFFFFFFFFFFFFFFFFFFFFFFFFFFFFFFFFF MUL NOT AND SWAP1 DUP4 PUSH20 0xFFFFFFFFFFFFFFFFFFFFFFFFFFFFFFFFFFFFFFFF AND MUL OR SWAP1 SSTORE POP DUP2 PUSH20 0xFFFFFFFFFFFFFFFFFFFFFFFFFFFFFFFFFFFFFFFF AND DUP2 PUSH20 0xFFFFFFFFFFFFFFFFFFFFFFFFFFFFFFFFFFFFFFFF AND PUSH32 0x8BE0079C531659141344CD1FD0A4F28419497F9722A3DAAFE3B4186F6B6457E0 PUSH1 0x40 MLOAD PUSH1 0x40 MLOAD DUP1 SWAP2 SUB SWAP1 LOG3 POP POP JUMP JUMPDEST PUSH1 0x0 PUSH1 0x40 MLOAD SWAP1 POP SWAP1 JUMP JUMPDEST PUSH1 0x0 DUP1 REVERT JUMPDEST PUSH1 0x0 DUP1 REVERT JUMPDEST PUSH1 0x0 PUSH20 0xFFFFFFFFFFFFFFFFFFFFFFFFFFFFFFFFFFFFFFFF DUP3 AND SWAP1 POP SWAP2 SWAP1 POP JUMP JUMPDEST PUSH1 0x0 PUSH3 0x5B8 DUP3 PUSH3 0x58B JUMP JUMPDEST SWAP1 POP SWAP2 SWAP1 POP JUMP JUMPDEST PUSH1 0x0 PUSH3 0x5CC DUP3 PUSH3 0x5AB JUMP JUMPDEST SWAP1 POP SWAP2 SWAP1 POP JUMP JUMPDEST PUSH3 0x5DE DUP2 PUSH3 0x5BF JUMP JUMPDEST DUP2 EQ PUSH3 0x5EA JUMPI PUSH1 0x0 DUP1 REVERT JUMPDEST POP JUMP JUMPDEST PUSH1 0x0 DUP2 MLOAD SWAP1 POP PUSH3 0x5FE DUP2 PUSH3 0x5D3 JUMP JUMPDEST SWAP3 SWAP2 POP POP JUMP JUMPDEST PUSH1 0x0 DUP1 REVERT JUMPDEST PUSH1 0x0 DUP1 REVERT JUMPDEST PUSH1 0x0 PUSH1 0x1F NOT PUSH1 0x1F DUP4 ADD AND SWAP1 POP SWAP2 SWAP1 POP JUMP JUMPDEST PUSH32 0x4E487B7100000000000000000000000000000000000000000000000000000000 PUSH1 0x0 MSTORE PUSH1 0x41 PUSH1 0x4 MSTORE PUSH1 0x24 PUSH1 0x0 REVERT JUMPDEST PUSH3 0x659 DUP3 PUSH3 0x60E JUMP JUMPDEST DUP2 ADD DUP2 DUP2 LT PUSH8 0xFFFFFFFFFFFFFFFF DUP3 GT OR ISZERO PUSH3 0x67B JUMPI PUSH3 0x67A PUSH3 0x61F JUMP JUMPDEST JUMPDEST DUP1 PUSH1 0x40 MSTORE POP POP POP JUMP JUMPDEST PUSH1 0x0 PUSH3 0x690 PUSH3 0x577 JUMP JUMPDEST SWAP1 POP PUSH3 0x69E DUP3 DUP3 PUSH3 0x64E JUMP JUMPDEST SWAP2 SWAP1 POP JUMP JUMPDEST PUSH1 0x0 PUSH8 0xFFFFFFFFFFFFFFFF DUP3 GT ISZERO PUSH3 0x6C1 JUMPI PUSH3 0x6C0 PUSH3 0x61F JUMP JUMPDEST JUMPDEST PUSH3 0x6CC DUP3 PUSH3 0x60E JUMP JUMPDEST SWAP1 POP PUSH1 0x20 DUP2 ADD SWAP1 POP SWAP2 SWAP1 POP JUMP JUMPDEST PUSH1 0x0 JUMPDEST DUP4 DUP2 LT ISZERO PUSH3 0x6F9 JUMPI DUP1 DUP3 ADD MLOAD DUP2 DUP5 ADD MSTORE PUSH1 0x20 DUP2 ADD SWAP1 POP PUSH3 0x6DC JUMP JUMPDEST PUSH1 0x0 DUP5 DUP5 ADD MSTORE POP POP POP POP JUMP JUMPDEST PUSH1 0x0 PUSH3 0x71C PUSH3 0x716 DUP5 PUSH3 0x6A3 JUMP JUMPDEST PUSH3 0x684 JUMP JUMPDEST SWAP1 POP DUP3 DUP2 MSTORE PUSH1 0x20 DUP2 ADD DUP5 DUP5 DUP5 ADD GT ISZERO PUSH3 0x73B JUMPI PUSH3 0x73A PUSH3 0x609 JUMP JUMPDEST JUMPDEST PUSH3 0x748 DUP5 DUP3 DUP6 PUSH3 0x6D9 JUMP JUMPDEST POP SWAP4 SWAP3 POP POP POP JUMP JUMPDEST PUSH1 0x0 DUP3 PUSH1 0x1F DUP4 ADD SLT PUSH3 0x768 JUMPI PUSH3 0x767 PUSH3 0x604 JUMP JUMPDEST JUMPDEST DUP2 MLOAD PUSH3 0x77A DUP5 DUP3 PUSH1 0x20 DUP7 ADD PUSH3 0x705 JUMP JUMPDEST SWAP2 POP POP SWAP3 SWAP2 POP POP JUMP JUMPDEST PUSH1 0x0 PUSH3 0x790 DUP3 PUSH3 0x5AB JUMP JUMPDEST SWAP1 POP SWAP2 SWAP1 POP JUMP JUMPDEST PUSH3 0x7A2 DUP2 PUSH3 0x783 JUMP JUMPDEST DUP2 EQ PUSH3 0x7AE JUMPI PUSH1 0x0 DUP1 REVERT JUMPDEST POP JUMP JUMPDEST PUSH1 0x0 DUP2 MLOAD SWAP1 POP PUSH3 0x7C2 DUP2 PUSH3 0x797 JUMP JUMPDEST SWAP3 SWAP2 POP POP JUMP JUMPDEST PUSH1 0x0 DUP1 PUSH1 0x0 DUP1 PUSH1 0x80 DUP6 DUP8 SUB SLT ISZERO PUSH3 0x7E5 JUMPI PUSH3 0x7E4 PUSH3 0x581 JUMP JUMPDEST JUMPDEST PUSH1 0x0 PUSH3 0x7F5 DUP8 DUP3 DUP9 ADD PUSH3 0x5ED JUMP JUMPDEST SWAP5 POP POP PUSH1 0x20 DUP6 ADD MLOAD PUSH8 0xFFFFFFFFFFFFFFFF DUP2 GT ISZERO PUSH3 0x819 JUMPI PUSH3 0x818 PUSH3 0x586 JUMP JUMPDEST JUMPDEST PUSH3 0x827 DUP8 DUP3 DUP9 ADD PUSH3 0x750 JUMP JUMPDEST SWAP4 POP POP PUSH1 0x40 DUP6 ADD MLOAD PUSH8 0xFFFFFFFFFFFFFFFF DUP2 GT ISZERO PUSH3 0x84B JUMPI PUSH3 0x84A PUSH3 0x586 JUMP JUMPDEST JUMPDEST PUSH3 0x859 DUP8 DUP3 DUP9 ADD PUSH3 0x750 JUMP JUMPDEST SWAP3 POP POP PUSH1 0x60 PUSH3 0x86C DUP8 DUP3 DUP9 ADD PUSH3 0x7B1 JUMP JUMPDEST SWAP2 POP POP SWAP3 SWAP6 SWAP2 SWAP5 POP SWAP3 POP JUMP JUMPDEST PUSH1 0x0 DUP2 MLOAD SWAP1 POP SWAP2 SWAP1 POP JUMP JUMPDEST PUSH32 0x4E487B7100000000000000000000000000000000000000000000000000000000 PUSH1 0x0 MSTORE PUSH1 0x22 PUSH1 0x4 MSTORE PUSH1 0x24 PUSH1 0x0 REVERT JUMPDEST PUSH1 0x0 PUSH1 0x2 DUP3 DIV SWAP1 POP PUSH1 0x1 DUP3 AND DUP1 PUSH3 0x8CB JUMPI PUSH1 0x7F DUP3 AND SWAP2 POP JUMPDEST PUSH1 0x20 DUP3 LT DUP2 SUB PUSH3 0x8E1 JUMPI PUSH3 0x8E0 PUSH3 0x883 JUMP JUMPDEST JUMPDEST POP SWAP2 SWAP1 POP JUMP JUMPDEST PUSH1 0x0 DUP2 SWAP1 POP DUP2 PUSH1 0x0 MSTORE PUSH1 0x20 PUSH1 0x0 KECCAK256 SWAP1 POP SWAP2 SWAP1 POP JUMP JUMPDEST PUSH1 0x0 PUSH1 0x20 PUSH1 0x1F DUP4 ADD DIV SWAP1 POP SWAP2 SWAP1 POP JUMP JUMPDEST PUSH1 0x0 DUP3 DUP3 SHL SWAP1 POP SWAP3 SWAP2 POP POP JUMP JUMPDEST PUSH1 0x0 PUSH1 0x8 DUP4 MUL PUSH3 0x94B PUSH32 0xFFFFFFFFFFFFFFFFFFFFFFFFFFFFFFFFFFFFFFFFFFFFFFFFFFFFFFFFFFFFFFFF DUP3 PUSH3 0x90C JUMP JUMPDEST PUSH3 0x957 DUP7 DUP4 PUSH3 0x90C JUMP JUMPDEST SWAP6 POP DUP1 NOT DUP5 AND SWAP4 POP DUP1 DUP7 AND DUP5 OR SWAP3 POP POP POP SWAP4 SWAP3 POP POP POP JUMP JUMPDEST PUSH1 0x0 DUP2 SWAP1 POP SWAP2 SWAP1 POP JUMP JUMPDEST PUSH1 0x0 DUP2 SWAP1 POP SWAP2 SWAP1 POP JUMP JUMPDEST PUSH1 0x0 PUSH3 0x9A4 PUSH3 0x99E PUSH3 0x998 DUP5 PUSH3 0x96F JUMP JUMPDEST PUSH3 0x979 JUMP JUMPDEST PUSH3 0x96F JUMP JUMPDEST SWAP1 POP SWAP2 SWAP1 POP JUMP JUMPDEST PUSH1 0x0 DUP2 SWAP1 POP SWAP2 SWAP1 POP JUMP JUMPDEST PUSH3 0x9C0 DUP4 PUSH3 0x983 JUMP JUMPDEST PUSH3 0x9D8 PUSH3 0x9CF DUP3 PUSH3 0x9AB JUMP JUMPDEST DUP5 DUP5 SLOAD PUSH3 0x919 JUMP JUMPDEST DUP3 SSTORE POP POP POP POP JUMP JUMPDEST PUSH1 0x0 SWAP1 JUMP JUMPDEST PUSH3 0x9EF PUSH3 0x9E0 JUMP JUMPDEST PUSH3 0x9FC DUP2 DUP5 DUP5 PUSH3 0x9B5 JUMP JUMPDEST POP POP POP JUMP JUMPDEST JUMPDEST DUP2 DUP2 LT ISZERO PUSH3 0xA24 JUMPI PUSH3 0xA18 PUSH1 0x0 DUP3 PUSH3 0x9E5 JUMP JUMPDEST PUSH1 0x1 DUP2 ADD SWAP1 POP PUSH3 0xA02 JUMP JUMPDEST POP POP JUMP JUMPDEST PUSH1 0x1F DUP3 GT ISZERO PUSH3 0xA73 JUMPI PUSH3 0xA3D DUP2 PUSH3 0x8E7 JUMP JUMPDEST PUSH3 0xA48 DUP5 PUSH3 0x8FC JUMP JUMPDEST DUP2 ADD PUSH1 0x20 DUP6 LT ISZERO PUSH3 0xA58 JUMPI DUP2 SWAP1 POP JUMPDEST PUSH3 0xA70 PUSH3 0xA67 DUP6 PUSH3 0x8FC JUMP JUMPDEST DUP4 ADD DUP3 PUSH3 0xA01 JUMP JUMPDEST POP POP JUMPDEST POP POP POP JUMP JUMPDEST PUSH1 0x0 DUP3 DUP3 SHR SWAP1 POP SWAP3 SWAP2 POP POP JUMP JUMPDEST PUSH1 0x0 PUSH3 0xA98 PUSH1 0x0 NOT DUP5 PUSH1 0x8 MUL PUSH3 0xA78 JUMP JUMPDEST NOT DUP1 DUP4 AND SWAP2 POP POP SWAP3 SWAP2 POP POP JUMP JUMPDEST PUSH1 0x0 PUSH3 0xAB3 DUP4 DUP4 PUSH3 0xA85 JUMP JUMPDEST SWAP2 POP DUP3 PUSH1 0x2 MUL DUP3 OR SWAP1 POP SWAP3 SWAP2 POP POP JUMP JUMPDEST PUSH3 0xACE DUP3 PUSH3 0x878 JUMP JUMPDEST PUSH8 0xFFFFFFFFFFFFFFFF DUP2 GT ISZERO PUSH3 0xAEA JUMPI PUSH3 0xAE9 PUSH3 0x61F JUMP JUMPDEST JUMPDEST PUSH3 0xAF6 DUP3 SLOAD PUSH3 0x8B2 JUMP JUMPDEST PUSH3 0xB03 DUP3 DUP3 DUP6 PUSH3 0xA28 JUMP JUMPDEST PUSH1 0x0 PUSH1 0x20 SWAP1 POP PUSH1 0x1F DUP4 GT PUSH1 0x1 DUP2 EQ PUSH3 0xB3B JUMPI PUSH1 0x0 DUP5 ISZERO PUSH3 0xB26 JUMPI DUP3 DUP8 ADD MLOAD SWAP1 POP JUMPDEST PUSH3 0xB32 DUP6 DUP3 PUSH3 0xAA5 JUMP JUMPDEST DUP7 SSTORE POP PUSH3 0xBA2 JUMP JUMPDEST PUSH1 0x1F NOT DUP5 AND PUSH3 0xB4B DUP7 PUSH3 0x8E7 JUMP JUMPDEST PUSH1 0x0 JUMPDEST DUP3 DUP2 LT ISZERO PUSH3 0xB75 JUMPI DUP5 DUP10 ADD MLOAD DUP3 SSTORE PUSH1 0x1 DUP3 ADD SWAP2 POP PUSH1 0x20 DUP6 ADD SWAP5 POP PUSH1 0x20 DUP2 ADD SWAP1 POP PUSH3 0xB4E JUMP JUMPDEST DUP7 DUP4 LT ISZERO PUSH3 0xB95 JUMPI DUP5 DUP10 ADD MLOAD PUSH3 0xB91 PUSH1 0x1F DUP10 AND DUP3 PUSH3 0xA85 JUMP JUMPDEST DUP4 SSTORE POP JUMPDEST PUSH1 0x1 PUSH1 0x2 DUP9 MUL ADD DUP9 SSTORE POP POP POP JUMPDEST POP POP POP POP POP POP JUMP JUMPDEST PUSH3 0xBB5 DUP2 PUSH3 0x5AB JUMP JUMPDEST DUP3 MSTORE POP POP JUMP JUMPDEST PUSH1 0x0 PUSH1 0x20 DUP3 ADD SWAP1 POP PUSH3 0xBD2 PUSH1 0x0 DUP4 ADD DUP5 PUSH3 0xBAA JUMP JUMPDEST SWAP3 SWAP2 POP POP JUMP JUMPDEST PUSH1 0x0 DUP3 DUP3 MSTORE PUSH1 0x20 DUP3 ADD SWAP1 POP SWAP3 SWAP2 POP POP JUMP JUMPDEST PUSH32 0x496E76616C696420737472617465677900000000000000000000000000000000 PUSH1 0x0 DUP3 ADD MSTORE POP JUMP JUMPDEST PUSH1 0x0 PUSH3 0xC21 PUSH1 0x10 DUP4 PUSH3 0xBD8 JUMP JUMPDEST SWAP2 POP PUSH3 0xC2E DUP3 PUSH3 0xBE9 JUMP JUMPDEST PUSH1 0x20 DUP3 ADD SWAP1 POP SWAP2 SWAP1 POP JUMP JUMPDEST PUSH1 0x0 PUSH1 0x20 DUP3 ADD SWAP1 POP DUP2 DUP2 SUB PUSH1 0x0 DUP4 ADD MSTORE PUSH3 0xC54 DUP2 PUSH3 0xC12 JUMP JUMPDEST SWAP1 POP SWAP2 SWAP1 POP JUMP JUMPDEST PUSH1 0x0 PUSH1 0x20 DUP3 DUP5 SUB SLT ISZERO PUSH3 0xC74 JUMPI PUSH3 0xC73 PUSH3 0x581 JUMP JUMPDEST JUMPDEST PUSH1 0x0 PUSH3 0xC84 DUP5 DUP3 DUP6 ADD PUSH3 0x5ED JUMP JUMPDEST SWAP2 POP POP SWAP3 SWAP2 POP POP JUMP JUMPDEST PUSH32 0x4173736574206D69736D61746368000000000000000000000000000000000000 PUSH1 0x0 DUP3 ADD MSTORE POP JUMP JUMPDEST PUSH1 0x0 PUSH3 0xCC5 PUSH1 0xE DUP4 PUSH3 0xBD8 JUMP JUMPDEST SWAP2 POP PUSH3 0xCD2 DUP3 PUSH3 0xC8D JUMP JUMPDEST PUSH1 0x20 DUP3 ADD SWAP1 POP SWAP2 SWAP1 POP JUMP JUMPDEST PUSH1 0x0 PUSH1 0x20 DUP3 ADD SWAP1 POP DUP2 DUP2 SUB PUSH1 0x0 DUP4 ADD MSTORE PUSH3 0xCF8 DUP2 PUSH3 0xCB6 JUMP JUMPDEST SWAP1 POP SWAP2 SWAP1 POP JUMP JUMPDEST PUSH3 0xD0A DUP2 PUSH3 0x96F JUMP JUMPDEST DUP3 MSTORE POP POP JUMP JUMPDEST PUSH1 0x0 PUSH1 0x40 DUP3 ADD SWAP1 POP PUSH3 0xD27 PUSH1 0x0 DUP4 ADD DUP6 PUSH3 0xBAA JUMP JUMPDEST PUSH3 0xD36 PUSH1 0x20 DUP4 ADD DUP5 PUSH3 0xCFF JUMP JUMPDEST SWAP4 SWAP3 POP POP POP JUMP JUMPDEST PUSH1 0x0 DUP2 ISZERO ISZERO SWAP1 POP SWAP2 SWAP1 POP JUMP JUMPDEST PUSH3 0xD54 DUP2 PUSH3 0xD3D JUMP JUMPDEST DUP2 EQ PUSH3 0xD60 JUMPI PUSH1 0x0 DUP1 REVERT JUMPDEST POP JUMP JUMPDEST PUSH1 0x0 DUP2 MLOAD SWAP1 POP PUSH3 0xD74 DUP2 PUSH3 0xD49 JUMP JUMPDEST SWAP3 SWAP2 POP POP JUMP JUMPDEST PUSH1 0x0 PUSH1 0x20 DUP3 DUP5 SUB SLT ISZERO PUSH3 0xD93 JUMPI PUSH3 0xD92 PUSH3 0x581 JUMP JUMPDEST JUMPDEST PUSH1 0x0 PUSH3 0xDA3 DUP5 DUP3 DUP6 ADD PUSH3 0xD63 JUMP JUMPDEST SWAP2 POP POP SWAP3 SWAP2 POP POP JUMP JUMPDEST PUSH1 0x0 DUP2 MLOAD SWAP1 POP SWAP2 SWAP1 POP JUMP JUMPDEST PUSH1 0x0 DUP2 SWAP1 POP SWAP3 SWAP2 POP POP JUMP JUMPDEST PUSH1 0x0 PUSH3 0xDCF DUP3 PUSH3 0xDAC JUMP JUMPDEST PUSH3 0xDDB DUP2 DUP6 PUSH3 0xDB7 JUMP JUMPDEST SWAP4 POP PUSH3 0xDED DUP2 DUP6 PUSH1 0x20 DUP7 ADD PUSH3 0x6D9 JUMP JUMPDEST DUP1 DUP5 ADD SWAP2 POP POP SWAP3 SWAP2 POP POP JUMP JUMPDEST PUSH1 0x0 PUSH3 0xE07 DUP3 DUP5 PUSH3 0xDC2 JUMP JUMPDEST SWAP2 POP DUP2 SWAP1 POP SWAP3 SWAP2 POP POP JUMP JUMPDEST PUSH3 0xE1D DUP2 PUSH3 0x96F JUMP JUMPDEST DUP2 EQ PUSH3 0xE29 JUMPI PUSH1 0x0 DUP1 REVERT JUMPDEST POP JUMP JUMPDEST PUSH1 0x0 DUP2 MLOAD SWAP1 POP PUSH3 0xE3D DUP2 PUSH3 0xE12 JUMP JUMPDEST SWAP3 SWAP2 POP POP JUMP JUMPDEST PUSH1 0x0 PUSH1 0x20 DUP3 DUP5 SUB SLT ISZERO PUSH3 0xE5C JUMPI PUSH3 0xE5B PUSH3 0x581 JUMP JUMPDEST JUMPDEST PUSH1 0x0 PUSH3 0xE6C DUP5 DUP3 DUP6 ADD PUSH3 0xE2C JUMP JUMPDEST SWAP2 POP POP SWAP3 SWAP2 POP POP JUMP JUMPDEST PUSH1 0x80 MLOAD PUSH1 0xA0 MLOAD PUSH2 0x2CA8 PUSH3 0xE9B PUSH1 0x0 CODECOPY PUSH1 0x0 PUSH2 0x90F ADD MSTORE PUSH1 0x0 PUSH2 0xC8E ADD MSTORE PUSH2 0x2CA8 PUSH1 0x0 RETURN INVALID PUSH1 0x80 PUSH1 0x40 MSTORE CALLVALUE DUP1 ISZERO PUSH2 0x10 JUMPI PUSH1 0x0 DUP1 REVERT JUMPDEST POP PUSH1 0x4 CALLDATASIZE LT PUSH2 0x1E5 JUMPI PUSH1 0x0 CALLDATALOAD PUSH1 0xE0 SHR DUP1 PUSH4 0x715018A6 GT PUSH2 0x10F JUMPI DUP1 PUSH4 0xBA087652 GT PUSH2 0xA2 JUMPI DUP1 PUSH4 0xD905777E GT PUSH2 0x71 JUMPI DUP1 PUSH4 0xD905777E EQ PUSH2 0x61E JUMPI DUP1 PUSH4 0xDD62ED3E EQ PUSH2 0x64E JUMPI DUP1 PUSH4 0xEF8B30F7 EQ PUSH2 0x67E JUMPI DUP1 PUSH4 0xF2FDE38B EQ PUSH2 0x6AE JUMPI PUSH2 0x1E5 JUMP JUMPDEST DUP1 PUSH4 0xBA087652 EQ PUSH2 0x55E JUMPI DUP1 PUSH4 0xC63D75B6 EQ PUSH2 0x58E JUMPI DUP1 PUSH4 0xC6E6F592 EQ PUSH2 0x5BE JUMPI DUP1 PUSH4 0xCE96CB77 EQ PUSH2 0x5EE JUMPI PUSH2 0x1E5 JUMP JUMPDEST DUP1 PUSH4 0xA8C62E76 GT PUSH2 0xDE JUMPI DUP1 PUSH4 0xA8C62E76 EQ PUSH2 0x4B0 JUMPI DUP1 PUSH4 0xA9059CBB EQ PUSH2 0x4CE JUMPI DUP1 PUSH4 0xB3D7F6B9 EQ PUSH2 0x4FE JUMPI DUP1 PUSH4 0xB460AF94 EQ PUSH2 0x52E JUMPI PUSH2 0x1E5 JUMP JUMPDEST DUP1 PUSH4 0x715018A6 EQ PUSH2 0x43A JUMPI DUP1 PUSH4 0x8DA5CB5B EQ PUSH2 0x444 JUMPI DUP1 PUSH4 0x94BF804D EQ PUSH2 0x462 JUMPI DUP1 PUSH4 0x95D89B41 EQ PUSH2 0x492 JUMPI PUSH2 0x1E5 JUMP JUMPDEST DUP1 PUSH4 0x313CE567 GT PUSH2 0x187 JUMPI DUP1 PUSH4 0x465FC5D2 GT PUSH2 0x156 JUMPI DUP1 PUSH4 0x465FC5D2 EQ PUSH2 0x38C JUMPI DUP1 PUSH4 0x4CDAD506 EQ PUSH2 0x3AA JUMPI DUP1 PUSH4 0x6E553F65 EQ PUSH2 0x3DA JUMPI DUP1 PUSH4 0x70A08231 EQ PUSH2 0x40A JUMPI PUSH2 0x1E5 JUMP JUMPDEST DUP1 PUSH4 0x313CE567 EQ PUSH2 0x304 JUMPI DUP1 PUSH4 0x33A100CA EQ PUSH2 0x322 JUMPI DUP1 PUSH4 0x38D52E0F EQ PUSH2 0x33E JUMPI DUP1 PUSH4 0x402D267D EQ PUSH2 0x35C JUMPI PUSH2 0x1E5 JUMP JUMPDEST DUP1 PUSH4 0x95EA7B3 GT PUSH2 0x1C3 JUMPI DUP1 PUSH4 0x95EA7B3 EQ PUSH2 0x256 JUMPI DUP1 PUSH4 0xA28A477 EQ PUSH2 0x286 JUMPI DUP1 PUSH4 0x18160DDD EQ PUSH2 0x2B6 JUMPI DUP1 PUSH4 0x23B872DD EQ PUSH2 0x2D4 JUMPI PUSH2 0x1E5 JUMP JUMPDEST DUP1 PUSH4 0x1E1D114 EQ PUSH2 0x1EA JUMPI DUP1 PUSH4 0x6FDDE03 EQ PUSH2 0x208 JUMPI DUP1 PUSH4 0x7A2D13A EQ PUSH2 0x226 JUMPI JUMPDEST PUSH1 0x0 DUP1 REVERT JUMPDEST PUSH2 0x1F2 PUSH2 0x6CA JUMP JUMPDEST PUSH1 0x40 MLOAD PUSH2 0x1FF SWAP2 SWAP1 PUSH2 0x219F JUMP JUMPDEST PUSH1 0x40 MLOAD DUP1 SWAP2 SUB SWAP1 RETURN JUMPDEST PUSH2 0x210 PUSH2 0x7ED JUMP JUMPDEST PUSH1 0x40 MLOAD PUSH2 0x21D SWAP2 SWAP1 PUSH2 0x224A JUMP JUMPDEST PUSH1 0x40 MLOAD DUP1 SWAP2 SUB SWAP1 RETURN JUMPDEST PUSH2 0x240 PUSH1 0x4 DUP1 CALLDATASIZE SUB DUP2 ADD SWAP1 PUSH2 0x23B SWAP2 SWAP1 PUSH2 0x229D JUMP JUMPDEST PUSH2 0x87F JUMP JUMPDEST PUSH1 0x40 MLOAD PUSH2 0x24D SWAP2 SWAP1 PUSH2 0x219F JUMP JUMPDEST PUSH1 0x40 MLOAD DUP1 SWAP2 SUB SWAP1 RETURN JUMPDEST PUSH2 0x270 PUSH1 0x4 DUP1 CALLDATASIZE SUB DUP2 ADD SWAP1 PUSH2 0x26B SWAP2 SWAP1 PUSH2 0x2328 JUMP JUMPDEST PUSH2 0x893 JUMP JUMPDEST PUSH1 0x40 MLOAD PUSH2 0x27D SWAP2 SWAP1 PUSH2 0x2383 JUMP JUMPDEST PUSH1 0x40 MLOAD DUP1 SWAP2 SUB SWAP1 RETURN JUMPDEST PUSH2 0x2A0 PUSH1 0x4 DUP1 CALLDATASIZE SUB DUP2 ADD SWAP1 PUSH2 0x29B SWAP2 SWAP1 PUSH2 0x229D JUMP JUMPDEST PUSH2 0x8B6 JUMP JUMPDEST PUSH1 0x40 MLOAD PUSH2 0x2AD SWAP2 SWAP1 PUSH2 0x219F JUMP JUMPDEST PUSH1 0x40 MLOAD DUP1 SWAP2 SUB SWAP1 RETURN JUMPDEST PUSH2 0x2BE PUSH2 0x8CA JUMP JUMPDEST PUSH1 0x40 MLOAD PUSH2 0x2CB SWAP2 SWAP1 PUSH2 0x219F JUMP JUMPDEST PUSH1 0x40 MLOAD DUP1 SWAP2 SUB SWAP1 RETURN JUMPDEST PUSH2 0x2EE PUSH1 0x4 DUP1 CALLDATASIZE SUB DUP2 ADD SWAP1 PUSH2 0x2E9 SWAP2 SWAP1 PUSH2 0x239E JUMP JUMPDEST PUSH2 0x8D4 JUMP JUMPDEST PUSH1 0x40 MLOAD PUSH2 0x2FB SWAP2 SWAP1 PUSH2 0x2383 JUMP JUMPDEST PUSH1 0x40 MLOAD DUP1 SWAP2 SUB SWAP1 RETURN JUMPDEST PUSH2 0x30C PUSH2 0x903 JUMP JUMPDEST PUSH1 0x40 MLOAD PUSH2 0x319 SWAP2 SWAP1 PUSH2 0x240D JUMP JUMPDEST PUSH1 0x40 MLOAD DUP1 SWAP2 SUB SWAP1 RETURN JUMPDEST PUSH2 0x33C PUSH1 0x4 DUP1 CALLDATASIZE SUB DUP2 ADD SWAP1 PUSH2 0x337 SWAP2 SWAP1 PUSH2 0x2466 JUMP JUMPDEST PUSH2 0x93D JUMP JUMPDEST STOP JUMPDEST PUSH2 0x346 PUSH2 0xC8A JUMP JUMPDEST PUSH1 0x40 MLOAD PUSH2 0x353 SWAP2 SWAP1 PUSH2 0x24A2 JUMP JUMPDEST PUSH1 0x40 MLOAD DUP1 SWAP2 SUB SWAP1 RETURN JUMPDEST PUSH2 0x376 PUSH1 0x4 DUP1 CALLDATASIZE SUB DUP2 ADD SWAP1 PUSH2 0x371 SWAP2 SWAP1 PUSH2 0x24BD JUMP JUMPDEST PUSH2 0xCB2 JUMP JUMPDEST PUSH1 0x40 MLOAD PUSH2 0x383 SWAP2 SWAP1 PUSH2 0x219F JUMP JUMPDEST PUSH1 0x40 MLOAD DUP1 SWAP2 SUB SWAP1 RETURN JUMPDEST PUSH2 0x394 PUSH2 0xCDC JUMP JUMPDEST PUSH1 0x40 MLOAD PUSH2 0x3A1 SWAP2 SWAP1 PUSH2 0x24A2 JUMP JUMPDEST PUSH1 0x40 MLOAD DUP1 SWAP2 SUB SWAP1 RETURN JUMPDEST PUSH2 0x3C4 PUSH1 0x4 DUP1 CALLDATASIZE SUB DUP2 ADD SWAP1 PUSH2 0x3BF SWAP2 SWAP1 PUSH2 0x229D JUMP JUMPDEST PUSH2 0xD02 JUMP JUMPDEST PUSH1 0x40 MLOAD PUSH2 0x3D1 SWAP2 SWAP1 PUSH2 0x219F JUMP JUMPDEST PUSH1 0x40 MLOAD DUP1 SWAP2 SUB SWAP1 RETURN JUMPDEST PUSH2 0x3F4 PUSH1 0x4 DUP1 CALLDATASIZE SUB DUP2 ADD SWAP1 PUSH2 0x3EF SWAP2 SWAP1 PUSH2 0x24EA JUMP JUMPDEST PUSH2 0xD16 JUMP JUMPDEST PUSH1 0x40 MLOAD PUSH2 0x401 SWAP2 SWAP1 PUSH2 0x219F JUMP JUMPDEST PUSH1 0x40 MLOAD DUP1 SWAP2 SUB SWAP1 RETURN JUMPDEST PUSH2 0x424 PUSH1 0x4 DUP1 CALLDATASIZE SUB DUP2 ADD SWAP1 PUSH2 0x41F SWAP2 SWAP1 PUSH2 0x24BD JUMP JUMPDEST PUSH2 0xD98 JUMP JUMPDEST PUSH1 0x40 MLOAD PUSH2 0x431 SWAP2 SWAP1 PUSH2 0x219F JUMP JUMPDEST PUSH1 0x40 MLOAD DUP1 SWAP2 SUB SWAP1 RETURN JUMPDEST PUSH2 0x442 PUSH2 0xDE0 JUMP JUMPDEST STOP JUMPDEST PUSH2 0x44C PUSH2 0xDF4 JUMP JUMPDEST PUSH1 0x40 MLOAD PUSH2 0x459 SWAP2 SWAP1 PUSH2 0x24A2 JUMP JUMPDEST PUSH1 0x40 MLOAD DUP1 SWAP2 SUB SWAP1 RETURN JUMPDEST PUSH2 0x47C PUSH1 0x4 DUP1 CALLDATASIZE SUB DUP2 ADD SWAP1 PUSH2 0x477 SWAP2 SWAP1 PUSH2 0x24EA JUMP JUMPDEST PUSH2 0xE1E JUMP JUMPDEST PUSH1 0x40 MLOAD PUSH2 0x489 SWAP2 SWAP1 PUSH2 0x219F JUMP JUMPDEST PUSH1 0x40 MLOAD DUP1 SWAP2 SUB SWAP1 RETURN JUMPDEST PUSH2 0x49A PUSH2 0xEA0 JUMP JUMPDEST PUSH1 0x40 MLOAD PUSH2 0x4A7 SWAP2 SWAP1 PUSH2 0x224A JUMP JUMPDEST PUSH1 0x40 MLOAD DUP1 SWAP2 SUB SWAP1 RETURN JUMPDEST PUSH2 0x4B8 PUSH2 0xF32 JUMP JUMPDEST PUSH1 0x40 MLOAD PUSH2 0x4C5 SWAP2 SWAP1 PUSH2 0x2589 JUMP JUMPDEST PUSH1 0x40 MLOAD DUP1 SWAP2 SUB SWAP1 RETURN JUMPDEST PUSH2 0x4E8 PUSH1 0x4 DUP1 CALLDATASIZE SUB DUP2 ADD SWAP1 PUSH2 0x4E3 SWAP2 SWAP1 PUSH2 0x2328 JUMP JUMPDEST PUSH2 0xF58 JUMP JUMPDEST PUSH1 0x40 MLOAD PUSH2 0x4F5 SWAP2 SWAP1 PUSH2 0x2383 JUMP JUMPDEST PUSH1 0x40 MLOAD DUP1 SWAP2 SUB SWAP1 RETURN JUMPDEST PUSH2 0x518 PUSH1 0x4 DUP1 CALLDATASIZE SUB DUP2 ADD SWAP1 PUSH2 0x513 SWAP2 SWAP1 PUSH2 0x229D JUMP JUMPDEST PUSH2 0xF7B JUMP JUMPDEST PUSH1 0x40 MLOAD PUSH2 0x525 SWAP2 SWAP1 PUSH2 0x219F JUMP JUMPDEST PUSH1 0x40 MLOAD DUP1 SWAP2 SUB SWAP1 RETURN JUMPDEST PUSH2 0x548 PUSH1 0x4 DUP1 CALLDATASIZE SUB DUP2 ADD SWAP1 PUSH2 0x543 SWAP2 SWAP1 PUSH2 0x25A4 JUMP JUMPDEST PUSH2 0xF8F JUMP JUMPDEST PUSH1 0x40 MLOAD PUSH2 0x555 SWAP2 SWAP1 PUSH2 0x219F JUMP JUMPDEST PUSH1 0x40 MLOAD DUP1 SWAP2 SUB SWAP1 RETURN JUMPDEST PUSH2 0x578 PUSH1 0x4 DUP1 CALLDATASIZE SUB DUP2 ADD SWAP1 PUSH2 0x573 SWAP2 SWAP1 PUSH2 0x25A4 JUMP JUMPDEST PUSH2 0x1013 JUMP JUMPDEST PUSH1 0x40 MLOAD PUSH2 0x585 SWAP2 SWAP1 PUSH2 0x219F JUMP JUMPDEST PUSH1 0x40 MLOAD DUP1 SWAP2 SUB SWAP1 RETURN JUMPDEST PUSH2 0x5A8 PUSH1 0x4 DUP1 CALLDATASIZE SUB DUP2 ADD SWAP1 PUSH2 0x5A3 SWAP2 SWAP1 PUSH2 0x24BD JUMP JUMPDEST PUSH2 0x1097 JUMP JUMPDEST PUSH1 0x40 MLOAD PUSH2 0x5B5 SWAP2 SWAP1 PUSH2 0x219F JUMP JUMPDEST PUSH1 0x40 MLOAD DUP1 SWAP2 SUB SWAP1 RETURN JUMPDEST PUSH2 0x5D8 PUSH1 0x4 DUP1 CALLDATASIZE SUB DUP2 ADD SWAP1 PUSH2 0x5D3 SWAP2 SWAP1 PUSH2 0x229D JUMP JUMPDEST PUSH2 0x10C1 JUMP JUMPDEST PUSH1 0x40 MLOAD PUSH2 0x5E5 SWAP2 SWAP1 PUSH2 0x219F JUMP JUMPDEST PUSH1 0x40 MLOAD DUP1 SWAP2 SUB SWAP1 RETURN JUMPDEST PUSH2 0x608 PUSH1 0x4 DUP1 CALLDATASIZE SUB DUP2 ADD SWAP1 PUSH2 0x603 SWAP2 SWAP1 PUSH2 0x24BD JUMP JUMPDEST PUSH2 0x10D5 JUMP JUMPDEST PUSH1 0x40 MLOAD PUSH2 0x615 SWAP2 SWAP1 PUSH2 0x219F JUMP JUMPDEST PUSH1 0x40 MLOAD DUP1 SWAP2 SUB SWAP1 RETURN JUMPDEST PUSH2 0x638 PUSH1 0x4 DUP1 CALLDATASIZE SUB DUP2 ADD SWAP1 PUSH2 0x633 SWAP2 SWAP1 PUSH2 0x24BD JUMP JUMPDEST PUSH2 0x10F1 JUMP JUMPDEST PUSH1 0x40 MLOAD PUSH2 0x645 SWAP2 SWAP1 PUSH2 0x219F JUMP JUMPDEST PUSH1 0x40 MLOAD DUP1 SWAP2 SUB SWAP1 RETURN JUMPDEST PUSH2 0x668 PUSH1 0x4 DUP1 CALLDATASIZE SUB DUP2 ADD SWAP1 PUSH2 0x663 SWAP2 SWAP1 PUSH2 0x25F7 JUMP JUMPDEST PUSH2 0x1103 JUMP JUMPDEST PUSH1 0x40 MLOAD PUSH2 0x675 SWAP2 SWAP1 PUSH2 0x219F JUMP JUMPDEST PUSH1 0x40 MLOAD DUP1 SWAP2 SUB SWAP1 RETURN JUMPDEST PUSH2 0x698 PUSH1 0x4 DUP1 CALLDATASIZE SUB DUP2 ADD SWAP1 PUSH2 0x693 SWAP2 SWAP1 PUSH2 0x229D JUMP JUMPDEST PUSH2 0x118A JUMP JUMPDEST PUSH1 0x40 MLOAD PUSH2 0x6A5 SWAP2 SWAP1 PUSH2 0x219F JUMP JUMPDEST PUSH1 0x40 MLOAD DUP1 SWAP2 SUB SWAP1 RETURN JUMPDEST PUSH2 0x6C8 PUSH1 0x4 DUP1 CALLDATASIZE SUB DUP2 ADD SWAP1 PUSH2 0x6C3 SWAP2 SWAP1 PUSH2 0x24BD JUMP JUMPDEST PUSH2 0x119E JUMP JUMPDEST STOP JUMPDEST PUSH1 0x0 PUSH2 0x6D4 PUSH2 0xC8A JUMP JUMPDEST PUSH20 0xFFFFFFFFFFFFFFFFFFFFFFFFFFFFFFFFFFFFFFFF AND PUSH4 0x70A08231 ADDRESS PUSH1 0x40 MLOAD DUP3 PUSH4 0xFFFFFFFF AND PUSH1 0xE0 SHL DUP2 MSTORE PUSH1 0x4 ADD PUSH2 0x70C SWAP2 SWAP1 PUSH2 0x24A2 JUMP JUMPDEST PUSH1 0x20 PUSH1 0x40 MLOAD DUP1 DUP4 SUB DUP2 DUP7 GAS STATICCALL ISZERO DUP1 ISZERO PUSH2 0x729 JUMPI RETURNDATASIZE PUSH1 0x0 DUP1 RETURNDATACOPY RETURNDATASIZE PUSH1 0x0 REVERT JUMPDEST POP POP POP POP PUSH1 0x40 MLOAD RETURNDATASIZE PUSH1 0x1F NOT PUSH1 0x1F DUP3 ADD AND DUP3 ADD DUP1 PUSH1 0x40 MSTORE POP DUP2 ADD SWAP1 PUSH2 0x74D SWAP2 SWAP1 PUSH2 0x264C JUMP JUMPDEST PUSH1 0x6 PUSH1 0x0 SWAP1 SLOAD SWAP1 PUSH2 0x100 EXP SWAP1 DIV PUSH20 0xFFFFFFFFFFFFFFFFFFFFFFFFFFFFFFFFFFFFFFFF AND PUSH20 0xFFFFFFFFFFFFFFFFFFFFFFFFFFFFFFFFFFFFFFFF AND PUSH4 0x1E1D114 PUSH1 0x40 MLOAD DUP2 PUSH4 0xFFFFFFFF AND PUSH1 0xE0 SHL DUP2 MSTORE PUSH1 0x4 ADD PUSH1 0x20 PUSH1 0x40 MLOAD DUP1 DUP4 SUB DUP2 DUP7 GAS STATICCALL ISZERO DUP1 ISZERO PUSH2 0x7BA JUMPI RETURNDATASIZE PUSH1 0x0 DUP1 RETURNDATACOPY RETURNDATASIZE PUSH1 0x0 REVERT JUMPDEST POP POP POP POP PUSH1 0x40 MLOAD RETURNDATASIZE PUSH1 0x1F NOT PUSH1 0x1F DUP3 ADD AND DUP3 ADD DUP1 PUSH1 0x40 MSTORE POP DUP2 ADD SWAP1 PUSH2 0x7DE SWAP2 SWAP1 PUSH2 0x264C JUMP JUMPDEST PUSH2 0x7E8 SWAP2 SWAP1 PUSH2 0x26A8 JUMP JUMPDEST SWAP1 POP SWAP1 JUMP JUMPDEST PUSH1 0x60 PUSH1 0x3 DUP1 SLOAD PUSH2 0x7FC SWAP1 PUSH2 0x270B JUMP JUMPDEST DUP1 PUSH1 0x1F ADD PUSH1 0x20 DUP1 SWAP2 DIV MUL PUSH1 0x20 ADD PUSH1 0x40 MLOAD SWAP1 DUP2 ADD PUSH1 0x40 MSTORE DUP1 SWAP3 SWAP2 SWAP1 DUP2 DUP2 MSTORE PUSH1 0x20 ADD DUP3 DUP1 SLOAD PUSH2 0x828 SWAP1 PUSH2 0x270B JUMP JUMPDEST DUP1 ISZERO PUSH2 0x875 JUMPI DUP1 PUSH1 0x1F LT PUSH2 0x84A JUMPI PUSH2 0x100 DUP1 DUP4 SLOAD DIV MUL DUP4 MSTORE SWAP2 PUSH1 0x20 ADD SWAP2 PUSH2 0x875 JUMP JUMPDEST DUP3 ADD SWAP2 SWAP1 PUSH1 0x0 MSTORE PUSH1 0x20 PUSH1 0x0 KECCAK256 SWAP1 JUMPDEST DUP2 SLOAD DUP2 MSTORE SWAP1 PUSH1 0x1 ADD SWAP1 PUSH1 0x20 ADD DUP1 DUP4 GT PUSH2 0x858 JUMPI DUP3 SWAP1 SUB PUSH1 0x1F AND DUP3 ADD SWAP2 JUMPDEST POP POP POP POP POP SWAP1 POP SWAP1 JUMP JUMPDEST PUSH1 0x0 PUSH2 0x88C DUP3 PUSH1 0x0 PUSH2 0x1224 JUMP JUMPDEST SWAP1 POP SWAP2 SWAP1 POP JUMP JUMPDEST PUSH1 0x0 DUP1 PUSH2 0x89E PUSH2 0x127D JUMP JUMPDEST SWAP1 POP PUSH2 0x8AB DUP2 DUP6 DUP6 PUSH2 0x1285 JUMP JUMPDEST PUSH1 0x1 SWAP2 POP POP SWAP3 SWAP2 POP POP JUMP JUMPDEST PUSH1 0x0 PUSH2 0x8C3 DUP3 PUSH1 0x1 PUSH2 0x1297 JUMP JUMPDEST SWAP1 POP SWAP2 SWAP1 POP JUMP JUMPDEST PUSH1 0x0 PUSH1 0x2 SLOAD SWAP1 POP SWAP1 JUMP JUMPDEST PUSH1 0x0 DUP1 PUSH2 0x8DF PUSH2 0x127D JUMP JUMPDEST SWAP1 POP PUSH2 0x8EC DUP6 DUP3 DUP6 PUSH2 0x12F0 JUMP JUMPDEST PUSH2 0x8F7 DUP6 DUP6 DUP6 PUSH2 0x1385 JUMP JUMPDEST PUSH1 0x1 SWAP2 POP POP SWAP4 SWAP3 POP POP POP JUMP JUMPDEST PUSH1 0x0 PUSH2 0x90D PUSH2 0x1479 JUMP JUMPDEST PUSH32 0x0 PUSH2 0x938 SWAP2 SWAP1 PUSH2 0x273C JUMP JUMPDEST SWAP1 POP SWAP1 JUMP JUMPDEST PUSH2 0x945 PUSH2 0x147E JUMP JUMPDEST PUSH1 0x0 PUSH20 0xFFFFFFFFFFFFFFFFFFFFFFFFFFFFFFFFFFFFFFFF AND DUP2 PUSH20 0xFFFFFFFFFFFFFFFFFFFFFFFFFFFFFFFFFFFFFFFF AND SUB PUSH2 0x9B4 JUMPI PUSH1 0x40 MLOAD PUSH32 0x8C379A000000000000000000000000000000000000000000000000000000000 DUP2 MSTORE PUSH1 0x4 ADD PUSH2 0x9AB SWAP1 PUSH2 0x27BD JUMP JUMPDEST PUSH1 0x40 MLOAD DUP1 SWAP2 SUB SWAP1 REVERT JUMPDEST PUSH2 0x9BC PUSH2 0xC8A JUMP JUMPDEST PUSH20 0xFFFFFFFFFFFFFFFFFFFFFFFFFFFFFFFFFFFFFFFF AND DUP2 PUSH20 0xFFFFFFFFFFFFFFFFFFFFFFFFFFFFFFFFFFFFFFFF AND PUSH4 0x38D52E0F PUSH1 0x40 MLOAD DUP2 PUSH4 0xFFFFFFFF AND PUSH1 0xE0 SHL DUP2 MSTORE PUSH1 0x4 ADD PUSH1 0x20 PUSH1 0x40 MLOAD DUP1 DUP4 SUB DUP2 DUP7 GAS STATICCALL ISZERO DUP1 ISZERO PUSH2 0xA1D JUMPI RETURNDATASIZE PUSH1 0x0 DUP1 RETURNDATACOPY RETURNDATASIZE PUSH1 0x0 REVERT JUMPDEST POP POP POP POP PUSH1 0x40 MLOAD RETURNDATASIZE PUSH1 0x1F NOT PUSH1 0x1F DUP3 ADD AND DUP3 ADD DUP1 PUSH1 0x40 MSTORE POP DUP2 ADD SWAP1 PUSH2 0xA41 SWAP2 SWAP1 PUSH2 0x281B JUMP JUMPDEST PUSH20 0xFFFFFFFFFFFFFFFFFFFFFFFFFFFFFFFFFFFFFFFF AND EQ PUSH2 0xA97 JUMPI PUSH1 0x40 MLOAD PUSH32 0x8C379A000000000000000000000000000000000000000000000000000000000 DUP2 MSTORE PUSH1 0x4 ADD PUSH2 0xA8E SWAP1 PUSH2 0x2894 JUMP JUMPDEST PUSH1 0x40 MLOAD DUP1 SWAP2 SUB SWAP1 REVERT JUMPDEST PUSH1 0x0 PUSH1 0x6 PUSH1 0x0 SWAP1 SLOAD SWAP1 PUSH2 0x100 EXP SWAP1 DIV PUSH20 0xFFFFFFFFFFFFFFFFFFFFFFFFFFFFFFFFFFFFFFFF AND SWAP1 POP PUSH2 0xAC6 PUSH2 0xC8A JUMP JUMPDEST PUSH20 0xFFFFFFFFFFFFFFFFFFFFFFFFFFFFFFFFFFFFFFFF AND PUSH4 0x95EA7B3 DUP3 PUSH1 0x0 PUSH1 0x40 MLOAD DUP4 PUSH4 0xFFFFFFFF AND PUSH1 0xE0 SHL DUP2 MSTORE PUSH1 0x4 ADD PUSH2 0xB01 SWAP3 SWAP2 SWAP1 PUSH2 0x28EF JUMP JUMPDEST PUSH1 0x20 PUSH1 0x40 MLOAD DUP1 DUP4 SUB DUP2 PUSH1 0x0 DUP8 GAS CALL ISZERO DUP1 ISZERO PUSH2 0xB20 JUMPI RETURNDATASIZE PUSH1 0x0 DUP1 RETURNDATACOPY RETURNDATASIZE PUSH1 0x0 REVERT JUMPDEST POP POP POP POP PUSH1 0x40 MLOAD RETURNDATASIZE PUSH1 0x1F NOT PUSH1 0x1F DUP3 ADD AND DUP3 ADD DUP1 PUSH1 0x40 MSTORE POP DUP2 ADD SWAP1 PUSH2 0xB44 SWAP2 SWAP1 PUSH2 0x2944 JUMP JUMPDEST POP DUP2 PUSH1 0x6 PUSH1 0x0 PUSH2 0x100 EXP DUP2 SLOAD DUP2 PUSH20 0xFFFFFFFFFFFFFFFFFFFFFFFFFFFFFFFFFFFFFFFF MUL NOT AND SWAP1 DUP4 PUSH20 0xFFFFFFFFFFFFFFFFFFFFFFFFFFFFFFFFFFFFFFFF AND MUL OR SWAP1 SSTORE POP PUSH2 0xB8E PUSH2 0xC8A JUMP JUMPDEST PUSH20 0xFFFFFFFFFFFFFFFFFFFFFFFFFFFFFFFFFFFFFFFF AND PUSH4 0x95EA7B3 DUP4 PUSH32 0xFFFFFFFFFFFFFFFFFFFFFFFFFFFFFFFFFFFFFFFFFFFFFFFFFFFFFFFFFFFFFFFF PUSH1 0x40 MLOAD DUP4 PUSH4 0xFFFFFFFF AND PUSH1 0xE0 SHL DUP2 MSTORE PUSH1 0x4 ADD PUSH2 0xBE8 SWAP3 SWAP2 SWAP1 PUSH2 0x2971 JUMP JUMPDEST PUSH1 0x20 PUSH1 0x40 MLOAD DUP1 DUP4 SUB DUP2 PUSH1 0x0 DUP8 GAS CALL ISZERO DUP1 ISZERO PUSH2 0xC07 JUMPI RETURNDATASIZE PUSH1 0x0 DUP1 RETURNDATACOPY RETURNDATASIZE PUSH1 0x0 REVERT JUMPDEST POP POP POP POP PUSH1 0x40 MLOAD RETURNDATASIZE PUSH1 0x1F NOT PUSH1 0x1F DUP3 ADD AND DUP3 ADD DUP1 PUSH1 0x40 MSTORE POP DUP2 ADD SWAP1 PUSH2 0xC2B SWAP2 SWAP1 PUSH2 0x2944 JUMP JUMPDEST POP DUP2 PUSH20 0xFFFFFFFFFFFFFFFFFFFFFFFFFFFFFFFFFFFFFFFF AND DUP2 PUSH20 0xFFFFFFFFFFFFFFFFFFFFFFFFFFFFFFFFFFFFFFFF AND PUSH32 0xE4CEC16B1A7E6B7979E923DA619A8B1E5FD0F0FB6E5C1CF647F350430EE61CA9 PUSH1 0x40 MLOAD PUSH1 0x40 MLOAD DUP1 SWAP2 SUB SWAP1 LOG3 POP POP JUMP JUMPDEST PUSH1 0x0 PUSH32 0x0 SWAP1 POP SWAP1 JUMP JUMPDEST PUSH1 0x0 PUSH32 0xFFFFFFFFFFFFFFFFFFFFFFFFFFFFFFFFFFFFFFFFFFFFFFFFFFFFFFFFFFFFFFFF SWAP1 POP SWAP2 SWAP1 POP JUMP JUMPDEST PUSH1 0x7 PUSH1 0x0 SWAP1 SLOAD SWAP1 PUSH2 0x100 EXP SWAP1 DIV PUSH20 0xFFFFFFFFFFFFFFFFFFFFFFFFFFFFFFFFFFFFFFFF AND DUP2 JUMP JUMPDEST PUSH1 0x0 PUSH2 0xD0F DUP3 PUSH1 0x0 PUSH2 0x1224 JUMP JUMPDEST SWAP1 POP SWAP2 SWAP1 POP JUMP JUMPDEST PUSH1 0x0 DUP1 PUSH2 0xD22 DUP4 PUSH2 0xCB2 JUMP JUMPDEST SWAP1 POP DUP1 DUP5 GT ISZERO PUSH2 0xD6D JUMPI DUP3 DUP5 DUP3 PUSH1 0x40 MLOAD PUSH32 0x79012FB200000000000000000000000000000000000000000000000000000000 DUP2 MSTORE PUSH1 0x4 ADD PUSH2 0xD64 SWAP4 SWAP3 SWAP2 SWAP1 PUSH2 0x299A JUMP JUMPDEST PUSH1 0x40 MLOAD DUP1 SWAP2 SUB SWAP1 REVERT JUMPDEST PUSH1 0x0 PUSH2 0xD78 DUP6 PUSH2 0x118A JUMP JUMPDEST SWAP1 POP PUSH2 0xD8D PUSH2 0xD85 PUSH2 0x127D JUMP JUMPDEST DUP6 DUP8 DUP5 PUSH2 0x1505 JUMP JUMPDEST DUP1 SWAP3 POP POP POP SWAP3 SWAP2 POP POP JUMP JUMPDEST PUSH1 0x0 DUP1 PUSH1 0x0 DUP4 PUSH20 0xFFFFFFFFFFFFFFFFFFFFFFFFFFFFFFFFFFFFFFFF AND PUSH20 0xFFFFFFFFFFFFFFFFFFFFFFFFFFFFFFFFFFFFFFFF AND DUP2 MSTORE PUSH1 0x20 ADD SWAP1 DUP2 MSTORE PUSH1 0x20 ADD PUSH1 0x0 KECCAK256 SLOAD SWAP1 POP SWAP2 SWAP1 POP JUMP JUMPDEST PUSH2 0xDE8 PUSH2 0x147E JUMP JUMPDEST PUSH2 0xDF2 PUSH1 0x0 PUSH2 0x15A4 JUMP JUMPDEST JUMP JUMPDEST PUSH1 0x0 PUSH1 0x5 PUSH1 0x0 SWAP1 SLOAD SWAP1 PUSH2 0x100 EXP SWAP1 DIV PUSH20 0xFFFFFFFFFFFFFFFFFFFFFFFFFFFFFFFFFFFFFFFF AND SWAP1 POP SWAP1 JUMP JUMPDEST PUSH1 0x0 DUP1 PUSH2 0xE2A DUP4 PUSH2 0x1097 JUMP JUMPDEST SWAP1 POP DUP1 DUP5 GT ISZERO PUSH2 0xE75 JUMPI DUP3 DUP5 DUP3 PUSH1 0x40 MLOAD PUSH32 0x284FF66700000000000000000000000000000000000000000000000000000000 DUP2 MSTORE PUSH1 0x4 ADD PUSH2 0xE6C SWAP4 SWAP3 SWAP2 SWAP1 PUSH2 0x299A JUMP JUMPDEST PUSH1 0x40 MLOAD DUP1 SWAP2 SUB SWAP1 REVERT JUMPDEST PUSH1 0x0 PUSH2 0xE80 DUP6 PUSH2 0xF7B JUMP JUMPDEST SWAP1 POP PUSH2 0xE95 PUSH2 0xE8D PUSH2 0x127D JUMP JUMPDEST DUP6 DUP4 DUP9 PUSH2 0x1505 JUMP JUMPDEST DUP1 SWAP3 POP POP POP SWAP3 SWAP2 POP POP JUMP JUMPDEST PUSH1 0x60 PUSH1 0x4 DUP1 SLOAD PUSH2 0xEAF SWAP1 PUSH2 0x270B JUMP JUMPDEST DUP1 PUSH1 0x1F ADD PUSH1 0x20 DUP1 SWAP2 DIV MUL PUSH1 0x20 ADD PUSH1 0x40 MLOAD SWAP1 DUP2 ADD PUSH1 0x40 MSTORE DUP1 SWAP3 SWAP2 SWAP1 DUP2 DUP2 MSTORE PUSH1 0x20 ADD DUP3 DUP1 SLOAD PUSH2 0xEDB SWAP1 PUSH2 0x270B JUMP JUMPDEST DUP1 ISZERO PUSH2 0xF28 JUMPI DUP1 PUSH1 0x1F LT PUSH2 0xEFD JUMPI PUSH2 0x100 DUP1 DUP4 SLOAD DIV MUL DUP4 MSTORE SWAP2 PUSH1 0x20 ADD SWAP2 PUSH2 0xF28 JUMP JUMPDEST DUP3 ADD SWAP2 SWAP1 PUSH1 0x0 MSTORE PUSH1 0x20 PUSH1 0x0 KECCAK256 SWAP1 JUMPDEST DUP2 SLOAD DUP2 MSTORE SWAP1 PUSH1 0x1 ADD SWAP1 PUSH1 0x20 ADD DUP1 DUP4 GT PUSH2 0xF0B JUMPI DUP3 SWAP1 SUB PUSH1 0x1F AND DUP3 ADD SWAP2 JUMPDEST POP POP POP POP POP SWAP1 POP SWAP1 JUMP JUMPDEST PUSH1 0x6 PUSH1 0x0 SWAP1 SLOAD SWAP1 PUSH2 0x100 EXP SWAP1 DIV PUSH20 0xFFFFFFFFFFFFFFFFFFFFFFFFFFFFFFFFFFFFFFFF AND DUP2 JUMP JUMPDEST PUSH1 0x0 DUP1 PUSH2 0xF63 PUSH2 0x127D JUMP JUMPDEST SWAP1 POP PUSH2 0xF70 DUP2 DUP6 DUP6 PUSH2 0x1385 JUMP JUMPDEST PUSH1 0x1 SWAP2 POP POP SWAP3 SWAP2 POP POP JUMP JUMPDEST PUSH1 0x0 PUSH2 0xF88 DUP3 PUSH1 0x1 PUSH2 0x1224 JUMP JUMPDEST SWAP1 POP SWAP2 SWAP1 POP JUMP JUMPDEST PUSH1 0x0 DUP1 PUSH2 0xF9B DUP4 PUSH2 0x10D5 JUMP JUMPDEST SWAP1 POP DUP1 DUP6 GT ISZERO PUSH2 0xFE6 JUMPI DUP3 DUP6 DUP3 PUSH1 0x40 MLOAD PUSH32 0xFE9CCEEC00000000000000000000000000000000000000000000000000000000 DUP2 MSTORE PUSH1 0x4 ADD PUSH2 0xFDD SWAP4 SWAP3 SWAP2 SWAP1 PUSH2 0x299A JUMP JUMPDEST PUSH1 0x40 MLOAD DUP1 SWAP2 SUB SWAP1 REVERT JUMPDEST PUSH1 0x0 PUSH2 0xFF1 DUP7 PUSH2 0x8B6 JUMP JUMPDEST SWAP1 POP PUSH2 0x1007 PUSH2 0xFFE PUSH2 0x127D JUMP JUMPDEST DUP7 DUP7 DUP10 DUP6 PUSH2 0x166A JUMP JUMPDEST DUP1 SWAP3 POP POP POP SWAP4 SWAP3 POP POP POP JUMP JUMPDEST PUSH1 0x0 DUP1 PUSH2 0x101F DUP4 PUSH2 0x10F1 JUMP JUMPDEST SWAP1 POP DUP1 DUP6 GT ISZERO PUSH2 0x106A JUMPI DUP3 DUP6 DUP3 PUSH1 0x40 MLOAD PUSH32 0xB94ABEEC00000000000000000000000000000000000000000000000000000000 DUP2 MSTORE PUSH1 0x4 ADD PUSH2 0x1061 SWAP4 SWAP3 SWAP2 SWAP1 PUSH2 0x299A JUMP JUMPDEST PUSH1 0x40 MLOAD DUP1 SWAP2 SUB SWAP1 REVERT JUMPDEST PUSH1 0x0 PUSH2 0x1075 DUP7 PUSH2 0xD02 JUMP JUMPDEST SWAP1 POP PUSH2 0x108B PUSH2 0x1082 PUSH2 0x127D JUMP JUMPDEST DUP7 DUP7 DUP5 DUP11 PUSH2 0x166A JUMP JUMPDEST DUP1 SWAP3 POP POP POP SWAP4 SWAP3 POP POP POP JUMP JUMPDEST PUSH1 0x0 PUSH32 0xFFFFFFFFFFFFFFFFFFFFFFFFFFFFFFFFFFFFFFFFFFFFFFFFFFFFFFFFFFFFFFFF SWAP1 POP SWAP2 SWAP1 POP JUMP JUMPDEST PUSH1 0x0 PUSH2 0x10CE DUP3 PUSH1 0x0 PUSH2 0x1297 JUMP JUMPDEST SWAP1 POP SWAP2 SWAP1 POP JUMP JUMPDEST PUSH1 0x0 PUSH2 0x10EA PUSH2 0x10E3 DUP4 PUSH2 0xD98 JUMP JUMPDEST PUSH1 0x0 PUSH2 0x1224 JUMP JUMPDEST SWAP1 POP SWAP2 SWAP1 POP JUMP JUMPDEST PUSH1 0x0 PUSH2 0x10FC DUP3 PUSH2 0xD98 JUMP JUMPDEST SWAP1 POP SWAP2 SWAP1 POP JUMP JUMPDEST PUSH1 0x0 PUSH1 0x1 PUSH1 0x0 DUP5 PUSH20 0xFFFFFFFFFFFFFFFFFFFFFFFFFFFFFFFFFFFFFFFF AND PUSH20 0xFFFFFFFFFFFFFFFFFFFFFFFFFFFFFFFFFFFFFFFF AND DUP2 MSTORE PUSH1 0x20 ADD SWAP1 DUP2 MSTORE PUSH1 0x20 ADD PUSH1 0x0 KECCAK256 PUSH1 0x0 DUP4 PUSH20 0xFFFFFFFFFFFFFFFFFFFFFFFFFFFFFFFFFFFFFFFF AND PUSH20 0xFFFFFFFFFFFFFFFFFFFFFFFFFFFFFFFFFFFFFFFF AND DUP2 MSTORE PUSH1 0x20 ADD SWAP1 DUP2 MSTORE PUSH1 0x20 ADD PUSH1 0x0 KECCAK256 SLOAD SWAP1 POP SWAP3 SWAP2 POP POP JUMP JUMPDEST PUSH1 0x0 PUSH2 0x1197 DUP3 PUSH1 0x0 PUSH2 0x1297 JUMP JUMPDEST SWAP1 POP SWAP2 SWAP1 POP JUMP JUMPDEST PUSH2 0x11A6 PUSH2 0x147E JUMP JUMPDEST PUSH1 0x0 PUSH20 0xFFFFFFFFFFFFFFFFFFFFFFFFFFFFFFFFFFFFFFFF AND DUP2 PUSH20 0xFFFFFFFFFFFFFFFFFFFFFFFFFFFFFFFFFFFFFFFF AND SUB PUSH2 0x1218 JUMPI PUSH1 0x0 PUSH1 0x40 MLOAD PUSH32 0x1E4FBDF700000000000000000000000000000000000000000000000000000000 DUP2 MSTORE PUSH1 0x4 ADD PUSH2 0x120F SWAP2 SWAP1 PUSH2 0x24A2 JUMP JUMPDEST PUSH1 0x40 MLOAD DUP1 SWAP2 SUB SWAP1 REVERT JUMPDEST PUSH2 0x1221 DUP2 PUSH2 0x15A4 JUMP JUMPDEST POP JUMP JUMPDEST PUSH1 0x0 PUSH2 0x1275 PUSH1 0x1 PUSH2 0x1233 PUSH2 0x6CA JUMP JUMPDEST PUSH2 0x123D SWAP2 SWAP1 PUSH2 0x26A8 JUMP JUMPDEST PUSH2 0x1245 PUSH2 0x1479 JUMP JUMPDEST PUSH1 0xA PUSH2 0x1251 SWAP2 SWAP1 PUSH2 0x2B04 JUMP JUMPDEST PUSH2 0x1259 PUSH2 0x8CA JUMP JUMPDEST PUSH2 0x1263 SWAP2 SWAP1 PUSH2 0x26A8 JUMP JUMPDEST DUP5 DUP7 PUSH2 0x17BD SWAP1 SWAP4 SWAP3 SWAP2 SWAP1 PUSH4 0xFFFFFFFF AND JUMP JUMPDEST SWAP1 POP SWAP3 SWAP2 POP POP JUMP JUMPDEST PUSH1 0x0 CALLER SWAP1 POP SWAP1 JUMP JUMPDEST PUSH2 0x1292 DUP4 DUP4 DUP4 PUSH1 0x1 PUSH2 0x180C JUMP JUMPDEST POP POP POP JUMP JUMPDEST PUSH1 0x0 PUSH2 0x12E8 PUSH2 0x12A4 PUSH2 0x1479 JUMP JUMPDEST PUSH1 0xA PUSH2 0x12B0 SWAP2 SWAP1 PUSH2 0x2B04 JUMP JUMPDEST PUSH2 0x12B8 PUSH2 0x8CA JUMP JUMPDEST PUSH2 0x12C2 SWAP2 SWAP1 PUSH2 0x26A8 JUMP JUMPDEST PUSH1 0x1 PUSH2 0x12CC PUSH2 0x6CA JUMP JUMPDEST PUSH2 0x12D6 SWAP2 SWAP1 PUSH2 0x26A8 JUMP JUMPDEST DUP5 DUP7 PUSH2 0x17BD SWAP1 SWAP4 SWAP3 SWAP2 SWAP1 PUSH4 0xFFFFFFFF AND JUMP JUMPDEST SWAP1 POP SWAP3 SWAP2 POP POP JUMP JUMPDEST PUSH1 0x0 PUSH2 0x12FC DUP5 DUP5 PUSH2 0x1103 JUMP JUMPDEST SWAP1 POP PUSH32 0xFFFFFFFFFFFFFFFFFFFFFFFFFFFFFFFFFFFFFFFFFFFFFFFFFFFFFFFFFFFFFFFF DUP2 LT ISZERO PUSH2 0x137F JUMPI DUP2 DUP2 LT ISZERO PUSH2 0x136F JUMPI DUP3 DUP2 DUP4 PUSH1 0x40 MLOAD PUSH32 0xFB8F41B200000000000000000000000000000000000000000000000000000000 DUP2 MSTORE PUSH1 0x4 ADD PUSH2 0x1366 SWAP4 SWAP3 SWAP2 SWAP1 PUSH2 0x299A JUMP JUMPDEST PUSH1 0x40 MLOAD DUP1 SWAP2 SUB SWAP1 REVERT JUMPDEST PUSH2 0x137E DUP5 DUP5 DUP5 DUP5 SUB PUSH1 0x0 PUSH2 0x180C JUMP JUMPDEST JUMPDEST POP POP POP POP JUMP JUMPDEST PUSH1 0x0 PUSH20 0xFFFFFFFFFFFFFFFFFFFFFFFFFFFFFFFFFFFFFFFF AND DUP4 PUSH20 0xFFFFFFFFFFFFFFFFFFFFFFFFFFFFFFFFFFFFFFFF AND SUB PUSH2 0x13F7 JUMPI PUSH1 0x0 PUSH1 0x40 MLOAD PUSH32 0x96C6FD1E00000000000000000000000000000000000000000000000000000000 DUP2 MSTORE PUSH1 0x4 ADD PUSH2 0x13EE SWAP2 SWAP1 PUSH2 0x24A2 JUMP JUMPDEST PUSH1 0x40 MLOAD DUP1 SWAP2 SUB SWAP1 REVERT JUMPDEST PUSH1 0x0 PUSH20 0xFFFFFFFFFFFFFFFFFFFFFFFFFFFFFFFFFFFFFFFF AND DUP3 PUSH20 0xFFFFFFFFFFFFFFFFFFFFFFFFFFFFFFFFFFFFFFFF AND SUB PUSH2 0x1469 JUMPI PUSH1 0x0 PUSH1 0x40 MLOAD PUSH32 0xEC442F0500000000000000000000000000000000000000000000000000000000 DUP2 MSTORE PUSH1 0x4 ADD PUSH2 0x1460 SWAP2 SWAP1 PUSH2 0x24A2 JUMP JUMPDEST PUSH1 0x40 MLOAD DUP1 SWAP2 SUB SWAP1 REVERT JUMPDEST PUSH2 0x1474 DUP4 DUP4 DUP4 PUSH2 0x19E3 JUMP JUMPDEST POP POP POP JUMP JUMPDEST PUSH1 0x0 SWAP1 JUMP JUMPDEST PUSH2 0x1486 PUSH2 0x127D JUMP JUMPDEST PUSH20 0xFFFFFFFFFFFFFFFFFFFFFFFFFFFFFFFFFFFFFFFF AND PUSH2 0x14A4 PUSH2 0xDF4 JUMP JUMPDEST PUSH20 0xFFFFFFFFFFFFFFFFFFFFFFFFFFFFFFFFFFFFFFFF AND EQ PUSH2 0x1503 JUMPI PUSH2 0x14C7 PUSH2 0x127D JUMP JUMPDEST PUSH1 0x40 MLOAD PUSH32 0x118CDAA700000000000000000000000000000000000000000000000000000000 DUP2 MSTORE PUSH1 0x4 ADD PUSH2 0x14FA SWAP2 SWAP1 PUSH2 0x24A2 JUMP JUMPDEST PUSH1 0x40 MLOAD DUP1 SWAP2 SUB SWAP1 REVERT JUMPDEST JUMP JUMPDEST PUSH2 0x1511 DUP5 DUP5 DUP5 DUP5 PUSH2 0x1C08 JUMP JUMPDEST PUSH1 0x6 PUSH1 0x0 SWAP1 SLOAD SWAP1 PUSH2 0x100 EXP SWAP1 DIV PUSH20 0xFFFFFFFFFFFFFFFFFFFFFFFFFFFFFFFFFFFFFFFF AND PUSH20 0xFFFFFFFFFFFFFFFFFFFFFFFFFFFFFFFFFFFFFFFF AND PUSH4 0x2AFCF480 DUP4 PUSH1 0x40 MLOAD DUP3 PUSH4 0xFFFFFFFF AND PUSH1 0xE0 SHL DUP2 MSTORE PUSH1 0x4 ADD PUSH2 0x156C SWAP2 SWAP1 PUSH2 0x219F JUMP JUMPDEST PUSH1 0x0 PUSH1 0x40 MLOAD DUP1 DUP4 SUB DUP2 PUSH1 0x0 DUP8 DUP1 EXTCODESIZE ISZERO DUP1 ISZERO PUSH2 0x1586 JUMPI PUSH1 0x0 DUP1 REVERT JUMPDEST POP GAS CALL ISZERO DUP1 ISZERO PUSH2 0x159A JUMPI RETURNDATASIZE PUSH1 0x0 DUP1 RETURNDATACOPY RETURNDATASIZE PUSH1 0x0 REVERT JUMPDEST POP POP POP POP POP POP POP POP JUMP JUMPDEST PUSH1 0x0 PUSH1 0x5 PUSH1 0x0 SWAP1 SLOAD SWAP1 PUSH2 0x100 EXP SWAP1 DIV PUSH20 0xFFFFFFFFFFFFFFFFFFFFFFFFFFFFFFFFFFFFFFFF AND SWAP1 POP DUP2 PUSH1 0x5 PUSH1 0x0 PUSH2 0x100 EXP DUP2 SLOAD DUP2 PUSH20 0xFFFFFFFFFFFFFFFFFFFFFFFFFFFFFFFFFFFFFFFF MUL NOT AND SWAP1 DUP4 PUSH20 0xFFFFFFFFFFFFFFFFFFFFFFFFFFFFFFFFFFFFFFFF AND MUL OR SWAP1 SSTORE POP DUP2 PUSH20 0xFFFFFFFFFFFFFFFFFFFFFFFFFFFFFFFFFFFFFFFF AND DUP2 PUSH20 0xFFFFFFFFFFFFFFFFFFFFFFFFFFFFFFFFFFFFFFFF AND PUSH32 0x8BE0079C531659141344CD1FD0A4F28419497F9722A3DAAFE3B4186F6B6457E0 PUSH1 0x40 MLOAD PUSH1 0x40 MLOAD DUP1 SWAP2 SUB SWAP1 LOG3 POP POP JUMP JUMPDEST PUSH1 0x0 PUSH2 0x1674 PUSH2 0xC8A JUMP JUMPDEST PUSH20 0xFFFFFFFFFFFFFFFFFFFFFFFFFFFFFFFFFFFFFFFF AND PUSH4 0x70A08231 ADDRESS PUSH1 0x40 MLOAD DUP3 PUSH4 0xFFFFFFFF AND PUSH1 0xE0 SHL DUP2 MSTORE PUSH1 0x4 ADD PUSH2 0x16AC SWAP2 SWAP1 PUSH2 0x24A2 JUMP JUMPDEST PUSH1 0x20 PUSH1 0x40 MLOAD DUP1 DUP4 SUB DUP2 DUP7 GAS STATICCALL ISZERO DUP1 ISZERO PUSH2 0x16C9 JUMPI RETURNDATASIZE PUSH1 0x0 DUP1 RETURNDATACOPY RETURNDATASIZE PUSH1 0x0 REVERT JUMPDEST POP POP POP POP PUSH1 0x40 MLOAD RETURNDATASIZE PUSH1 0x1F NOT PUSH1 0x1F DUP3 ADD AND DUP3 ADD DUP1 PUSH1 0x40 MSTORE POP DUP2 ADD SWAP1 PUSH2 0x16ED SWAP2 SWAP1 PUSH2 0x264C JUMP JUMPDEST SWAP1 POP DUP1 DUP4 GT ISZERO PUSH2 0x17A8 JUMPI PUSH1 0x0 DUP2 DUP5 PUSH2 0x1705 SWAP2 SWAP1 PUSH2 0x2B4F JUMP JUMPDEST SWAP1 POP PUSH1 0x6 PUSH1 0x0 SWAP1 SLOAD SWAP1 PUSH2 0x100 EXP SWAP1 DIV PUSH20 0xFFFFFFFFFFFFFFFFFFFFFFFFFFFFFFFFFFFFFFFF AND PUSH20 0xFFFFFFFFFFFFFFFFFFFFFFFFFFFFFFFFFFFFFFFF AND PUSH4 0x8CA17995 DUP3 PUSH1 0x40 MLOAD DUP3 PUSH4 0xFFFFFFFF AND PUSH1 0xE0 SHL DUP2 MSTORE PUSH1 0x4 ADD PUSH2 0x1762 SWAP2 SWAP1 PUSH2 0x219F JUMP JUMPDEST PUSH1 0x20 PUSH1 0x40 MLOAD DUP1 DUP4 SUB DUP2 PUSH1 0x0 DUP8 GAS CALL ISZERO DUP1 ISZERO PUSH2 0x1781 JUMPI RETURNDATASIZE PUSH1 0x0 DUP1 RETURNDATACOPY RETURNDATASIZE PUSH1 0x0 REVERT JUMPDEST POP POP POP POP PUSH1 0x40 MLOAD RETURNDATASIZE PUSH1 0x1F NOT PUSH1 0x1F DUP3 ADD AND DUP3 ADD DUP1 PUSH1 0x40 MSTORE POP DUP2 ADD SWAP1 PUSH2 0x17A5 SWAP2 SWAP1 PUSH2 0x264C JUMP JUMPDEST POP POP JUMPDEST PUSH2 0x17B5 DUP7 DUP7 DUP7 DUP7 DUP7 PUSH2 0x1C92 JUMP JUMPDEST POP POP POP POP POP POP JUMP JUMPDEST PUSH1 0x0 PUSH2 0x17ED PUSH2 0x17CB DUP4 PUSH2 0x1D72 JUMP JUMPDEST DUP1 ISZERO PUSH2 0x17E8 JUMPI POP PUSH1 0x0 DUP5 DUP1 PUSH2 0x17E3 JUMPI PUSH2 0x17E2 PUSH2 0x2B83 JUMP JUMPDEST JUMPDEST DUP7 DUP9 MULMOD GT JUMPDEST PUSH2 0x1DA0 JUMP JUMPDEST PUSH2 0x17F8 DUP7 DUP7 DUP7 PUSH2 0x1DAC JUMP JUMPDEST PUSH2 0x1802 SWAP2 SWAP1 PUSH2 0x26A8 JUMP JUMPDEST SWAP1 POP SWAP5 SWAP4 POP POP POP POP JUMP JUMPDEST PUSH1 0x0 PUSH20 0xFFFFFFFFFFFFFFFFFFFFFFFFFFFFFFFFFFFFFFFF AND DUP5 PUSH20 0xFFFFFFFFFFFFFFFFFFFFFFFFFFFFFFFFFFFFFFFF AND SUB PUSH2 0x187E JUMPI PUSH1 0x0 PUSH1 0x40 MLOAD PUSH32 0xE602DF0500000000000000000000000000000000000000000000000000000000 DUP2 MSTORE PUSH1 0x4 ADD PUSH2 0x1875 SWAP2 SWAP1 PUSH2 0x24A2 JUMP JUMPDEST PUSH1 0x40 MLOAD DUP1 SWAP2 SUB SWAP1 REVERT JUMPDEST PUSH1 0x0 PUSH20 0xFFFFFFFFFFFFFFFFFFFFFFFFFFFFFFFFFFFFFFFF AND DUP4 PUSH20 0xFFFFFFFFFFFFFFFFFFFFFFFFFFFFFFFFFFFFFFFF AND SUB PUSH2 0x18F0 JUMPI PUSH1 0x0 PUSH1 0x40 MLOAD PUSH32 0x94280D6200000000000000000000000000000000000000000000000000000000 DUP2 MSTORE PUSH1 0x4 ADD PUSH2 0x18E7 SWAP2 SWAP1 PUSH2 0x24A2 JUMP JUMPDEST PUSH1 0x40 MLOAD DUP1 SWAP2 SUB SWAP1 REVERT JUMPDEST DUP2 PUSH1 0x1 PUSH1 0x0 DUP7 PUSH20 0xFFFFFFFFFFFFFFFFFFFFFFFFFFFFFFFFFFFFFFFF AND PUSH20 0xFFFFFFFFFFFFFFFFFFFFFFFFFFFFFFFFFFFFFFFF AND DUP2 MSTORE PUSH1 0x20 ADD SWAP1 DUP2 MSTORE PUSH1 0x20 ADD PUSH1 0x0 KECCAK256 PUSH1 0x0 DUP6 PUSH20 0xFFFFFFFFFFFFFFFFFFFFFFFFFFFFFFFFFFFFFFFF AND PUSH20 0xFFFFFFFFFFFFFFFFFFFFFFFFFFFFFFFFFFFFFFFF AND DUP2 MSTORE PUSH1 0x20 ADD SWAP1 DUP2 MSTORE PUSH1 0x20 ADD PUSH1 0x0 KECCAK256 DUP2 SWAP1 SSTORE POP DUP1 ISZERO PUSH2 0x19DD JUMPI DUP3 PUSH20 0xFFFFFFFFFFFFFFFFFFFFFFFFFFFFFFFFFFFFFFFF AND DUP5 PUSH20 0xFFFFFFFFFFFFFFFFFFFFFFFFFFFFFFFFFFFFFFFF AND PUSH32 0x8C5BE1E5EBEC7D5BD14F71427D1E84F3DD0314C0F7B2291E5B200AC8C7C3B925 DUP5 PUSH1 0x40 MLOAD PUSH2 0x19D4 SWAP2 SWAP1 PUSH2 0x219F JUMP JUMPDEST PUSH1 0x40 MLOAD DUP1 SWAP2 SUB SWAP1 LOG3 JUMPDEST POP POP POP POP JUMP JUMPDEST PUSH1 0x0 PUSH20 0xFFFFFFFFFFFFFFFFFFFFFFFFFFFFFFFFFFFFFFFF AND DUP4 PUSH20 0xFFFFFFFFFFFFFFFFFFFFFFFFFFFFFFFFFFFFFFFF AND SUB PUSH2 0x1A35 JUMPI DUP1 PUSH1 0x2 PUSH1 0x0 DUP3 DUP3 SLOAD PUSH2 0x1A29 SWAP2 SWAP1 PUSH2 0x26A8 JUMP JUMPDEST SWAP3 POP POP DUP2 SWAP1 SSTORE POP PUSH2 0x1B08 JUMP JUMPDEST PUSH1 0x0 DUP1 PUSH1 0x0 DUP6 PUSH20 0xFFFFFFFFFFFFFFFFFFFFFFFFFFFFFFFFFFFFFFFF AND PUSH20 0xFFFFFFFFFFFFFFFFFFFFFFFFFFFFFFFFFFFFFFFF AND DUP2 MSTORE PUSH1 0x20 ADD SWAP1 DUP2 MSTORE PUSH1 0x20 ADD PUSH1 0x0 KECCAK256 SLOAD SWAP1 POP DUP2 DUP2 LT ISZERO PUSH2 0x1AC1 JUMPI DUP4 DUP2 DUP4 PUSH1 0x40 MLOAD PUSH32 0xE450D38C00000000000000000000000000000000000000000000000000000000 DUP2 MSTORE PUSH1 0x4 ADD PUSH2 0x1AB8 SWAP4 SWAP3 SWAP2 SWAP1 PUSH2 0x299A JUMP JUMPDEST PUSH1 0x40 MLOAD DUP1 SWAP2 SUB SWAP1 REVERT JUMPDEST DUP2 DUP2 SUB PUSH1 0x0 DUP1 DUP7 PUSH20 0xFFFFFFFFFFFFFFFFFFFFFFFFFFFFFFFFFFFFFFFF AND PUSH20 0xFFFFFFFFFFFFFFFFFFFFFFFFFFFFFFFFFFFFFFFF AND DUP2 MSTORE PUSH1 0x20 ADD SWAP1 DUP2 MSTORE PUSH1 0x20 ADD PUSH1 0x0 KECCAK256 DUP2 SWAP1 SSTORE POP POP JUMPDEST PUSH1 0x0 PUSH20 0xFFFFFFFFFFFFFFFFFFFFFFFFFFFFFFFFFFFFFFFF AND DUP3 PUSH20 0xFFFFFFFFFFFFFFFFFFFFFFFFFFFFFFFFFFFFFFFF AND SUB PUSH2 0x1B51 JUMPI DUP1 PUSH1 0x2 PUSH1 0x0 DUP3 DUP3 SLOAD SUB SWAP3 POP POP DUP2 SWAP1 SSTORE POP PUSH2 0x1B9E JUMP JUMPDEST DUP1 PUSH1 0x0 DUP1 DUP5 PUSH20 0xFFFFFFFFFFFFFFFFFFFFFFFFFFFFFFFFFFFFFFFF AND PUSH20 0xFFFFFFFFFFFFFFFFFFFFFFFFFFFFFFFFFFFFFFFF AND DUP2 MSTORE PUSH1 0x20 ADD SWAP1 DUP2 MSTORE PUSH1 0x20 ADD PUSH1 0x0 KECCAK256 PUSH1 0x0 DUP3 DUP3 SLOAD ADD SWAP3 POP POP DUP2 SWAP1 SSTORE POP JUMPDEST DUP2 PUSH20 0xFFFFFFFFFFFFFFFFFFFFFFFFFFFFFFFFFFFFFFFF AND DUP4 PUSH20 0xFFFFFFFFFFFFFFFFFFFFFFFFFFFFFFFFFFFFFFFF AND PUSH32 0xDDF252AD1BE2C89B69C2B068FC378DAA952BA7F163C4A11628F55A4DF523B3EF DUP4 PUSH1 0x40 MLOAD PUSH2 0x1BFB SWAP2 SWAP1 PUSH2 0x219F JUMP JUMPDEST PUSH1 0x40 MLOAD DUP1 SWAP2 SUB SWAP1 LOG3 POP POP POP JUMP JUMPDEST PUSH2 0x1C1B PUSH2 0x1C13 PUSH2 0xC8A JUMP JUMPDEST DUP6 ADDRESS DUP6 PUSH2 0x1E94 JUMP JUMPDEST PUSH2 0x1C25 DUP4 DUP3 PUSH2 0x1F16 JUMP JUMPDEST DUP3 PUSH20 0xFFFFFFFFFFFFFFFFFFFFFFFFFFFFFFFFFFFFFFFF AND DUP5 PUSH20 0xFFFFFFFFFFFFFFFFFFFFFFFFFFFFFFFFFFFFFFFF AND PUSH32 0xDCBC1C05240F31FF3AD067EF1EE35CE4997762752E3A095284754544F4C709D7 DUP5 DUP5 PUSH1 0x40 MLOAD PUSH2 0x1C84 SWAP3 SWAP2 SWAP1 PUSH2 0x2BB2 JUMP JUMPDEST PUSH1 0x40 MLOAD DUP1 SWAP2 SUB SWAP1 LOG3 POP POP POP POP JUMP JUMPDEST DUP3 PUSH20 0xFFFFFFFFFFFFFFFFFFFFFFFFFFFFFFFFFFFFFFFF AND DUP6 PUSH20 0xFFFFFFFFFFFFFFFFFFFFFFFFFFFFFFFFFFFFFFFF AND EQ PUSH2 0x1CD1 JUMPI PUSH2 0x1CD0 DUP4 DUP7 DUP4 PUSH2 0x12F0 JUMP JUMPDEST JUMPDEST PUSH2 0x1CDB DUP4 DUP3 PUSH2 0x1F98 JUMP JUMPDEST PUSH2 0x1CED PUSH2 0x1CE6 PUSH2 0xC8A JUMP JUMPDEST DUP6 DUP5 PUSH2 0x201A JUMP JUMPDEST DUP3 PUSH20 0xFFFFFFFFFFFFFFFFFFFFFFFFFFFFFFFFFFFFFFFF AND DUP5 PUSH20 0xFFFFFFFFFFFFFFFFFFFFFFFFFFFFFFFFFFFFFFFF AND DUP7 PUSH20 0xFFFFFFFFFFFFFFFFFFFFFFFFFFFFFFFFFFFFFFFF AND PUSH32 0xFBDE797D201C681B91056529119E0B02407C7BB96A4A2C75C01FC9667232C8DB DUP6 DUP6 PUSH1 0x40 MLOAD PUSH2 0x1D63 SWAP3 SWAP2 SWAP1 PUSH2 0x2BB2 JUMP JUMPDEST PUSH1 0x40 MLOAD DUP1 SWAP2 SUB SWAP1 LOG4 POP POP POP POP POP JUMP JUMPDEST PUSH1 0x0 PUSH1 0x1 PUSH1 0x2 DUP4 PUSH1 0x3 DUP2 GT ISZERO PUSH2 0x1D8B JUMPI PUSH2 0x1D8A PUSH2 0x2BDB JUMP JUMPDEST JUMPDEST PUSH2 0x1D95 SWAP2 SWAP1 PUSH2 0x2C0A JUMP JUMPDEST PUSH1 0xFF AND EQ SWAP1 POP SWAP2 SWAP1 POP JUMP JUMPDEST PUSH1 0x0 DUP2 ISZERO ISZERO SWAP1 POP SWAP2 SWAP1 POP JUMP JUMPDEST PUSH1 0x0 DUP1 PUSH1 0x0 PUSH2 0x1DBB DUP7 DUP7 PUSH2 0x2099 JUMP JUMPDEST SWAP2 POP SWAP2 POP PUSH1 0x0 DUP3 SUB PUSH2 0x1DE1 JUMPI DUP4 DUP2 DUP2 PUSH2 0x1DD7 JUMPI PUSH2 0x1DD6 PUSH2 0x2B83 JUMP JUMPDEST JUMPDEST DIV SWAP3 POP POP POP PUSH2 0x1E8D JUMP JUMPDEST DUP2 DUP5 GT PUSH2 0x1E01 JUMPI PUSH2 0x1E00 PUSH2 0x1DFB PUSH1 0x0 DUP7 EQ PUSH1 0x12 PUSH1 0x11 PUSH2 0x20B8 JUMP JUMPDEST PUSH2 0x20D2 JUMP JUMPDEST JUMPDEST PUSH1 0x0 DUP5 DUP7 DUP9 MULMOD SWAP1 POP DUP2 DUP2 GT DUP4 SUB SWAP3 POP DUP1 DUP3 SUB SWAP2 POP PUSH1 0x0 DUP6 PUSH1 0x0 SUB DUP7 AND SWAP1 POP DUP1 DUP7 DIV SWAP6 POP DUP1 DUP4 DIV SWAP3 POP PUSH1 0x1 DUP2 DUP3 PUSH1 0x0 SUB DIV ADD SWAP1 POP DUP1 DUP5 MUL DUP4 OR SWAP3 POP PUSH1 0x0 PUSH1 0x2 DUP8 PUSH1 0x3 MUL XOR SWAP1 POP DUP1 DUP8 MUL PUSH1 0x2 SUB DUP2 MUL SWAP1 POP DUP1 DUP8 MUL PUSH1 0x2 SUB DUP2 MUL SWAP1 POP DUP1 DUP8 MUL PUSH1 0x2 SUB DUP2 MUL SWAP1 POP DUP1 DUP8 MUL PUSH1 0x2 SUB DUP2 MUL SWAP1 POP DUP1 DUP8 MUL PUSH1 0x2 SUB DUP2 MUL SWAP1 POP DUP1 DUP8 MUL PUSH1 0x2 SUB DUP2 MUL SWAP1 POP DUP1 DUP5 MUL SWAP6 POP POP POP POP POP POP JUMPDEST SWAP4 SWAP3 POP POP POP JUMP JUMPDEST PUSH2 0x1F10 DUP5 DUP6 PUSH20 0xFFFFFFFFFFFFFFFFFFFFFFFFFFFFFFFFFFFFFFFF AND PUSH4 0x23B872DD DUP7 DUP7 DUP7 PUSH1 0x40 MLOAD PUSH1 0x24 ADD PUSH2 0x1EC9 SWAP4 SWAP3 SWAP2 SWAP1 PUSH2 0x2C3B JUMP JUMPDEST PUSH1 0x40 MLOAD PUSH1 0x20 DUP2 DUP4 SUB SUB DUP2 MSTORE SWAP1 PUSH1 0x40 MSTORE SWAP2 POP PUSH1 0xE0 SHL PUSH1 0x20 DUP3 ADD DUP1 MLOAD PUSH28 0xFFFFFFFFFFFFFFFFFFFFFFFFFFFFFFFFFFFFFFFFFFFFFFFFFFFFFFFF DUP4 DUP2 DUP4 AND OR DUP4 MSTORE POP POP POP POP PUSH2 0x20E4 JUMP JUMPDEST POP POP POP POP JUMP JUMPDEST PUSH1 0x0 PUSH20 0xFFFFFFFFFFFFFFFFFFFFFFFFFFFFFFFFFFFFFFFF AND DUP3 PUSH20 0xFFFFFFFFFFFFFFFFFFFFFFFFFFFFFFFFFFFFFFFF AND SUB PUSH2 0x1F88 JUMPI PUSH1 0x0 PUSH1 0x40 MLOAD PUSH32 0xEC442F0500000000000000000000000000000000000000000000000000000000 DUP2 MSTORE PUSH1 0x4 ADD PUSH2 0x1F7F SWAP2 SWAP1 PUSH2 0x24A2 JUMP JUMPDEST PUSH1 0x40 MLOAD DUP1 SWAP2 SUB SWAP1 REVERT JUMPDEST PUSH2 0x1F94 PUSH1 0x0 DUP4 DUP4 PUSH2 0x19E3 JUMP JUMPDEST POP POP JUMP JUMPDEST PUSH1 0x0 PUSH20 0xFFFFFFFFFFFFFFFFFFFFFFFFFFFFFFFFFFFFFFFF AND DUP3 PUSH20 0xFFFFFFFFFFFFFFFFFFFFFFFFFFFFFFFFFFFFFFFF AND SUB PUSH2 0x200A JUMPI PUSH1 0x0 PUSH1 0x40 MLOAD PUSH32 0x96C6FD1E00000000000000000000000000000000000000000000000000000000 DUP2 MSTORE PUSH1 0x4 ADD PUSH2 0x2001 SWAP2 SWAP1 PUSH2 0x24A2 JUMP JUMPDEST PUSH1 0x40 MLOAD DUP1 SWAP2 SUB SWAP1 REVERT JUMPDEST PUSH2 0x2016 DUP3 PUSH1 0x0 DUP4 PUSH2 0x19E3 JUMP JUMPDEST POP POP JUMP JUMPDEST PUSH2 0x2094 DUP4 DUP5 PUSH20 0xFFFFFFFFFFFFFFFFFFFFFFFFFFFFFFFFFFFFFFFF AND PUSH4 0xA9059CBB DUP6 DUP6 PUSH1 0x40 MLOAD PUSH1 0x24 ADD PUSH2 0x204D SWAP3 SWAP2 SWAP1 PUSH2 0x2971 JUMP JUMPDEST PUSH1 0x40 MLOAD PUSH1 0x20 DUP2 DUP4 SUB SUB DUP2 MSTORE SWAP1 PUSH1 0x40 MSTORE SWAP2 POP PUSH1 0xE0 SHL PUSH1 0x20 DUP3 ADD DUP1 MLOAD PUSH28 0xFFFFFFFFFFFFFFFFFFFFFFFFFFFFFFFFFFFFFFFFFFFFFFFFFFFFFFFF DUP4 DUP2 DUP4 AND OR DUP4 MSTORE POP POP POP POP PUSH2 0x20E4 JUMP JUMPDEST POP POP POP JUMP JUMPDEST PUSH1 0x0 DUP1 PUSH1 0x0 NOT DUP4 DUP6 MULMOD DUP4 DUP6 MUL SWAP2 POP DUP2 DUP2 LT DUP3 DUP3 SUB SUB SWAP3 POP POP SWAP3 POP SWAP3 SWAP1 POP JUMP JUMPDEST PUSH1 0x0 PUSH2 0x20C3 DUP5 PUSH2 0x1DA0 JUMP JUMPDEST DUP3 DUP5 XOR MUL DUP3 XOR SWAP1 POP SWAP4 SWAP3 POP POP POP JUMP JUMPDEST PUSH4 0x4E487B71 PUSH1 0x0 MSTORE DUP1 PUSH1 0x20 MSTORE PUSH1 0x24 PUSH1 0x1C REVERT JUMPDEST PUSH1 0x0 DUP1 PUSH1 0x20 PUSH1 0x0 DUP5 MLOAD PUSH1 0x20 DUP7 ADD PUSH1 0x0 DUP9 GAS CALL DUP1 PUSH2 0x2107 JUMPI PUSH1 0x40 MLOAD RETURNDATASIZE PUSH1 0x0 DUP3 RETURNDATACOPY RETURNDATASIZE DUP2 REVERT JUMPDEST RETURNDATASIZE SWAP3 POP PUSH1 0x0 MLOAD SWAP2 POP POP PUSH1 0x0 DUP3 EQ PUSH2 0x2122 JUMPI PUSH1 0x1 DUP2 EQ ISZERO PUSH2 0x213E JUMP JUMPDEST PUSH1 0x0 DUP5 PUSH20 0xFFFFFFFFFFFFFFFFFFFFFFFFFFFFFFFFFFFFFFFF AND EXTCODESIZE EQ JUMPDEST ISZERO PUSH2 0x2180 JUMPI DUP4 PUSH1 0x40 MLOAD PUSH32 0x5274AFE700000000000000000000000000000000000000000000000000000000 DUP2 MSTORE PUSH1 0x4 ADD PUSH2 0x2177 SWAP2 SWAP1 PUSH2 0x24A2 JUMP JUMPDEST PUSH1 0x40 MLOAD DUP1 SWAP2 SUB SWAP1 REVERT JUMPDEST POP POP POP POP JUMP JUMPDEST PUSH1 0x0 DUP2 SWAP1 POP SWAP2 SWAP1 POP JUMP JUMPDEST PUSH2 0x2199 DUP2 PUSH2 0x2186 JUMP JUMPDEST DUP3 MSTORE POP POP JUMP JUMPDEST PUSH1 0x0 PUSH1 0x20 DUP3 ADD SWAP1 POP PUSH2 0x21B4 PUSH1 0x0 DUP4 ADD DUP5 PUSH2 0x2190 JUMP JUMPDEST SWAP3 SWAP2 POP POP JUMP JUMPDEST PUSH1 0x0 DUP2 MLOAD SWAP1 POP SWAP2 SWAP1 POP JUMP JUMPDEST PUSH1 0x0 DUP3 DUP3 MSTORE PUSH1 0x20 DUP3 ADD SWAP1 POP SWAP3 SWAP2 POP POP JUMP JUMPDEST PUSH1 0x0 JUMPDEST DUP4 DUP2 LT ISZERO PUSH2 0x21F4 JUMPI DUP1 DUP3 ADD MLOAD DUP2 DUP5 ADD MSTORE PUSH1 0x20 DUP2 ADD SWAP1 POP PUSH2 0x21D9 JUMP JUMPDEST PUSH1 0x0 DUP5 DUP5 ADD MSTORE POP POP POP POP JUMP JUMPDEST PUSH1 0x0 PUSH1 0x1F NOT PUSH1 0x1F DUP4 ADD AND SWAP1 POP SWAP2 SWAP1 POP JUMP JUMPDEST PUSH1 0x0 PUSH2 0x221C DUP3 PUSH2 0x21BA JUMP JUMPDEST PUSH2 0x2226 DUP2 DUP6 PUSH2 0x21C5 JUMP JUMPDEST SWAP4 POP PUSH2 0x2236 DUP2 DUP6 PUSH1 0x20 DUP7 ADD PUSH2 0x21D6 JUMP JUMPDEST PUSH2 0x223F DUP2 PUSH2 0x2200 JUMP JUMPDEST DUP5 ADD SWAP2 POP POP SWAP3 SWAP2 POP POP JUMP JUMPDEST PUSH1 0x0 PUSH1 0x20 DUP3 ADD SWAP1 POP DUP2 DUP2 SUB PUSH1 0x0 DUP4 ADD MSTORE PUSH2 0x2264 DUP2 DUP5 PUSH2 0x2211 JUMP JUMPDEST SWAP1 POP SWAP3 SWAP2 POP POP JUMP JUMPDEST PUSH1 0x0 DUP1 REVERT JUMPDEST PUSH2 0x227A DUP2 PUSH2 0x2186 JUMP JUMPDEST DUP2 EQ PUSH2 0x2285 JUMPI PUSH1 0x0 DUP1 REVERT JUMPDEST POP JUMP JUMPDEST PUSH1 0x0 DUP2 CALLDATALOAD SWAP1 POP PUSH2 0x2297 DUP2 PUSH2 0x2271 JUMP JUMPDEST SWAP3 SWAP2 POP POP JUMP JUMPDEST PUSH1 0x0 PUSH1 0x20 DUP3 DUP5 SUB SLT ISZERO PUSH2 0x22B3 JUMPI PUSH2 0x22B2 PUSH2 0x226C JUMP JUMPDEST JUMPDEST PUSH1 0x0 PUSH2 0x22C1 DUP5 DUP3 DUP6 ADD PUSH2 0x2288 JUMP JUMPDEST SWAP2 POP POP SWAP3 SWAP2 POP POP JUMP JUMPDEST PUSH1 0x0 PUSH20 0xFFFFFFFFFFFFFFFFFFFFFFFFFFFFFFFFFFFFFFFF DUP3 AND SWAP1 POP SWAP2 SWAP1 POP JUMP JUMPDEST PUSH1 0x0 PUSH2 0x22F5 DUP3 PUSH2 0x22CA JUMP JUMPDEST SWAP1 POP SWAP2 SWAP1 POP JUMP JUMPDEST PUSH2 0x2305 DUP2 PUSH2 0x22EA JUMP JUMPDEST DUP2 EQ PUSH2 0x2310 JUMPI PUSH1 0x0 DUP1 REVERT JUMPDEST POP JUMP JUMPDEST PUSH1 0x0 DUP2 CALLDATALOAD SWAP1 POP PUSH2 0x2322 DUP2 PUSH2 0x22FC JUMP JUMPDEST SWAP3 SWAP2 POP POP JUMP JUMPDEST PUSH1 0x0 DUP1 PUSH1 0x40 DUP4 DUP6 SUB SLT ISZERO PUSH2 0x233F JUMPI PUSH2 0x233E PUSH2 0x226C JUMP JUMPDEST JUMPDEST PUSH1 0x0 PUSH2 0x234D DUP6 DUP3 DUP7 ADD PUSH2 0x2313 JUMP JUMPDEST SWAP3 POP POP PUSH1 0x20 PUSH2 0x235E DUP6 DUP3 DUP7 ADD PUSH2 0x2288 JUMP JUMPDEST SWAP2 POP POP SWAP3 POP SWAP3 SWAP1 POP JUMP JUMPDEST PUSH1 0x0 DUP2 ISZERO ISZERO SWAP1 POP SWAP2 SWAP1 POP JUMP JUMPDEST PUSH2 0x237D DUP2 PUSH2 0x2368 JUMP JUMPDEST DUP3 MSTORE POP POP JUMP JUMPDEST PUSH1 0x0 PUSH1 0x20 DUP3 ADD SWAP1 POP PUSH2 0x2398 PUSH1 0x0 DUP4 ADD DUP5 PUSH2 0x2374 JUMP JUMPDEST SWAP3 SWAP2 POP POP JUMP JUMPDEST PUSH1 0x0 DUP1 PUSH1 0x0 PUSH1 0x60 DUP5 DUP7 SUB SLT ISZERO PUSH2 0x23B7 JUMPI PUSH2 0x23B6 PUSH2 0x226C JUMP JUMPDEST JUMPDEST PUSH1 0x0 PUSH2 0x23C5 DUP7 DUP3 DUP8 ADD PUSH2 0x2313 JUMP JUMPDEST SWAP4 POP POP PUSH1 0x20 PUSH2 0x23D6 DUP7 DUP3 DUP8 ADD PUSH2 0x2313 JUMP JUMPDEST SWAP3 POP POP PUSH1 0x40 PUSH2 0x23E7 DUP7 DUP3 DUP8 ADD PUSH2 0x2288 JUMP JUMPDEST SWAP2 POP POP SWAP3 POP SWAP3 POP SWAP3 JUMP JUMPDEST PUSH1 0x0 PUSH1 0xFF DUP3 AND SWAP1 POP SWAP2 SWAP1 POP JUMP JUMPDEST PUSH2 0x2407 DUP2 PUSH2 0x23F1 JUMP JUMPDEST DUP3 MSTORE POP POP JUMP JUMPDEST PUSH1 0x0 PUSH1 0x20 DUP3 ADD SWAP1 POP PUSH2 0x2422 PUSH1 0x0 DUP4 ADD DUP5 PUSH2 0x23FE JUMP JUMPDEST SWAP3 SWAP2 POP POP JUMP JUMPDEST PUSH1 0x0 PUSH2 0x2433 DUP3 PUSH2 0x22EA JUMP JUMPDEST SWAP1 POP SWAP2 SWAP1 POP JUMP JUMPDEST PUSH2 0x2443 DUP2 PUSH2 0x2428 JUMP JUMPDEST DUP2 EQ PUSH2 0x244E JUMPI PUSH1 0x0 DUP1 REVERT JUMPDEST POP JUMP JUMPDEST PUSH1 0x0 DUP2 CALLDATALOAD SWAP1 POP PUSH2 0x2460 DUP2 PUSH2 0x243A JUMP JUMPDEST SWAP3 SWAP2 POP POP JUMP JUMPDEST PUSH1 0x0 PUSH1 0x20 DUP3 DUP5 SUB SLT ISZERO PUSH2 0x247C JUMPI PUSH2 0x247B PUSH2 0x226C JUMP JUMPDEST JUMPDEST PUSH1 0x0 PUSH2 0x248A DUP5 DUP3 DUP6 ADD PUSH2 0x2451 JUMP JUMPDEST SWAP2 POP POP SWAP3 SWAP2 POP POP JUMP JUMPDEST PUSH2 0x249C DUP2 PUSH2 0x22EA JUMP JUMPDEST DUP3 MSTORE POP POP JUMP JUMPDEST PUSH1 0x0 PUSH1 0x20 DUP3 ADD SWAP1 POP PUSH2 0x24B7 PUSH1 0x0 DUP4 ADD DUP5 PUSH2 0x2493 JUMP JUMPDEST SWAP3 SWAP2 POP POP JUMP JUMPDEST PUSH1 0x0 PUSH1 0x20 DUP3 DUP5 SUB SLT ISZERO PUSH2 0x24D3 JUMPI PUSH2 0x24D2 PUSH2 0x226C JUMP JUMPDEST JUMPDEST PUSH1 0x0 PUSH2 0x24E1 DUP5 DUP3 DUP6 ADD PUSH2 0x2313 JUMP JUMPDEST SWAP2 POP POP SWAP3 SWAP2 POP POP JUMP JUMPDEST PUSH1 0x0 DUP1 PUSH1 0x40 DUP4 DUP6 SUB SLT ISZERO PUSH2 0x2501 JUMPI PUSH2 0x2500 PUSH2 0x226C JUMP JUMPDEST JUMPDEST PUSH1 0x0 PUSH2 0x250F DUP6 DUP3 DUP7 ADD PUSH2 0x2288 JUMP JUMPDEST SWAP3 POP POP PUSH1 0x20 PUSH2 0x2520 DUP6 DUP3 DUP7 ADD PUSH2 0x2313 JUMP JUMPDEST SWAP2 POP POP SWAP3 POP SWAP3 SWAP1 POP JUMP JUMPDEST PUSH1 0x0 DUP2 SWAP1 POP SWAP2 SWAP1 POP JUMP JUMPDEST PUSH1 0x0 PUSH2 0x254F PUSH2 0x254A PUSH2 0x2545 DUP5 PUSH2 0x22CA JUMP JUMPDEST PUSH2 0x252A JUMP JUMPDEST PUSH2 0x22CA JUMP JUMPDEST SWAP1 POP SWAP2 SWAP1 POP JUMP JUMPDEST PUSH1 0x0 PUSH2 0x2561 DUP3 PUSH2 0x2534 JUMP JUMPDEST SWAP1 POP SWAP2 SWAP1 POP JUMP JUMPDEST PUSH1 0x0 PUSH2 0x2573 DUP3 PUSH2 0x2556 JUMP JUMPDEST SWAP1 POP SWAP2 SWAP1 POP JUMP JUMPDEST PUSH2 0x2583 DUP2 PUSH2 0x2568 JUMP JUMPDEST DUP3 MSTORE POP POP JUMP JUMPDEST PUSH1 0x0 PUSH1 0x20 DUP3 ADD SWAP1 POP PUSH2 0x259E PUSH1 0x0 DUP4 ADD DUP5 PUSH2 0x257A JUMP JUMPDEST SWAP3 SWAP2 POP POP JUMP JUMPDEST PUSH1 0x0 DUP1 PUSH1 0x0 PUSH1 0x60 DUP5 DUP7 SUB SLT ISZERO PUSH2 0x25BD JUMPI PUSH2 0x25BC PUSH2 0x226C JUMP JUMPDEST JUMPDEST PUSH1 0x0 PUSH2 0x25CB DUP7 DUP3 DUP8 ADD PUSH2 0x2288 JUMP JUMPDEST SWAP4 POP POP PUSH1 0x20 PUSH2 0x25DC DUP7 DUP3 DUP8 ADD PUSH2 0x2313 JUMP JUMPDEST SWAP3 POP POP PUSH1 0x40 PUSH2 0x25ED DUP7 DUP3 DUP8 ADD PUSH2 0x2313 JUMP JUMPDEST SWAP2 POP POP SWAP3 POP SWAP3 POP SWAP3 JUMP JUMPDEST PUSH1 0x0 DUP1 PUSH1 0x40 DUP4 DUP6 SUB SLT ISZERO PUSH2 0x260E JUMPI PUSH2 0x260D PUSH2 0x226C JUMP JUMPDEST JUMPDEST PUSH1 0x0 PUSH2 0x261C DUP6 DUP3 DUP7 ADD PUSH2 0x2313 JUMP JUMPDEST SWAP3 POP POP PUSH1 0x20 PUSH2 0x262D DUP6 DUP3 DUP7 ADD PUSH2 0x2313 JUMP JUMPDEST SWAP2 POP POP SWAP3 POP SWAP3 SWAP1 POP JUMP JUMPDEST PUSH1 0x0 DUP2 MLOAD SWAP1 POP PUSH2 0x2646 DUP2 PUSH2 0x2271 JUMP JUMPDEST SWAP3 SWAP2 POP POP JUMP JUMPDEST PUSH1 0x0 PUSH1 0x20 DUP3 DUP5 SUB SLT ISZERO PUSH2 0x2662 JUMPI PUSH2 0x2661 PUSH2 0x226C JUMP JUMPDEST JUMPDEST PUSH1 0x0 PUSH2 0x2670 DUP5 DUP3 DUP6 ADD PUSH2 0x2637 JUMP JUMPDEST SWAP2 POP POP SWAP3 SWAP2 POP POP JUMP JUMPDEST PUSH32 0x4E487B7100000000000000000000000000000000000000000000000000000000 PUSH1 0x0 MSTORE PUSH1 0x11 PUSH1 0x4 MSTORE PUSH1 0x24 PUSH1 0x0 REVERT JUMPDEST PUSH1 0x0 PUSH2 0x26B3 DUP3 PUSH2 0x2186 JUMP JUMPDEST SWAP2 POP PUSH2 0x26BE DUP4 PUSH2 0x2186 JUMP JUMPDEST SWAP3 POP DUP3 DUP3 ADD SWAP1 POP DUP1 DUP3 GT ISZERO PUSH2 0x26D6 JUMPI PUSH2 0x26D5 PUSH2 0x2679 JUMP JUMPDEST JUMPDEST SWAP3 SWAP2 POP POP JUMP JUMPDEST PUSH32 0x4E487B7100000000000000000000000000000000000000000000000000000000 PUSH1 0x0 MSTORE PUSH1 0x22 PUSH1 0x4 MSTORE PUSH1 0x24 PUSH1 0x0 REVERT JUMPDEST PUSH1 0x0 PUSH1 0x2 DUP3 DIV SWAP1 POP PUSH1 0x1 DUP3 AND DUP1 PUSH2 0x2723 JUMPI PUSH1 0x7F DUP3 AND SWAP2 POP JUMPDEST PUSH1 0x20 DUP3 LT DUP2 SUB PUSH2 0x2736 JUMPI PUSH2 0x2735 PUSH2 0x26DC JUMP JUMPDEST JUMPDEST POP SWAP2 SWAP1 POP JUMP JUMPDEST PUSH1 0x0 PUSH2 0x2747 DUP3 PUSH2 0x23F1 JUMP JUMPDEST SWAP2 POP PUSH2 0x2752 DUP4 PUSH2 0x23F1 JUMP JUMPDEST SWAP3 POP DUP3 DUP3 ADD SWAP1 POP PUSH1 0xFF DUP2 GT ISZERO PUSH2 0x276B JUMPI PUSH2 0x276A PUSH2 0x2679 JUMP JUMPDEST JUMPDEST SWAP3 SWAP2 POP POP JUMP JUMPDEST PUSH32 0x496E76616C696420737472617465677900000000000000000000000000000000 PUSH1 0x0 DUP3 ADD MSTORE POP JUMP JUMPDEST PUSH1 0x0 PUSH2 0x27A7 PUSH1 0x10 DUP4 PUSH2 0x21C5 JUMP JUMPDEST SWAP2 POP PUSH2 0x27B2 DUP3 PUSH2 0x2771 JUMP JUMPDEST PUSH1 0x20 DUP3 ADD SWAP1 POP SWAP2 SWAP1 POP JUMP JUMPDEST PUSH1 0x0 PUSH1 0x20 DUP3 ADD SWAP1 POP DUP2 DUP2 SUB PUSH1 0x0 DUP4 ADD MSTORE PUSH2 0x27D6 DUP2 PUSH2 0x279A JUMP JUMPDEST SWAP1 POP SWAP2 SWAP1 POP JUMP JUMPDEST PUSH1 0x0 PUSH2 0x27E8 DUP3 PUSH2 0x22EA JUMP JUMPDEST SWAP1 POP SWAP2 SWAP1 POP JUMP JUMPDEST PUSH2 0x27F8 DUP2 PUSH2 0x27DD JUMP JUMPDEST DUP2 EQ PUSH2 0x2803 JUMPI PUSH1 0x0 DUP1 REVERT JUMPDEST POP JUMP JUMPDEST PUSH1 0x0 DUP2 MLOAD SWAP1 POP PUSH2 0x2815 DUP2 PUSH2 0x27EF JUMP JUMPDEST SWAP3 SWAP2 POP POP JUMP JUMPDEST PUSH1 0x0 PUSH1 0x20 DUP3 DUP5 SUB SLT ISZERO PUSH2 0x2831 JUMPI PUSH2 0x2830 PUSH2 0x226C JUMP JUMPDEST JUMPDEST PUSH1 0x0 PUSH2 0x283F DUP5 DUP3 DUP6 ADD PUSH2 0x2806 JUMP JUMPDEST SWAP2 POP POP SWAP3 SWAP2 POP POP JUMP JUMPDEST PUSH32 0x4173736574206D69736D61746368000000000000000000000000000000000000 PUSH1 0x0 DUP3 ADD MSTORE POP JUMP JUMPDEST PUSH1 0x0 PUSH2 0x287E PUSH1 0xE DUP4 PUSH2 0x21C5 JUMP JUMPDEST SWAP2 POP PUSH2 0x2889 DUP3 PUSH2 0x2848 JUMP JUMPDEST PUSH1 0x20 DUP3 ADD SWAP1 POP SWAP2 SWAP1 POP JUMP JUMPDEST PUSH1 0x0 PUSH1 0x20 DUP3 ADD SWAP1 POP DUP2 DUP2 SUB PUSH1 0x0 DUP4 ADD MSTORE PUSH2 0x28AD DUP2 PUSH2 0x2871 JUMP JUMPDEST SWAP1 POP SWAP2 SWAP1 POP JUMP JUMPDEST PUSH1 0x0 DUP2 SWAP1 POP SWAP2 SWAP1 POP JUMP JUMPDEST PUSH1 0x0 PUSH2 0x28D9 PUSH2 0x28D4 PUSH2 0x28CF DUP5 PUSH2 0x28B4 JUMP JUMPDEST PUSH2 0x252A JUMP JUMPDEST PUSH2 0x2186 JUMP JUMPDEST SWAP1 POP SWAP2 SWAP1 POP JUMP JUMPDEST PUSH2 0x28E9 DUP2 PUSH2 0x28BE JUMP JUMPDEST DUP3 MSTORE POP POP JUMP JUMPDEST PUSH1 0x0 PUSH1 0x40 DUP3 ADD SWAP1 POP PUSH2 0x2904 PUSH1 0x0 DUP4 ADD DUP6 PUSH2 0x2493 JUMP JUMPDEST PUSH2 0x2911 PUSH1 0x20 DUP4 ADD DUP5 PUSH2 0x28E0 JUMP JUMPDEST SWAP4 SWAP3 POP POP POP JUMP JUMPDEST PUSH2 0x2921 DUP2 PUSH2 0x2368 JUMP JUMPDEST DUP2 EQ PUSH2 0x292C JUMPI PUSH1 0x0 DUP1 REVERT JUMPDEST POP JUMP JUMPDEST PUSH1 0x0 DUP2 MLOAD SWAP1 POP PUSH2 0x293E DUP2 PUSH2 0x2918 JUMP JUMPDEST SWAP3 SWAP2 POP POP JUMP JUMPDEST PUSH1 0x0 PUSH1 0x20 DUP3 DUP5 SUB SLT ISZERO PUSH2 0x295A JUMPI PUSH2 0x2959 PUSH2 0x226C JUMP JUMPDEST JUMPDEST PUSH1 0x0 PUSH2 0x2968 DUP5 DUP3 DUP6 ADD PUSH2 0x292F JUMP JUMPDEST SWAP2 POP POP SWAP3 SWAP2 POP POP JUMP JUMPDEST PUSH1 0x0 PUSH1 0x40 DUP3 ADD SWAP1 POP PUSH2 0x2986 PUSH1 0x0 DUP4 ADD DUP6 PUSH2 0x2493 JUMP JUMPDEST PUSH2 0x2993 PUSH1 0x20 DUP4 ADD DUP5 PUSH2 0x2190 JUMP JUMPDEST SWAP4 SWAP3 POP POP POP JUMP JUMPDEST PUSH1 0x0 PUSH1 0x60 DUP3 ADD SWAP1 POP PUSH2 0x29AF PUSH1 0x0 DUP4 ADD DUP7 PUSH2 0x2493 JUMP JUMPDEST PUSH2 0x29BC PUSH1 0x20 DUP4 ADD DUP6 PUSH2 0x2190 JUMP JUMPDEST PUSH2 0x29C9 PUSH1 0x40 DUP4 ADD DUP5 PUSH2 0x2190 JUMP JUMPDEST SWAP5 SWAP4 POP POP POP POP JUMP JUMPDEST PUSH1 0x0 DUP2 PUSH1 0x1 SHR SWAP1 POP SWAP2 SWAP1 POP JUMP JUMPDEST PUSH1 0x0 DUP1 DUP3 SWAP2 POP DUP4 SWAP1 POP JUMPDEST PUSH1 0x1 DUP6 GT ISZERO PUSH2 0x2A28 JUMPI DUP1 DUP7 DIV DUP2 GT ISZERO PUSH2 0x2A04 JUMPI PUSH2 0x2A03 PUSH2 0x2679 JUMP JUMPDEST JUMPDEST PUSH1 0x1 DUP6 AND ISZERO PUSH2 0x2A13 JUMPI DUP1 DUP3 MUL SWAP2 POP JUMPDEST DUP1 DUP2 MUL SWAP1 POP PUSH2 0x2A21 DUP6 PUSH2 0x29D1 JUMP JUMPDEST SWAP5 POP PUSH2 0x29E8 JUMP JUMPDEST SWAP5 POP SWAP5 SWAP3 POP POP POP JUMP JUMPDEST PUSH1 0x0 DUP3 PUSH2 0x2A41 JUMPI PUSH1 0x1 SWAP1 POP PUSH2 0x2AFD JUMP JUMPDEST DUP2 PUSH2 0x2A4F JUMPI PUSH1 0x0 SWAP1 POP PUSH2 0x2AFD JUMP JUMPDEST DUP2 PUSH1 0x1 DUP2 EQ PUSH2 0x2A65 JUMPI PUSH1 0x2 DUP2 EQ PUSH2 0x2A6F JUMPI PUSH2 0x2A9E JUMP JUMPDEST PUSH1 0x1 SWAP2 POP POP PUSH2 0x2AFD JUMP JUMPDEST PUSH1 0xFF DUP5 GT ISZERO PUSH2 0x2A81 JUMPI PUSH2 0x2A80 PUSH2 0x2679 JUMP JUMPDEST JUMPDEST DUP4 PUSH1 0x2 EXP SWAP2 POP DUP5 DUP3 GT ISZERO PUSH2 0x2A98 JUMPI PUSH2 0x2A97 PUSH2 0x2679 JUMP JUMPDEST JUMPDEST POP PUSH2 0x2AFD JUMP JUMPDEST POP PUSH1 0x20 DUP4 LT PUSH2 0x133 DUP4 LT AND PUSH1 0x4E DUP5 LT PUSH1 0xB DUP5 LT AND OR ISZERO PUSH2 0x2AD3 JUMPI DUP3 DUP3 EXP SWAP1 POP DUP4 DUP2 GT ISZERO PUSH2 0x2ACE JUMPI PUSH2 0x2ACD PUSH2 0x2679 JUMP JUMPDEST JUMPDEST PUSH2 0x2AFD JUMP JUMPDEST PUSH2 0x2AE0 DUP5 DUP5 DUP5 PUSH1 0x1 PUSH2 0x29DE JUMP JUMPDEST SWAP3 POP SWAP1 POP DUP2 DUP5 DIV DUP2 GT ISZERO PUSH2 0x2AF7 JUMPI PUSH2 0x2AF6 PUSH2 0x2679 JUMP JUMPDEST JUMPDEST DUP2 DUP2 MUL SWAP1 POP JUMPDEST SWAP4 SWAP3 POP POP POP JUMP JUMPDEST PUSH1 0x0 PUSH2 0x2B0F DUP3 PUSH2 0x2186 JUMP JUMPDEST SWAP2 POP PUSH2 0x2B1A DUP4 PUSH2 0x23F1 JUMP JUMPDEST SWAP3 POP PUSH2 0x2B47 PUSH32 0xFFFFFFFFFFFFFFFFFFFFFFFFFFFFFFFFFFFFFFFFFFFFFFFFFFFFFFFFFFFFFFFF DUP5 DUP5 PUSH2 0x2A31 JUMP JUMPDEST SWAP1 POP SWAP3 SWAP2 POP POP JUMP JUMPDEST PUSH1 0x0 PUSH2 0x2B5A DUP3 PUSH2 0x2186 JUMP JUMPDEST SWAP2 POP PUSH2 0x2B65 DUP4 PUSH2 0x2186 JUMP JUMPDEST SWAP3 POP DUP3 DUP3 SUB SWAP1 POP DUP2 DUP2 GT ISZERO PUSH2 0x2B7D JUMPI PUSH2 0x2B7C PUSH2 0x2679 JUMP JUMPDEST JUMPDEST SWAP3 SWAP2 POP POP JUMP JUMPDEST PUSH32 0x4E487B7100000000000000000000000000000000000000000000000000000000 PUSH1 0x0 MSTORE PUSH1 0x12 PUSH1 0x4 MSTORE PUSH1 0x24 PUSH1 0x0 REVERT JUMPDEST PUSH1 0x0 PUSH1 0x40 DUP3 ADD SWAP1 POP PUSH2 0x2BC7 PUSH1 0x0 DUP4 ADD DUP6 PUSH2 0x2190 JUMP JUMPDEST PUSH2 0x2BD4 PUSH1 0x20 DUP4 ADD DUP5 PUSH2 0x2190 JUMP JUMPDEST SWAP4 SWAP3 POP POP POP JUMP JUMPDEST PUSH32 0x4E487B7100000000000000000000000000000000000000000000000000000000 PUSH1 0x0 MSTORE PUSH1 0x21 PUSH1 0x4 MSTORE PUSH1 0x24 PUSH1 0x0 REVERT JUMPDEST PUSH1 0x0 PUSH2 0x2C15 DUP3 PUSH2 0x23F1 JUMP JUMPDEST SWAP2 POP PUSH2 0x2C20 DUP4 PUSH2 0x23F1 JUMP JUMPDEST SWAP3 POP DUP3 PUSH2 0x2C30 JUMPI PUSH2 0x2C2F PUSH2 0x2B83 JUMP JUMPDEST JUMPDEST DUP3 DUP3 MOD SWAP1 POP SWAP3 SWAP2 POP POP JUMP JUMPDEST PUSH1 0x0 PUSH1 0x60 DUP3 ADD SWAP1 POP PUSH2 0x2C50 PUSH1 0x0 DUP4 ADD DUP7 PUSH2 0x2493 JUMP JUMPDEST PUSH2 0x2C5D PUSH1 0x20 DUP4 ADD DUP6 PUSH2 0x2493 JUMP JUMPDEST PUSH2 0x2C6A PUSH1 0x40 DUP4 ADD DUP5 PUSH2 0x2190 JUMP JUMPDEST SWAP5 SWAP4 POP POP POP POP JUMP INVALID LOG2 PUSH5 0x6970667358 0x22 SLT KECCAK256 MULMOD SWAP14 GT INVALID SWAP8 INVALID SWAP3 0xA7 0xBC 0xB3 PUSH12 0x8335F1477FC75D2D805A1F0E GAS DUP2 0xE2 PUSH32 0x9228BDA87664736F6C6343000814003300000000000000000000000000000000 "},"methodIdentifiers":{"allowance(address,address)":"dd62ed3e","approve(address,uint256)":"095ea7b3","asset()":"38d52e0f","balanceOf(address)":"70a08231","convertToAssets(uint256)":"07a2d13a","convertToShares(uint256)":"c6e6f592","decimals()":"313ce567","deposit(uint256,address)":"6e553f65","maxDeposit(address)":"402d267d","maxMint(address)":"c63d75b6","maxRedeem(address)":"d905777e","maxWithdraw(address)":"ce96cb77","mint(uint256,address)":"94bf804d","name()":"06fdde03","owner()":"8da5cb5b","pendingStrategy()":"465fc5d2","previewDeposit(uint256)":"ef8b30f7","previewMint(uint256)":"b3d7f6b9","previewRedeem(uint256)":"4cdad506","previewWithdraw(uint256)":"0a28a477","redeem(uint256,address,address)":"ba087652","renounceOwnership()":"715018a6","setStrategy(address)":"33a100ca","strategy()":"a8c62e76","symbol()":"95d89b41","totalAssets()":"01e1d114","totalSupply()":"18160ddd","transfer(address,uint256)":"a9059cbb","transferFrom(address,address,uint256)":"23b872dd","transferOwnership(address)":"f2fde38b","withdraw(uint256,address,address)":"b460af94"}}}}}