{
  "_format": "hh-sol-artifact-1",
  "contractName": "OmniYieldVault",
  "sourceName": "contracts/OmniYieldVault.sol",
  "abi": [
    {
      "inputs": [
        {
          "internalType": "contract IERC20",
          "name": "asset_",
          "type": "address"
        },
        {
          "internalType": "string",
          "name": "name_",
          "type": "string"
        },
        {
          "internalType": "string",
          "name": "symbol_",
          "type": "string"
        },
        {
          "internalType": "contract IStrategy",
          "name": "strategy_",
          "type": "address"
        },
        {
          "internalType": "address",
          "name": "feeRecipient_",
          "type": "address"
        },
        {
          "internalType": "uint256",
          "name": "performanceFeeBps_",
          "type": "uint256"
        }
      ],
      "stateMutability": "nonpayable",
      "type": "constructor"
    },
    {
      "inputs": [
        {
          "internalType": "address",
          "name": "spender",
          "type": "address"
        },
        {
          "internalType": "uint256",
          "name": "allowance",
          "type": "uint256"
        },
        {
          "internalType": "uint256",
          "name": "needed",
          "type": "uint256"
        }
      ],
      "name": "ERC20InsufficientAllowance",
      "type": "error"
    },
    {
      "inputs": [
        {
          "internalType": "address",
          "name": "sender",
          "type": "address"
        },
        {
          "internalType": "uint256",
          "name": "balance",
          "type": "uint256"
        },
        {
          "internalType": "uint256",
          "name": "needed",
          "type": "uint256"
        }
      ],
      "name": "ERC20InsufficientBalance",
      "type": "error"
    },
    {
      "inputs": [
        {
          "internalType": "address",
          "name": "approver",
          "type": "address"
        }
      ],
      "name": "ERC20InvalidApprover",
      "type": "error"
    },
    {
      "inputs": [
        {
          "internalType": "address",
          "name": "receiver",
          "type": "address"
        }
      ],
      "name": "ERC20InvalidReceiver",
      "type": "error"
    },
    {
      "inputs": [
        {
          "internalType": "address",
          "name": "sender",
          "type": "address"
        }
      ],
      "name": "ERC20InvalidSender",
      "type": "error"
    },
    {
      "inputs": [
        {
          "internalType": "address",
          "name": "spender",
          "type": "address"
        }
      ],
      "name": "ERC20InvalidSpender",
      "type": "error"
    },
    {
      "inputs": [
        {
          "internalType": "address",
          "name": "receiver",
          "type": "address"
        },
        {
          "internalType": "uint256",
          "name": "assets",
          "type": "uint256"
        },
        {
          "internalType": "uint256",
          "name": "max",
          "type": "uint256"
        }
      ],
      "name": "ERC4626ExceededMaxDeposit",
      "type": "error"
    },
    {
      "inputs": [
        {
          "internalType": "address",
          "name": "receiver",
          "type": "address"
        },
        {
          "internalType": "uint256",
          "name": "shares",
          "type": "uint256"
        },
        {
          "internalType": "uint256",
          "name": "max",
          "type": "uint256"
        }
      ],
      "name": "ERC4626ExceededMaxMint",
      "type": "error"
    },
    {
      "inputs": [
        {
          "internalType": "address",
          "name": "owner",
          "type": "address"
        },
        {
          "internalType": "uint256",
          "name": "shares",
          "type": "uint256"
        },
        {
          "internalType": "uint256",
          "name": "max",
          "type": "uint256"
        }
      ],
      "name": "ERC4626ExceededMaxRedeem",
      "type": "error"
    },
    {
      "inputs": [
        {
          "internalType": "address",
          "name": "owner",
          "type": "address"
        },
        {
          "internalType": "uint256",
          "name": "assets",
          "type": "uint256"
        },
        {
          "internalType": "uint256",
          "name": "max",
          "type": "uint256"
        }
      ],
      "name": "ERC4626ExceededMaxWithdraw",
      "type": "error"
    },
    {
      "inputs": [
        {
          "internalType": "address",
          "name": "owner",
          "type": "address"
        }
      ],
      "name": "OwnableInvalidOwner",
      "type": "error"
    },
    {
      "inputs": [
        {
          "internalType": "address",
          "name": "account",
          "type": "address"
        }
      ],
      "name": "OwnableUnauthorizedAccount",
      "type": "error"
    },
    {
      "inputs": [
        {
          "internalType": "address",
          "name": "token",
          "type": "address"
        }
      ],
      "name": "SafeERC20FailedOperation",
      "type": "error"
    },
    {
      "anonymous": false,
      "inputs": [
        {
          "indexed": true,
          "internalType": "address",
          "name": "owner",
          "type": "address"
        },
        {
          "indexed": true,
          "internalType": "address",
          "name": "spender",
          "type": "address"
        },
        {
          "indexed": false,
          "internalType": "uint256",
          "name": "value",
          "type": "uint256"
        }
      ],
      "name": "Approval",
      "type": "event"
    },
    {
      "anonymous": false,
      "inputs": [
        {
          "indexed": true,
          "internalType": "address",
          "name": "sender",
          "type": "address"
        },
        {
          "indexed": true,
          "internalType": "address",
          "name": "owner",
          "type": "address"
        },
        {
          "indexed": false,
          "internalType": "uint256",
          "name": "assets",
          "type": "uint256"
        },
        {
          "indexed": false,
          "internalType": "uint256",
          "name": "shares",
          "type": "uint256"
        }
      ],
      "name": "Deposit",
      "type": "event"
    },
    {
      "anonymous": false,
      "inputs": [
        {
          "indexed": true,
          "internalType": "address",
          "name": "recipient",
          "type": "address"
        },
        {
          "indexed": false,
          "internalType": "uint256",
          "name": "amount",
          "type": "uint256"
        }
      ],
      "name": "FeeCollected",
      "type": "event"
    },
    {
      "anonymous": false,
      "inputs": [
        {
          "indexed": true,
          "internalType": "address",
          "name": "oldRecipient",
          "type": "address"
        },
        {
          "indexed": true,
          "internalType": "address",
          "name": "newRecipient",
          "type": "address"
        }
      ],
      "name": "FeeRecipientUpdated",
      "type": "event"
    },
    {
      "anonymous": false,
      "inputs": [
        {
          "indexed": false,
          "internalType": "uint256",
          "name": "profit",
          "type": "uint256"
        },
        {
          "indexed": false,
          "internalType": "uint256",
          "name": "fee",
          "type": "uint256"
        },
        {
          "indexed": false,
          "internalType": "uint256",
          "name": "reinvested",
          "type": "uint256"
        }
      ],
      "name": "Harvested",
      "type": "event"
    },
    {
      "anonymous": false,
      "inputs": [
        {
          "indexed": false,
          "internalType": "uint256",
          "name": "oldBufferBps",
          "type": "uint256"
        },
        {
          "indexed": false,
          "internalType": "uint256",
          "name": "newBufferBps",
          "type": "uint256"
        }
      ],
      "name": "LiquidityBufferUpdated",
      "type": "event"
    },
    {
      "anonymous": false,
      "inputs": [
        {
          "indexed": true,
          "internalType": "address",
          "name": "previousOwner",
          "type": "address"
        },
        {
          "indexed": true,
          "internalType": "address",
          "name": "newOwner",
          "type": "address"
        }
      ],
      "name": "OwnershipTransferred",
      "type": "event"
    },
    {
      "anonymous": false,
      "inputs": [
        {
          "indexed": false,
          "internalType": "uint256",
          "name": "oldFeeBps",
          "type": "uint256"
        },
        {
          "indexed": false,
          "internalType": "uint256",
          "name": "newFeeBps",
          "type": "uint256"
        }
      ],
      "name": "PerformanceFeeUpdated",
      "type": "event"
    },
    {
      "anonymous": false,
      "inputs": [
        {
          "indexed": true,
          "internalType": "address",
          "name": "referrer",
          "type": "address"
        },
        {
          "indexed": false,
          "internalType": "uint256",
          "name": "points",
          "type": "uint256"
        }
      ],
      "name": "ReferralPointsAwarded",
      "type": "event"
    },
    {
      "anonymous": false,
      "inputs": [
        {
          "indexed": true,
          "internalType": "address",
          "name": "user",
          "type": "address"
        },
        {
          "indexed": true,
          "internalType": "address",
          "name": "referrer",
          "type": "address"
        }
      ],
      "name": "ReferralRecorded",
      "type": "event"
    },
    {
      "anonymous": false,
      "inputs": [
        {
          "indexed": true,
          "internalType": "address",
          "name": "oldStrategy",
          "type": "address"
        },
        {
          "indexed": true,
          "internalType": "address",
          "name": "newStrategy",
          "type": "address"
        }
      ],
      "name": "StrategyUpdated",
      "type": "event"
    },
    {
      "anonymous": false,
      "inputs": [
        {
          "indexed": true,
          "internalType": "address",
          "name": "from",
          "type": "address"
        },
        {
          "indexed": true,
          "internalType": "address",
          "name": "to",
          "type": "address"
        },
        {
          "indexed": false,
          "internalType": "uint256",
          "name": "value",
          "type": "uint256"
        }
      ],
      "name": "Transfer",
      "type": "event"
    },
    {
      "anonymous": false,
      "inputs": [
        {
          "indexed": true,
          "internalType": "address",
          "name": "sender",
          "type": "address"
        },
        {
          "indexed": true,
          "internalType": "address",
          "name": "receiver",
          "type": "address"
        },
        {
          "indexed": true,
          "internalType": "address",
          "name": "owner",
          "type": "address"
        },
        {
          "indexed": false,
          "internalType": "uint256",
          "name": "assets",
          "type": "uint256"
        },
        {
          "indexed": false,
          "internalType": "uint256",
          "name": "shares",
          "type": "uint256"
        }
      ],
      "name": "Withdraw",
      "type": "event"
    },
    {
      "inputs": [],
      "name": "DENOMINATOR",
      "outputs": [
        {
          "internalType": "uint256",
          "name": "",
          "type": "uint256"
        }
      ],
      "stateMutability": "view",
      "type": "function"
    },
    {
      "inputs": [],
      "name": "MAX_BUFFER_BPS",
      "outputs": [
        {
          "internalType": "uint256",
          "name": "",
          "type": "uint256"
        }
      ],
      "stateMutability": "view",
      "type": "function"
    },
    {
      "inputs": [],
      "name": "MAX_FEE_BPS",
      "outputs": [
        {
          "internalType": "uint256",
          "name": "",
          "type": "uint256"
        }
      ],
      "stateMutability": "view",
      "type": "function"
    },
    {
      "inputs": [
        {
          "internalType": "address",
          "name": "owner",
          "type": "address"
        },
        {
          "internalType": "address",
          "name": "spender",
          "type": "address"
        }
      ],
      "name": "allowance",
      "outputs": [
        {
          "internalType": "uint256",
          "name": "",
          "type": "uint256"
        }
      ],
      "stateMutability": "view",
      "type": "function"
    },
    {
      "inputs": [
        {
          "internalType": "address",
          "name": "spender",
          "type": "address"
        },
        {
          "internalType": "uint256",
          "name": "value",
          "type": "uint256"
        }
      ],
      "name": "approve",
      "outputs": [
        {
          "internalType": "bool",
          "name": "",
          "type": "bool"
        }
      ],
      "stateMutability": "nonpayable",
      "type": "function"
    },
    {
      "inputs": [],
      "name": "asset",
      "outputs": [
        {
          "internalType": "address",
          "name": "",
          "type": "address"
        }
      ],
      "stateMutability": "view",
      "type": "function"
    },
    {
      "inputs": [
        {
          "internalType": "address",
          "name": "account",
          "type": "address"
        }
      ],
      "name": "balanceOf",
      "outputs": [
        {
          "internalType": "uint256",
          "name": "",
          "type": "uint256"
        }
      ],
      "stateMutability": "view",
      "type": "function"
    },
    {
      "inputs": [],
      "name": "compound",
      "outputs": [
        {
          "internalType": "uint256",
          "name": "profit",
          "type": "uint256"
        }
      ],
      "stateMutability": "nonpayable",
      "type": "function"
    },
    {
      "inputs": [
        {
          "internalType": "uint256",
          "name": "shares",
          "type": "uint256"
        }
      ],
      "name": "convertToAssets",
      "outputs": [
        {
          "internalType": "uint256",
          "name": "",
          "type": "uint256"
        }
      ],
      "stateMutability": "view",
      "type": "function"
    },
    {
      "inputs": [
        {
          "internalType": "uint256",
          "name": "assets",
          "type": "uint256"
        }
      ],
      "name": "convertToShares",
      "outputs": [
        {
          "internalType": "uint256",
          "name": "",
          "type": "uint256"
        }
      ],
      "stateMutability": "view",
      "type": "function"
    },
    {
      "inputs": [],
      "name": "decimals",
      "outputs": [
        {
          "internalType": "uint8",
          "name": "",
          "type": "uint8"
        }
      ],
      "stateMutability": "view",
      "type": "function"
    },
    {
      "inputs": [
        {
          "internalType": "uint256",
          "name": "assets",
          "type": "uint256"
        },
        {
          "internalType": "address",
          "name": "receiver",
          "type": "address"
        }
      ],
      "name": "deposit",
      "outputs": [
        {
          "internalType": "uint256",
          "name": "",
          "type": "uint256"
        }
      ],
      "stateMutability": "nonpayable",
      "type": "function"
    },
    {
      "inputs": [
        {
          "internalType": "uint256",
          "name": "assets",
          "type": "uint256"
        },
        {
          "internalType": "address",
          "name": "receiver",
          "type": "address"
        },
        {
          "internalType": "address",
          "name": "referrer",
          "type": "address"
        }
      ],
      "name": "depositWithReferral",
      "outputs": [
        {
          "internalType": "uint256",
          "name": "shares",
          "type": "uint256"
        }
      ],
      "stateMutability": "nonpayable",
      "type": "function"
    },
    {
      "inputs": [],
      "name": "feeRecipient",
      "outputs": [
        {
          "internalType": "address",
          "name": "",
          "type": "address"
        }
      ],
      "stateMutability": "view",
      "type": "function"
    },
    {
      "inputs": [],
      "name": "harvest",
      "outputs": [
        {
          "internalType": "uint256",
          "name": "profit",
          "type": "uint256"
        }
      ],
      "stateMutability": "nonpayable",
      "type": "function"
    },
    {
      "inputs": [],
      "name": "lastHarvestTimestamp",
      "outputs": [
        {
          "internalType": "uint256",
          "name": "",
          "type": "uint256"
        }
      ],
      "stateMutability": "view",
      "type": "function"
    },
    {
      "inputs": [],
      "name": "liquidityBufferBps",
      "outputs": [
        {
          "internalType": "uint256",
          "name": "",
          "type": "uint256"
        }
      ],
      "stateMutability": "view",
      "type": "function"
    },
    {
      "inputs": [
        {
          "internalType": "address",
          "name": "",
          "type": "address"
        }
      ],
      "name": "maxDeposit",
      "outputs": [
        {
          "internalType": "uint256",
          "name": "",
          "type": "uint256"
        }
      ],
      "stateMutability": "view",
      "type": "function"
    },
    {
      "inputs": [
        {
          "internalType": "address",
          "name": "",
          "type": "address"
        }
      ],
      "name": "maxMint",
      "outputs": [
        {
          "internalType": "uint256",
          "name": "",
          "type": "uint256"
        }
      ],
      "stateMutability": "view",
      "type": "function"
    },
    {
      "inputs": [
        {
          "internalType": "address",
          "name": "owner",
          "type": "address"
        }
      ],
      "name": "maxRedeem",
      "outputs": [
        {
          "internalType": "uint256",
          "name": "",
          "type": "uint256"
        }
      ],
      "stateMutability": "view",
      "type": "function"
    },
    {
      "inputs": [
        {
          "internalType": "address",
          "name": "owner",
          "type": "address"
        }
      ],
      "name": "maxWithdraw",
      "outputs": [
        {
          "internalType": "uint256",
          "name": "",
          "type": "uint256"
        }
      ],
      "stateMutability": "view",
      "type": "function"
    },
    {
      "inputs": [
        {
          "internalType": "uint256",
          "name": "shares",
          "type": "uint256"
        },
        {
          "internalType": "address",
          "name": "receiver",
          "type": "address"
        }
      ],
      "name": "mint",
      "outputs": [
        {
          "internalType": "uint256",
          "name": "",
          "type": "uint256"
        }
      ],
      "stateMutability": "nonpayable",
      "type": "function"
    },
    {
      "inputs": [],
      "name": "name",
      "outputs": [
        {
          "internalType": "string",
          "name": "",
          "type": "string"
        }
      ],
      "stateMutability": "view",
      "type": "function"
    },
    {
      "inputs": [
        {
          "internalType": "uint256",
          "name": "grossApyBps",
          "type": "uint256"
        }
      ],
      "name": "netApy",
      "outputs": [
        {
          "internalType": "uint256",
          "name": "netApyBps",
          "type": "uint256"
        }
      ],
      "stateMutability": "view",
      "type": "function"
    },
    {
      "inputs": [],
      "name": "owner",
      "outputs": [
        {
          "internalType": "address",
          "name": "",
          "type": "address"
        }
      ],
      "stateMutability": "view",
      "type": "function"
    },
    {
      "inputs": [],
      "name": "performanceFeeBps",
      "outputs": [
        {
          "internalType": "uint256",
          "name": "",
          "type": "uint256"
        }
      ],
      "stateMutability": "view",
      "type": "function"
    },
    {
      "inputs": [
        {
          "internalType": "uint256",
          "name": "assets",
          "type": "uint256"
        }
      ],
      "name": "previewDeposit",
      "outputs": [
        {
          "internalType": "uint256",
          "name": "",
          "type": "uint256"
        }
      ],
      "stateMutability": "view",
      "type": "function"
    },
    {
      "inputs": [
        {
          "internalType": "uint256",
          "name": "shares",
          "type": "uint256"
        }
      ],
      "name": "previewMint",
      "outputs": [
        {
          "internalType": "uint256",
          "name": "",
          "type": "uint256"
        }
      ],
      "stateMutability": "view",
      "type": "function"
    },
    {
      "inputs": [
        {
          "internalType": "uint256",
          "name": "shares",
          "type": "uint256"
        }
      ],
      "name": "previewRedeem",
      "outputs": [
        {
          "internalType": "uint256",
          "name": "",
          "type": "uint256"
        }
      ],
      "stateMutability": "view",
      "type": "function"
    },
    {
      "inputs": [
        {
          "internalType": "uint256",
          "name": "assets",
          "type": "uint256"
        }
      ],
      "name": "previewWithdraw",
      "outputs": [
        {
          "internalType": "uint256",
          "name": "",
          "type": "uint256"
        }
      ],
      "stateMutability": "view",
      "type": "function"
    },
    {
      "inputs": [
        {
          "internalType": "uint256",
          "name": "shares",
          "type": "uint256"
        },
        {
          "internalType": "address",
          "name": "receiver",
          "type": "address"
        },
        {
          "internalType": "address",
          "name": "owner",
          "type": "address"
        }
      ],
      "name": "redeem",
      "outputs": [
        {
          "internalType": "uint256",
          "name": "",
          "type": "uint256"
        }
      ],
      "stateMutability": "nonpayable",
      "type": "function"
    },
    {
      "inputs": [
        {
          "internalType": "address",
          "name": "",
          "type": "address"
        }
      ],
      "name": "referrerPoints",
      "outputs": [
        {
          "internalType": "uint256",
          "name": "",
          "type": "uint256"
        }
      ],
      "stateMutability": "view",
      "type": "function"
    },
    {
      "inputs": [
        {
          "internalType": "address",
          "name": "",
          "type": "address"
        }
      ],
      "name": "referrers",
      "outputs": [
        {
          "internalType": "address",
          "name": "",
          "type": "address"
        }
      ],
      "stateMutability": "view",
      "type": "function"
    },
    {
      "inputs": [],
      "name": "renounceOwnership",
      "outputs": [],
      "stateMutability": "nonpayable",
      "type": "function"
    },
    {
      "inputs": [
        {
          "internalType": "address",
          "name": "newRecipient",
          "type": "address"
        }
      ],
      "name": "setFeeRecipient",
      "outputs": [],
      "stateMutability": "nonpayable",
      "type": "function"
    },
    {
      "inputs": [
        {
          "internalType": "uint256",
          "name": "newBufferBps",
          "type": "uint256"
        }
      ],
      "name": "setLiquidityBufferBps",
      "outputs": [],
      "stateMutability": "nonpayable",
      "type": "function"
    },
    {
      "inputs": [
        {
          "internalType": "uint256",
          "name": "newFeeBps",
          "type": "uint256"
        }
      ],
      "name": "setPerformanceFeeBps",
      "outputs": [],
      "stateMutability": "nonpayable",
      "type": "function"
    },
    {
      "inputs": [
        {
          "internalType": "contract IStrategy",
          "name": "newStrategy",
          "type": "address"
        }
      ],
      "name": "setStrategy",
      "outputs": [],
      "stateMutability": "nonpayable",
      "type": "function"
    },
    {
      "inputs": [],
      "name": "strategy",
      "outputs": [
        {
          "internalType": "contract IStrategy",
          "name": "",
          "type": "address"
        }
      ],
      "stateMutability": "view",
      "type": "function"
    },
    {
      "inputs": [],
      "name": "symbol",
      "outputs": [
        {
          "internalType": "string",
          "name": "",
          "type": "string"
        }
      ],
      "stateMutability": "view",
      "type": "function"
    },
    {
      "inputs": [],
      "name": "totalAssets",
      "outputs": [
        {
          "internalType": "uint256",
          "name": "",
          "type": "uint256"
        }
      ],
      "stateMutability": "view",
      "type": "function"
    },
    {
      "inputs": [],
      "name": "totalFeesCollected",
      "outputs": [
        {
          "internalType": "uint256",
          "name": "",
          "type": "uint256"
        }
      ],
      "stateMutability": "view",
      "type": "function"
    },
    {
      "inputs": [],
      "name": "totalHarvestedProfit",
      "outputs": [
        {
          "internalType": "uint256",
          "name": "",
          "type": "uint256"
        }
      ],
      "stateMutability": "view",
      "type": "function"
    },
    {
      "inputs": [],
      "name": "totalSupply",
      "outputs": [
        {
          "internalType": "uint256",
          "name": "",
          "type": "uint256"
        }
      ],
      "stateMutability": "view",
      "type": "function"
    },
    {
      "inputs": [
        {
          "internalType": "address",
          "name": "to",
          "type": "address"
        },
        {
          "internalType": "uint256",
          "name": "value",
          "type": "uint256"
        }
      ],
      "name": "transfer",
      "outputs": [
        {
          "internalType": "bool",
          "name": "",
          "type": "bool"
        }
      ],
      "stateMutability": "nonpayable",
      "type": "function"
    },
    {
      "inputs": [
        {
          "internalType": "address",
          "name": "from",
          "type": "address"
        },
        {
          "internalType": "address",
          "name": "to",
          "type": "address"
        },
        {
          "internalType": "uint256",
          "name": "value",
          "type": "uint256"
        }
      ],
      "name": "transferFrom",
      "outputs": [
        {
          "internalType": "bool",
          "name": "",
          "type": "bool"
        }
      ],
      "stateMutability": "nonpayable",
      "type": "function"
    },
    {
      "inputs": [
        {
          "internalType": "address",
          "name": "newOwner",
          "type": "address"
        }
      ],
      "name": "transferOwnership",
      "outputs": [],
      "stateMutability": "nonpayable",
      "type": "function"
    },
    {
      "inputs": [
        {
          "internalType": "uint256",
          "name": "assets",
          "type": "uint256"
        },
        {
          "internalType": "address",
          "name": "receiver",
          "type": "address"
        },
        {
          "internalType": "address",
          "name": "owner",
          "type": "address"
        }
      ],
      "name": "withdraw",
      "outputs": [
        {
          "internalType": "uint256",
          "name": "",
          "type": "uint256"
        }
      ],
      "stateMutability": "nonpayable",
      "type": "function"
    }
  ],
  "bytecode": "0x60c06040523480156200001157600080fd5b50604051620050bc380380620050bc833981810160405281019062000037919062000941565b3386868681600390816200004c919062000c5c565b5080600490816200005e919062000c5c565b5050506000806200007583620004a460201b60201c565b91509150816200008757601262000089565b805b60ff1660a08160ff16815250508273ffffffffffffffffffffffffffffffffffffffff1660808173ffffffffffffffffffffffffffffffffffffffff1681525050505050600073ffffffffffffffffffffffffffffffffffffffff168173ffffffffffffffffffffffffffffffffffffffff1603620001425760006040517f1e4fbdf700000000000000000000000000000000000000000000000000000000815260040162000139919062000d54565b60405180910390fd5b6200015381620005be60201b60201c565b50600073ffffffffffffffffffffffffffffffffffffffff168373ffffffffffffffffffffffffffffffffffffffff1603620001c6576040517f08c379a0000000000000000000000000000000000000000000000000000000008152600401620001bd9062000dd2565b60405180910390fd5b8573ffffffffffffffffffffffffffffffffffffffff168373ffffffffffffffffffffffffffffffffffffffff166338d52e0f6040518163ffffffff1660e01b8152600401602060405180830381865afa15801562000229573d6000803e3d6000fd5b505050506040513d601f19601f820116820180604052508101906200024f919062000df4565b73ffffffffffffffffffffffffffffffffffffffff1614620002a8576040517f08c379a00000000000000000000000000000000000000000000000000000000081526004016200029f9062000e76565b60405180910390fd5b600073ffffffffffffffffffffffffffffffffffffffff168273ffffffffffffffffffffffffffffffffffffffff16036200031a576040517f08c379a0000000000000000000000000000000000000000000000000000000008152600401620003119062000ee8565b60405180910390fd5b610bb881111562000362576040517f08c379a0000000000000000000000000000000000000000000000000000000008152600401620003599062000f5a565b60405180910390fd5b82600660006101000a81548173ffffffffffffffffffffffffffffffffffffffff021916908373ffffffffffffffffffffffffffffffffffffffff16021790555081600760006101000a81548173ffffffffffffffffffffffffffffffffffffffff021916908373ffffffffffffffffffffffffffffffffffffffff160217905550806008819055506103e86009819055508573ffffffffffffffffffffffffffffffffffffffff1663095ea7b3847fffffffffffffffffffffffffffffffffffffffffffffffffffffffffffffffff6040518363ffffffff1660e01b81526004016200045192919062000f8d565b6020604051808303816000875af115801562000471573d6000803e3d6000fd5b505050506040513d601f19601f8201168201806040525081019062000497919062000ff7565b50505050505050620010c1565b6000806000808473ffffffffffffffffffffffffffffffffffffffff1660405160240160405160208183030381529060405263313ce56760e01b6020820180517bffffffffffffffffffffffffffffffffffffffffffffffffffffffff83818316178352505050506040516200051b919062001076565b600060405180830381855afa9150503d806000811462000558576040519150601f19603f3d011682016040523d82523d6000602084013e6200055d565b606091505b50915091508180156200057257506020815110155b15620005af576000818060200190518101906200059091906200108f565b905060ff80168111620005ad5760018194509450505050620005b9565b505b6000809350935050505b915091565b6000600560009054906101000a900473ffffffffffffffffffffffffffffffffffffffff16905081600560006101000a81548173ffffffffffffffffffffffffffffffffffffffff021916908373ffffffffffffffffffffffffffffffffffffffff1602179055508173ffffffffffffffffffffffffffffffffffffffff168173ffffffffffffffffffffffffffffffffffffffff167f8be0079c531659141344cd1fd0a4f28419497f9722a3daafe3b4186f6b6457e060405160405180910390a35050565b6000604051905090565b600080fd5b600080fd5b600073ffffffffffffffffffffffffffffffffffffffff82169050919050565b6000620006c58262000698565b9050919050565b6000620006d982620006b8565b9050919050565b620006eb81620006cc565b8114620006f757600080fd5b50565b6000815190506200070b81620006e0565b92915050565b600080fd5b600080fd5b6000601f19601f8301169050919050565b7f4e487b7100000000000000000000000000000000000000000000000000000000600052604160045260246000fd5b62000766826200071b565b810181811067ffffffffffffffff821117156200078857620007876200072c565b5b80604052505050565b60006200079d62000684565b9050620007ab82826200075b565b919050565b600067ffffffffffffffff821115620007ce57620007cd6200072c565b5b620007d9826200071b565b9050602081019050919050565b60005b8381101562000806578082015181840152602081019050620007e9565b60008484015250505050565b6000620008296200082384620007b0565b62000791565b90508281526020810184848401111562000848576200084762000716565b5b62000855848285620007e6565b509392505050565b600082601f83011262000875576200087462000711565b5b81516200088784826020860162000812565b91505092915050565b60006200089d82620006b8565b9050919050565b620008af8162000890565b8114620008bb57600080fd5b50565b600081519050620008cf81620008a4565b92915050565b620008e081620006b8565b8114620008ec57600080fd5b50565b6000815190506200090081620008d5565b92915050565b6000819050919050565b6200091b8162000906565b81146200092757600080fd5b50565b6000815190506200093b8162000910565b92915050565b60008060008060008060c087890312156200096157620009606200068e565b5b60006200097189828a01620006fa565b965050602087015167ffffffffffffffff81111562000995576200099462000693565b5b620009a389828a016200085d565b955050604087015167ffffffffffffffff811115620009c757620009c662000693565b5b620009d589828a016200085d565b9450506060620009e889828a01620008be565b9350506080620009fb89828a01620008ef565b92505060a062000a0e89828a016200092a565b9150509295509295509295565b600081519050919050565b7f4e487b7100000000000000000000000000000000000000000000000000000000600052602260045260246000fd5b6000600282049050600182168062000a6e57607f821691505b60208210810362000a845762000a8362000a26565b5b50919050565b60008190508160005260206000209050919050565b60006020601f8301049050919050565b600082821b905092915050565b60006008830262000aee7fffffffffffffffffffffffffffffffffffffffffffffffffffffffffffffffff8262000aaf565b62000afa868362000aaf565b95508019841693508086168417925050509392505050565b6000819050919050565b600062000b3d62000b3762000b318462000906565b62000b12565b62000906565b9050919050565b6000819050919050565b62000b598362000b1c565b62000b7162000b688262000b44565b84845462000abc565b825550505050565b600090565b62000b8862000b79565b62000b9581848462000b4e565b505050565b5b8181101562000bbd5762000bb160008262000b7e565b60018101905062000b9b565b5050565b601f82111562000c0c5762000bd68162000a8a565b62000be18462000a9f565b8101602085101562000bf1578190505b62000c0962000c008562000a9f565b83018262000b9a565b50505b505050565b600082821c905092915050565b600062000c316000198460080262000c11565b1980831691505092915050565b600062000c4c838362000c1e565b9150826002028217905092915050565b62000c678262000a1b565b67ffffffffffffffff81111562000c835762000c826200072c565b5b62000c8f825462000a55565b62000c9c82828562000bc1565b600060209050601f83116001811462000cd4576000841562000cbf578287015190505b62000ccb858262000c3e565b86555062000d3b565b601f19841662000ce48662000a8a565b60005b8281101562000d0e5784890151825560018201915060208501945060208101905062000ce7565b8683101562000d2e578489015162000d2a601f89168262000c1e565b8355505b6001600288020188555050505b505050505050565b62000d4e81620006b8565b82525050565b600060208201905062000d6b600083018462000d43565b92915050565b600082825260208201905092915050565b7f496e76616c696420737472617465677900000000000000000000000000000000600082015250565b600062000dba60108362000d71565b915062000dc78262000d82565b602082019050919050565b6000602082019050818103600083015262000ded8162000dab565b9050919050565b60006020828403121562000e0d5762000e0c6200068e565b5b600062000e1d84828501620006fa565b91505092915050565b7f4173736574206d69736d61746368000000000000000000000000000000000000600082015250565b600062000e5e600e8362000d71565b915062000e6b8262000e26565b602082019050919050565b6000602082019050818103600083015262000e918162000e4f565b9050919050565b7f496e76616c69642066656520726563697069656e740000000000000000000000600082015250565b600062000ed060158362000d71565b915062000edd8262000e98565b602082019050919050565b6000602082019050818103600083015262000f038162000ec1565b9050919050565b7f46656520746f6f20686967680000000000000000000000000000000000000000600082015250565b600062000f42600c8362000d71565b915062000f4f8262000f0a565b602082019050919050565b6000602082019050818103600083015262000f758162000f33565b9050919050565b62000f878162000906565b82525050565b600060408201905062000fa4600083018562000d43565b62000fb3602083018462000f7c565b9392505050565b60008115159050919050565b62000fd18162000fba565b811462000fdd57600080fd5b50565b60008151905062000ff18162000fc6565b92915050565b60006020828403121562001010576200100f6200068e565b5b6000620010208482850162000fe0565b91505092915050565b600081519050919050565b600081905092915050565b60006200104c8262001029565b62001058818562001034565b93506200106a818560208601620007e6565b80840191505092915050565b60006200108482846200103f565b915081905092915050565b600060208284031215620010a857620010a76200068e565b5b6000620010b8848285016200092a565b91505092915050565b60805160a051613fd5620010e76000396000610c1001526000610f8f0152613fd56000f3fe608060405234801561001057600080fd5b50600436106102a05760003560e01c806394436d1b11610167578063c6e6f592116100ce578063dd62ed3e11610087578063dd62ed3e146108df578063e74b981b1461090f578063ef8b30f71461092b578063f17af46d1461095b578063f2fde38b1461098b578063f69e2046146109a7576102a0565b8063c6e6f592146107e3578063ce96cb7714610813578063d48fbb9514610843578063d55be8c614610873578063d8cf698014610891578063d905777e146108af576102a0565b8063a99c70fb11610120578063a99c70fb146106e7578063b3d7f6b914610705578063b460af9414610735578063b9d4e87914610765578063ba08765214610783578063c63d75b6146107b3576102a0565b806394436d1b146105ff57806394bf804d1461062f57806395d89b411461065f5780639f0caac91461067d578063a8c62e7614610699578063a9059cbb146106b7576102a0565b806340d0892b1161020b5780636d81c696116101c45780636d81c6961461053b5780636e553f651461055957806370a0823114610589578063715018a6146105b95780638da5cb5b146105c3578063918f8674146105e1576102a0565b806340d0892b146104655780634641257d14610481578063469048401461049f5780634a3b68cc146104bd5780634cdad506146104ed57806360c6d8ae1461051d576102a0565b80632257a7381161025d5780632257a7381461038f57806323b872dd146103ad578063313ce567146103dd57806333a100ca146103fb57806338d52e0f14610417578063402d267d14610435576102a0565b806301e1d114146102a557806306fdde03146102c357806307a2d13a146102e1578063095ea7b3146103115780630a28a4771461034157806318160ddd14610371575b600080fd5b6102ad6109c5565b6040516102ba91906131cf565b60405180910390f35b6102cb610ae8565b6040516102d8919061327a565b60405180910390f35b6102fb60048036038101906102f691906132cd565b610b7a565b60405161030891906131cf565b60405180910390f35b61032b60048036038101906103269190613358565b610b8e565b60405161033891906133b3565b60405180910390f35b61035b600480360381019061035691906132cd565b610bb1565b60405161036891906131cf565b60405180910390f35b610379610bc5565b60405161038691906131cf565b60405180910390f35b610397610bcf565b6040516103a491906131cf565b60405180910390f35b6103c760048036038101906103c291906133ce565b610bd5565b6040516103d491906133b3565b60405180910390f35b6103e5610c04565b6040516103f2919061343d565b60405180910390f35b61041560048036038101906104109190613496565b610c3e565b005b61041f610f8b565b60405161042c91906134d2565b60405180910390f35b61044f600480360381019061044a91906134ed565b610fb3565b60405161045c91906131cf565b60405180910390f35b61047f600480360381019061047a91906132cd565b610fdd565b005b610489611075565b60405161049691906131cf565b60405180910390f35b6104a7611353565b6040516104b491906134d2565b60405180910390f35b6104d760048036038101906104d291906134ed565b611379565b6040516104e491906134d2565b60405180910390f35b610507600480360381019061050291906132cd565b6113ac565b60405161051491906131cf565b60405180910390f35b6105256113c0565b60405161053291906131cf565b60405180910390f35b6105436113c6565b60405161055091906131cf565b60405180910390f35b610573600480360381019061056e919061351a565b6113cc565b60405161058091906131cf565b60405180910390f35b6105a3600480360381019061059e91906134ed565b61144e565b6040516105b091906131cf565b60405180910390f35b6105c1611496565b005b6105cb6114aa565b6040516105d891906134d2565b60405180910390f35b6105e96114d4565b6040516105f691906131cf565b60405180910390f35b610619600480360381019061061491906132cd565b6114da565b60405161062691906131cf565b60405180910390f35b6106496004803603810190610644919061351a565b611509565b60405161065691906131cf565b60405180910390f35b61066761158b565b604051610674919061327a565b60405180910390f35b610697600480360381019061069291906132cd565b61161d565b005b6106a16116b5565b6040516106ae91906135b9565b60405180910390f35b6106d160048036038101906106cc9190613358565b6116db565b6040516106de91906133b3565b60405180910390f35b6106ef6116fe565b6040516106fc91906131cf565b60405180910390f35b61071f600480360381019061071a91906132cd565b611704565b60405161072c91906131cf565b60405180910390f35b61074f600480360381019061074a91906135d4565b611718565b60405161075c91906131cf565b60405180910390f35b61076d61179c565b60405161077a91906131cf565b60405180910390f35b61079d600480360381019061079891906135d4565b6117a2565b6040516107aa91906131cf565b60405180910390f35b6107cd60048036038101906107c891906134ed565b611826565b6040516107da91906131cf565b60405180910390f35b6107fd60048036038101906107f891906132cd565b611850565b60405161080a91906131cf565b60405180910390f35b61082d600480360381019061082891906134ed565b611864565b60405161083a91906131cf565b60405180910390f35b61085d600480360381019061085891906135d4565b611880565b60405161086a91906131cf565b60405180910390f35b61087b611c40565b60405161088891906131cf565b60405180910390f35b610899611c46565b6040516108a691906131cf565b60405180910390f35b6108c960048036038101906108c491906134ed565b611c4c565b6040516108d691906131cf565b60405180910390f35b6108f960048036038101906108f49190613627565b611c5e565b60405161090691906131cf565b60405180910390f35b610929600480360381019061092491906134ed565b611ce5565b005b610945600480360381019061094091906132cd565b611e22565b60405161095291906131cf565b60405180910390f35b610975600480360381019061097091906134ed565b611e36565b60405161098291906131cf565b60405180910390f35b6109a560048036038101906109a091906134ed565b611e4e565b005b6109af611ed4565b6040516109bc91906131cf565b60405180910390f35b60006109cf610f8b565b73ffffffffffffffffffffffffffffffffffffffff166370a08231306040518263ffffffff1660e01b8152600401610a0791906134d2565b602060405180830381865afa158015610a24573d6000803e3d6000fd5b505050506040513d601f19601f82011682018060405250810190610a48919061367c565b600660009054906101000a900473ffffffffffffffffffffffffffffffffffffffff1673ffffffffffffffffffffffffffffffffffffffff166301e1d1146040518163ffffffff1660e01b8152600401602060405180830381865afa158015610ab5573d6000803e3d6000fd5b505050506040513d601f19601f82011682018060405250810190610ad9919061367c565b610ae391906136d8565b905090565b606060038054610af79061373b565b80601f0160208091040260200160405190810160405280929190818152602001828054610b239061373b565b8015610b705780601f10610b4557610100808354040283529160200191610b70565b820191906000526020600020905b815481529060010190602001808311610b5357829003601f168201915b5050505050905090565b6000610b8782600061216e565b9050919050565b600080610b996121c7565b9050610ba68185856121cf565b600191505092915050565b6000610bbe8260016121e1565b9050919050565b6000600254905090565b600a5481565b600080610be06121c7565b9050610bed85828561223a565b610bf88585856122cf565b60019150509392505050565b6000610c0e6123c3565b7f0000000000000000000000000000000000000000000000000000000000000000610c39919061376c565b905090565b610c466123c8565b600073ffffffffffffffffffffffffffffffffffffffff168173ffffffffffffffffffffffffffffffffffffffff1603610cb5576040517f08c379a0000000000000000000000000000000000000000000000000000000008152600401610cac906137ed565b60405180910390fd5b610cbd610f8b565b73ffffffffffffffffffffffffffffffffffffffff168173ffffffffffffffffffffffffffffffffffffffff166338d52e0f6040518163ffffffff1660e01b8152600401602060405180830381865afa158015610d1e573d6000803e3d6000fd5b505050506040513d601f19601f82011682018060405250810190610d42919061384b565b73ffffffffffffffffffffffffffffffffffffffff1614610d98576040517f08c379a0000000000000000000000000000000000000000000000000000000008152600401610d8f906138c4565b60405180910390fd5b6000600660009054906101000a900473ffffffffffffffffffffffffffffffffffffffff169050610dc7610f8b565b73ffffffffffffffffffffffffffffffffffffffff1663095ea7b38260006040518363ffffffff1660e01b8152600401610e0292919061391f565b6020604051808303816000875af1158015610e21573d6000803e3d6000fd5b505050506040513d601f19601f82011682018060405250810190610e459190613974565b5081600660006101000a81548173ffffffffffffffffffffffffffffffffffffffff021916908373ffffffffffffffffffffffffffffffffffffffff160217905550610e8f610f8b565b73ffffffffffffffffffffffffffffffffffffffff1663095ea7b3837fffffffffffffffffffffffffffffffffffffffffffffffffffffffffffffffff6040518363ffffffff1660e01b8152600401610ee99291906139a1565b6020604051808303816000875af1158015610f08573d6000803e3d6000fd5b505050506040513d601f19601f82011682018060405250810190610f2c9190613974565b508173ffffffffffffffffffffffffffffffffffffffff168173ffffffffffffffffffffffffffffffffffffffff167fe4cec16b1a7e6b7979e923da619a8b1e5fd0f0fb6e5c1cf647f350430ee61ca960405160405180910390a35050565b60007f0000000000000000000000000000000000000000000000000000000000000000905090565b60007fffffffffffffffffffffffffffffffffffffffffffffffffffffffffffffffff9050919050565b610fe56123c8565b61138881111561102a576040517f08c379a000000000000000000000000000000000000000000000000000000000815260040161102190613a16565b60405180910390fd5b60006009549050816009819055507ff6fb4c7a5a25e5683f0b2b44aa75cca1fd116c6aa7932d30b385dd054734fc3d8183604051611069929190613a36565b60405180910390a15050565b6000600660009054906101000a900473ffffffffffffffffffffffffffffffffffffffff1673ffffffffffffffffffffffffffffffffffffffff16634641257d6040518163ffffffff1660e01b81526004016020604051808303816000875af11580156110e6573d6000803e3d6000fd5b505050506040513d601f19601f8201168201806040525081019061110a919061367c565b9050600081036111615742600a819055507febdd323f18ba49318367d0c92a04d5c51a67f15a60ad50d46523db464661a302600080600060405161115093929190613a5f565b60405180910390a160009050611350565b60008082905060006008541180156111c85750600073ffffffffffffffffffffffffffffffffffffffff16600760009054906101000a900473ffffffffffffffffffffffffffffffffffffffff1673ffffffffffffffffffffffffffffffffffffffff1614155b156112e057612710600854846111de9190613a96565b6111e89190613b07565b915060008211156112d157611247600760009054906101000a900473ffffffffffffffffffffffffffffffffffffffff1683611222610f8b565b73ffffffffffffffffffffffffffffffffffffffff1661244f9092919063ffffffff16565b81600c600082825461125991906136d8565b92505081905550600760009054906101000a900473ffffffffffffffffffffffffffffffffffffffff1673ffffffffffffffffffffffffffffffffffffffff167f06c5efeff5c320943d265dc4e5f1af95ad523555ce0c1957e367dda5514572df836040516112c891906131cf565b60405180910390a25b81836112dd9190613b38565b90505b60008111156112f2576112f16124ce565b5b82600b600082825461130491906136d8565b9250508190555042600a819055507febdd323f18ba49318367d0c92a04d5c51a67f15a60ad50d46523db464661a30283838360405161134593929190613b6c565b60405180910390a150505b90565b600760009054906101000a900473ffffffffffffffffffffffffffffffffffffffff1681565b600d6020528060005260406000206000915054906101000a900473ffffffffffffffffffffffffffffffffffffffff1681565b60006113b982600061216e565b9050919050565b600c5481565b60095481565b6000806113d883610fb3565b905080841115611423578284826040517f79012fb200000000000000000000000000000000000000000000000000000000815260040161141a93929190613ba3565b60405180910390fd5b600061142e85611e22565b905061144361143b6121c7565b858784612639565b809250505092915050565b60008060008373ffffffffffffffffffffffffffffffffffffffff1673ffffffffffffffffffffffffffffffffffffffff168152602001908152602001600020549050919050565b61149e6123c8565b6114a86000612653565b565b6000600560009054906101000a900473ffffffffffffffffffffffffffffffffffffffff16905090565b61271081565b6000612710600854836114ed9190613a96565b6114f79190613b07565b826115029190613b38565b9050919050565b60008061151583611826565b905080841115611560578284826040517f284ff66700000000000000000000000000000000000000000000000000000000815260040161155793929190613ba3565b60405180910390fd5b600061156b85611704565b90506115806115786121c7565b858388612639565b809250505092915050565b60606004805461159a9061373b565b80601f01602080910402602001604051908101604052809291908181526020018280546115c69061373b565b80156116135780601f106115e857610100808354040283529160200191611613565b820191906000526020600020905b8154815290600101906020018083116115f657829003601f168201915b5050505050905090565b6116256123c8565b610bb881111561166a576040517f08c379a000000000000000000000000000000000000000000000000000000000815260040161166190613c26565b60405180910390fd5b60006008549050816008819055507f607b1c943753982194530bf7133a5972ea2626e028005410efa54ab20035caf881836040516116a9929190613a36565b60405180910390a15050565b600660009054906101000a900473ffffffffffffffffffffffffffffffffffffffff1681565b6000806116e66121c7565b90506116f38185856122cf565b600191505092915050565b61138881565b600061171182600161216e565b9050919050565b60008061172483611864565b90508085111561176f578285826040517ffe9cceec00000000000000000000000000000000000000000000000000000000815260040161176693929190613ba3565b60405180910390fd5b600061177a86610bb1565b90506117906117876121c7565b86868985612719565b80925050509392505050565b60085481565b6000806117ae83611c4c565b9050808511156117f9578285826040517fb94abeec0000000000000000000000000000000000000000000000000000000081526004016117f093929190613ba3565b60405180910390fd5b6000611804866113ac565b905061181a6118116121c7565b8686848a612719565b80925050509392505050565b60007fffffffffffffffffffffffffffffffffffffffffffffffffffffffffffffffff9050919050565b600061185d8260006121e1565b9050919050565b60006118796118728361144e565b600061216e565b9050919050565b60003373ffffffffffffffffffffffffffffffffffffffff168273ffffffffffffffffffffffffffffffffffffffff16036118f0576040517f08c379a00000000000000000000000000000000000000000000000000000000081526004016118e790613c92565b60405180910390fd5b600073ffffffffffffffffffffffffffffffffffffffff168273ffffffffffffffffffffffffffffffffffffffff160361195f576040517f08c379a000000000000000000000000000000000000000000000000000000000815260040161195690613cfe565b60405180910390fd5b600073ffffffffffffffffffffffffffffffffffffffff16600d60008573ffffffffffffffffffffffffffffffffffffffff1673ffffffffffffffffffffffffffffffffffffffff16815260200190815260200160002060009054906101000a900473ffffffffffffffffffffffffffffffffffffffff1673ffffffffffffffffffffffffffffffffffffffff1603611acb5781600d60008573ffffffffffffffffffffffffffffffffffffffff1673ffffffffffffffffffffffffffffffffffffffff16815260200190815260200160002060006101000a81548173ffffffffffffffffffffffffffffffffffffffff021916908373ffffffffffffffffffffffffffffffffffffffff1602179055508173ffffffffffffffffffffffffffffffffffffffff168373ffffffffffffffffffffffffffffffffffffffff167ff61ccbe316daff56654abed758191f9a4dcac526d43747a50a2d545c0ca64d8260405160405180910390a35b611ad584846113cc565b905083600e6000600d60008773ffffffffffffffffffffffffffffffffffffffff1673ffffffffffffffffffffffffffffffffffffffff16815260200190815260200160002060009054906101000a900473ffffffffffffffffffffffffffffffffffffffff1673ffffffffffffffffffffffffffffffffffffffff1673ffffffffffffffffffffffffffffffffffffffff1681526020019081526020016000206000828254611b8591906136d8565b92505081905550600d60008473ffffffffffffffffffffffffffffffffffffffff1673ffffffffffffffffffffffffffffffffffffffff16815260200190815260200160002060009054906101000a900473ffffffffffffffffffffffffffffffffffffffff1673ffffffffffffffffffffffffffffffffffffffff167f085238ad5d205ba77f78b112469fc97024fd79f880bcdb775394559ab189f97285604051611c3191906131cf565b60405180910390a29392505050565b610bb881565b600b5481565b6000611c578261144e565b9050919050565b6000600160008473ffffffffffffffffffffffffffffffffffffffff1673ffffffffffffffffffffffffffffffffffffffff16815260200190815260200160002060008373ffffffffffffffffffffffffffffffffffffffff1673ffffffffffffffffffffffffffffffffffffffff16815260200190815260200160002054905092915050565b611ced6123c8565b600073ffffffffffffffffffffffffffffffffffffffff168173ffffffffffffffffffffffffffffffffffffffff1603611d5c576040517f08c379a0000000000000000000000000000000000000000000000000000000008152600401611d5390613d6a565b60405180910390fd5b6000600760009054906101000a900473ffffffffffffffffffffffffffffffffffffffff16905081600760006101000a81548173ffffffffffffffffffffffffffffffffffffffff021916908373ffffffffffffffffffffffffffffffffffffffff1602179055508173ffffffffffffffffffffffffffffffffffffffff168173ffffffffffffffffffffffffffffffffffffffff167faaebcf1bfa00580e41d966056b48521fa9f202645c86d4ddf28113e617c1b1d360405160405180910390a35050565b6000611e2f8260006121e1565b9050919050565b600e6020528060005260406000206000915090505481565b611e566123c8565b600073ffffffffffffffffffffffffffffffffffffffff168173ffffffffffffffffffffffffffffffffffffffff1603611ec85760006040517f1e4fbdf7000000000000000000000000000000000000000000000000000000008152600401611ebf91906134d2565b60405180910390fd5b611ed181612653565b50565b6000611ede6124ce565b600660009054906101000a900473ffffffffffffffffffffffffffffffffffffffff1673ffffffffffffffffffffffffffffffffffffffff16634641257d6040518163ffffffff1660e01b81526004016020604051808303816000875af1158015611f4d573d6000803e3d6000fd5b505050506040513d601f19601f82011682018060405250810190611f71919061367c565b90506000811115612164576000808290506000600854118015611fe35750600073ffffffffffffffffffffffffffffffffffffffff16600760009054906101000a900473ffffffffffffffffffffffffffffffffffffffff1673ffffffffffffffffffffffffffffffffffffffff1614155b156120fb5761271060085484611ff99190613a96565b6120039190613b07565b915060008211156120ec57612062600760009054906101000a900473ffffffffffffffffffffffffffffffffffffffff168361203d610f8b565b73ffffffffffffffffffffffffffffffffffffffff1661244f9092919063ffffffff16565b81600c600082825461207491906136d8565b92505081905550600760009054906101000a900473ffffffffffffffffffffffffffffffffffffffff1673ffffffffffffffffffffffffffffffffffffffff167f06c5efeff5c320943d265dc4e5f1af95ad523555ce0c1957e367dda5514572df836040516120e391906131cf565b60405180910390a25b81836120f89190613b38565b90505b600081111561210d5761210c6124ce565b5b82600b600082825461211f91906136d8565b925050819055507febdd323f18ba49318367d0c92a04d5c51a67f15a60ad50d46523db464661a30283838360405161215993929190613b6c565b60405180910390a150505b42600a8190555090565b60006121bf600161217d6109c5565b61218791906136d8565b61218f6123c3565b600a61219b9190613ebd565b6121a3610bc5565b6121ad91906136d8565b848661286c909392919063ffffffff16565b905092915050565b600033905090565b6121dc83838360016128bb565b505050565b60006122326121ee6123c3565b600a6121fa9190613ebd565b612202610bc5565b61220c91906136d8565b60016122166109c5565b61222091906136d8565b848661286c909392919063ffffffff16565b905092915050565b60006122468484611c5e565b90507fffffffffffffffffffffffffffffffffffffffffffffffffffffffffffffffff8110156122c957818110156122b9578281836040517ffb8f41b20000000000000000000000000000000000000000000000000000000081526004016122b093929190613ba3565b60405180910390fd5b6122c8848484840360006128bb565b5b50505050565b600073ffffffffffffffffffffffffffffffffffffffff168373ffffffffffffffffffffffffffffffffffffffff16036123415760006040517f96c6fd1e00000000000000000000000000000000000000000000000000000000815260040161233891906134d2565b60405180910390fd5b600073ffffffffffffffffffffffffffffffffffffffff168273ffffffffffffffffffffffffffffffffffffffff16036123b35760006040517fec442f050000000000000000000000000000000000000000000000000000000081526004016123aa91906134d2565b60405180910390fd5b6123be838383612a92565b505050565b600090565b6123d06121c7565b73ffffffffffffffffffffffffffffffffffffffff166123ee6114aa565b73ffffffffffffffffffffffffffffffffffffffff161461244d576124116121c7565b6040517f118cdaa700000000000000000000000000000000000000000000000000000000815260040161244491906134d2565b60405180910390fd5b565b6124c9838473ffffffffffffffffffffffffffffffffffffffff1663a9059cbb85856040516024016124829291906139a1565b604051602081830303815290604052915060e01b6020820180517bffffffffffffffffffffffffffffffffffffffffffffffffffffffff8381831617835250505050612cb7565b505050565b60006124d86109c5565b9050600081036124e85750612637565b6000612710600954836124fb9190613a96565b6125059190613b07565b90506000612511610f8b565b73ffffffffffffffffffffffffffffffffffffffff166370a08231306040518263ffffffff1660e01b815260040161254991906134d2565b602060405180830381865afa158015612566573d6000803e3d6000fd5b505050506040513d601f19601f8201168201806040525081019061258a919061367c565b90508181111561263357600082826125a29190613b38565b9050600660009054906101000a900473ffffffffffffffffffffffffffffffffffffffff1673ffffffffffffffffffffffffffffffffffffffff16632afcf480826040518263ffffffff1660e01b81526004016125ff91906131cf565b600060405180830381600087803b15801561261957600080fd5b505af115801561262d573d6000803e3d6000fd5b50505050505b5050505b565b61264584848484612d59565b61264d6124ce565b50505050565b6000600560009054906101000a900473ffffffffffffffffffffffffffffffffffffffff16905081600560006101000a81548173ffffffffffffffffffffffffffffffffffffffff021916908373ffffffffffffffffffffffffffffffffffffffff1602179055508173ffffffffffffffffffffffffffffffffffffffff168173ffffffffffffffffffffffffffffffffffffffff167f8be0079c531659141344cd1fd0a4f28419497f9722a3daafe3b4186f6b6457e060405160405180910390a35050565b6000612723610f8b565b73ffffffffffffffffffffffffffffffffffffffff166370a08231306040518263ffffffff1660e01b815260040161275b91906134d2565b602060405180830381865afa158015612778573d6000803e3d6000fd5b505050506040513d601f19601f8201168201806040525081019061279c919061367c565b90508083111561285757600081846127b49190613b38565b9050600660009054906101000a900473ffffffffffffffffffffffffffffffffffffffff1673ffffffffffffffffffffffffffffffffffffffff16638ca17995826040518263ffffffff1660e01b815260040161281191906131cf565b6020604051808303816000875af1158015612830573d6000803e3d6000fd5b505050506040513d601f19601f82011682018060405250810190612854919061367c565b50505b6128648686868686612de3565b505050505050565b600061289c61287a83612ec3565b801561289757506000848061289257612891613ad8565b5b868809115b612ef1565b6128a7868686612efd565b6128b191906136d8565b9050949350505050565b600073ffffffffffffffffffffffffffffffffffffffff168473ffffffffffffffffffffffffffffffffffffffff160361292d5760006040517fe602df0500000000000000000000000000000000000000000000000000000000815260040161292491906134d2565b60405180910390fd5b600073ffffffffffffffffffffffffffffffffffffffff168373ffffffffffffffffffffffffffffffffffffffff160361299f5760006040517f94280d6200000000000000000000000000000000000000000000000000000000815260040161299691906134d2565b60405180910390fd5b81600160008673ffffffffffffffffffffffffffffffffffffffff1673ffffffffffffffffffffffffffffffffffffffff16815260200190815260200160002060008573ffffffffffffffffffffffffffffffffffffffff1673ffffffffffffffffffffffffffffffffffffffff168152602001908152602001600020819055508015612a8c578273ffffffffffffffffffffffffffffffffffffffff168473ffffffffffffffffffffffffffffffffffffffff167f8c5be1e5ebec7d5bd14f71427d1e84f3dd0314c0f7b2291e5b200ac8c7c3b92584604051612a8391906131cf565b60405180910390a35b50505050565b600073ffffffffffffffffffffffffffffffffffffffff168373ffffffffffffffffffffffffffffffffffffffff1603612ae4578060026000828254612ad891906136d8565b92505081905550612bb7565b60008060008573ffffffffffffffffffffffffffffffffffffffff1673ffffffffffffffffffffffffffffffffffffffff16815260200190815260200160002054905081811015612b70578381836040517fe450d38c000000000000000000000000000000000000000000000000000000008152600401612b6793929190613ba3565b60405180910390fd5b8181036000808673ffffffffffffffffffffffffffffffffffffffff1673ffffffffffffffffffffffffffffffffffffffff16815260200190815260200160002081905550505b600073ffffffffffffffffffffffffffffffffffffffff168273ffffffffffffffffffffffffffffffffffffffff1603612c005780600260008282540392505081905550612c4d565b806000808473ffffffffffffffffffffffffffffffffffffffff1673ffffffffffffffffffffffffffffffffffffffff168152602001908152602001600020600082825401925050819055505b8173ffffffffffffffffffffffffffffffffffffffff168373ffffffffffffffffffffffffffffffffffffffff167fddf252ad1be2c89b69c2b068fc378daa952ba7f163c4a11628f55a4df523b3ef83604051612caa91906131cf565b60405180910390a3505050565b600080602060008451602086016000885af180612cda576040513d6000823e3d81fd5b3d925060005191505060008214612cf5576001811415612d11565b60008473ffffffffffffffffffffffffffffffffffffffff163b145b15612d5357836040517f5274afe7000000000000000000000000000000000000000000000000000000008152600401612d4a91906134d2565b60405180910390fd5b50505050565b612d6c612d64610f8b565b853085612fe5565b612d768382613067565b8273ffffffffffffffffffffffffffffffffffffffff168473ffffffffffffffffffffffffffffffffffffffff167fdcbc1c05240f31ff3ad067ef1ee35ce4997762752e3a095284754544f4c709d78484604051612dd5929190613a36565b60405180910390a350505050565b8273ffffffffffffffffffffffffffffffffffffffff168573ffffffffffffffffffffffffffffffffffffffff1614612e2257612e2183868361223a565b5b612e2c83826130e9565b612e3e612e37610f8b565b858461244f565b8273ffffffffffffffffffffffffffffffffffffffff168473ffffffffffffffffffffffffffffffffffffffff168673ffffffffffffffffffffffffffffffffffffffff167ffbde797d201c681b91056529119e0b02407c7bb96a4a2c75c01fc9667232c8db8585604051612eb4929190613a36565b60405180910390a45050505050565b600060016002836003811115612edc57612edb613f08565b5b612ee69190613f37565b60ff16149050919050565b60008115159050919050565b6000806000612f0c868661316b565b9150915060008203612f3257838181612f2857612f27613ad8565b5b0492505050612fde565b818411612f5257612f51612f4c600086146012601161318a565b6131a4565b5b600084868809905081811183039250808203915060008560000386169050808604955080830492506001818260000304019050808402831792506000600287600302189050808702600203810290508087026002038102905080870260020381029050808702600203810290508087026002038102905080870260020381029050808402955050505050505b9392505050565b613061848573ffffffffffffffffffffffffffffffffffffffff166323b872dd86868660405160240161301a93929190613f68565b604051602081830303815290604052915060e01b6020820180517bffffffffffffffffffffffffffffffffffffffffffffffffffffffff8381831617835250505050612cb7565b50505050565b600073ffffffffffffffffffffffffffffffffffffffff168273ffffffffffffffffffffffffffffffffffffffff16036130d95760006040517fec442f050000000000000000000000000000000000000000000000000000000081526004016130d091906134d2565b60405180910390fd5b6130e560008383612a92565b5050565b600073ffffffffffffffffffffffffffffffffffffffff168273ffffffffffffffffffffffffffffffffffffffff160361315b5760006040517f96c6fd1e00000000000000000000000000000000000000000000000000000000815260040161315291906134d2565b60405180910390fd5b61316782600083612a92565b5050565b6000806000198385098385029150818110828203039250509250929050565b600061319584612ef1565b82841802821890509392505050565b634e487b71600052806020526024601cfd5b6000819050919050565b6131c9816131b6565b82525050565b60006020820190506131e460008301846131c0565b92915050565b600081519050919050565b600082825260208201905092915050565b60005b83811015613224578082015181840152602081019050613209565b60008484015250505050565b6000601f19601f8301169050919050565b600061324c826131ea565b61325681856131f5565b9350613266818560208601613206565b61326f81613230565b840191505092915050565b600060208201905081810360008301526132948184613241565b905092915050565b600080fd5b6132aa816131b6565b81146132b557600080fd5b50565b6000813590506132c7816132a1565b92915050565b6000602082840312156132e3576132e261329c565b5b60006132f1848285016132b8565b91505092915050565b600073ffffffffffffffffffffffffffffffffffffffff82169050919050565b6000613325826132fa565b9050919050565b6133358161331a565b811461334057600080fd5b50565b6000813590506133528161332c565b92915050565b6000806040838503121561336f5761336e61329c565b5b600061337d85828601613343565b925050602061338e858286016132b8565b9150509250929050565b60008115159050919050565b6133ad81613398565b82525050565b60006020820190506133c860008301846133a4565b92915050565b6000806000606084860312156133e7576133e661329c565b5b60006133f586828701613343565b935050602061340686828701613343565b9250506040613417868287016132b8565b9150509250925092565b600060ff82169050919050565b61343781613421565b82525050565b6000602082019050613452600083018461342e565b92915050565b60006134638261331a565b9050919050565b61347381613458565b811461347e57600080fd5b50565b6000813590506134908161346a565b92915050565b6000602082840312156134ac576134ab61329c565b5b60006134ba84828501613481565b91505092915050565b6134cc8161331a565b82525050565b60006020820190506134e760008301846134c3565b92915050565b6000602082840312156135035761350261329c565b5b600061351184828501613343565b91505092915050565b600080604083850312156135315761353061329c565b5b600061353f858286016132b8565b925050602061355085828601613343565b9150509250929050565b6000819050919050565b600061357f61357a613575846132fa565b61355a565b6132fa565b9050919050565b600061359182613564565b9050919050565b60006135a382613586565b9050919050565b6135b381613598565b82525050565b60006020820190506135ce60008301846135aa565b92915050565b6000806000606084860312156135ed576135ec61329c565b5b60006135fb868287016132b8565b935050602061360c86828701613343565b925050604061361d86828701613343565b9150509250925092565b6000806040838503121561363e5761363d61329c565b5b600061364c85828601613343565b925050602061365d85828601613343565b9150509250929050565b600081519050613676816132a1565b92915050565b6000602082840312156136925761369161329c565b5b60006136a084828501613667565b91505092915050565b7f4e487b7100000000000000000000000000000000000000000000000000000000600052601160045260246000fd5b60006136e3826131b6565b91506136ee836131b6565b9250828201905080821115613706576137056136a9565b5b92915050565b7f4e487b7100000000000000000000000000000000000000000000000000000000600052602260045260246000fd5b6000600282049050600182168061375357607f821691505b6020821081036137665761376561370c565b5b50919050565b600061377782613421565b915061378283613421565b9250828201905060ff81111561379b5761379a6136a9565b5b92915050565b7f496e76616c696420737472617465677900000000000000000000000000000000600082015250565b60006137d76010836131f5565b91506137e2826137a1565b602082019050919050565b60006020820190508181036000830152613806816137ca565b9050919050565b60006138188261331a565b9050919050565b6138288161380d565b811461383357600080fd5b50565b6000815190506138458161381f565b92915050565b6000602082840312156138615761386061329c565b5b600061386f84828501613836565b91505092915050565b7f4173736574206d69736d61746368000000000000000000000000000000000000600082015250565b60006138ae600e836131f5565b91506138b982613878565b602082019050919050565b600060208201905081810360008301526138dd816138a1565b9050919050565b6000819050919050565b60006139096139046138ff846138e4565b61355a565b6131b6565b9050919050565b613919816138ee565b82525050565b600060408201905061393460008301856134c3565b6139416020830184613910565b9392505050565b61395181613398565b811461395c57600080fd5b50565b60008151905061396e81613948565b92915050565b60006020828403121561398a5761398961329c565b5b60006139988482850161395f565b91505092915050565b60006040820190506139b660008301856134c3565b6139c360208301846131c0565b9392505050565b7f42756666657220746f6f20686967680000000000000000000000000000000000600082015250565b6000613a00600f836131f5565b9150613a0b826139ca565b602082019050919050565b60006020820190508181036000830152613a2f816139f3565b9050919050565b6000604082019050613a4b60008301856131c0565b613a5860208301846131c0565b9392505050565b6000606082019050613a746000830186613910565b613a816020830185613910565b613a8e6040830184613910565b949350505050565b6000613aa1826131b6565b9150613aac836131b6565b9250828202613aba816131b6565b91508282048414831517613ad157613ad06136a9565b5b5092915050565b7f4e487b7100000000000000000000000000000000000000000000000000000000600052601260045260246000fd5b6000613b12826131b6565b9150613b1d836131b6565b925082613b2d57613b2c613ad8565b5b828204905092915050565b6000613b43826131b6565b9150613b4e836131b6565b9250828203905081811115613b6657613b656136a9565b5b92915050565b6000606082019050613b8160008301866131c0565b613b8e60208301856131c0565b613b9b60408301846131c0565b949350505050565b6000606082019050613bb860008301866134c3565b613bc560208301856131c0565b613bd260408301846131c0565b949350505050565b7f46656520746f6f20686967680000000000000000000000000000000000000000600082015250565b6000613c10600c836131f5565b9150613c1b82613bda565b602082019050919050565b60006020820190508181036000830152613c3f81613c03565b9050919050565b7f43616e6e6f7420726566657220796f757273656c660000000000000000000000600082015250565b6000613c7c6015836131f5565b9150613c8782613c46565b602082019050919050565b60006020820190508181036000830152613cab81613c6f565b9050919050565b7f496e76616c696420726566657272657200000000000000000000000000000000600082015250565b6000613ce86010836131f5565b9150613cf382613cb2565b602082019050919050565b60006020820190508181036000830152613d1781613cdb565b9050919050565b7f496e76616c69642066656520726563697069656e740000000000000000000000600082015250565b6000613d546015836131f5565b9150613d5f82613d1e565b602082019050919050565b60006020820190508181036000830152613d8381613d47565b9050919050565b60008160011c9050919050565b6000808291508390505b6001851115613de157808604811115613dbd57613dbc6136a9565b5b6001851615613dcc5780820291505b8081029050613dda85613d8a565b9450613da1565b94509492505050565b600082613dfa5760019050613eb6565b81613e085760009050613eb6565b8160018114613e1e5760028114613e2857613e57565b6001915050613eb6565b60ff841115613e3a57613e396136a9565b5b8360020a915084821115613e5157613e506136a9565b5b50613eb6565b5060208310610133831016604e8410600b8410161715613e8c5782820a905083811115613e8757613e866136a9565b5b613eb6565b613e998484846001613d97565b92509050818404811115613eb057613eaf6136a9565b5b81810290505b9392505050565b6000613ec8826131b6565b9150613ed383613421565b9250613f007fffffffffffffffffffffffffffffffffffffffffffffffffffffffffffffffff8484613dea565b905092915050565b7f4e487b7100000000000000000000000000000000000000000000000000000000600052602160045260246000fd5b6000613f4282613421565b9150613f4d83613421565b925082613f5d57613f5c613ad8565b5b828206905092915050565b6000606082019050613f7d60008301866134c3565b613f8a60208301856134c3565b613f9760408301846131c0565b94935050505056fea2646970667358221220d9c703f51405bf8a2d4b92ce0821292cc2eb0050058e741794b9aa9d7e59c65a64736f6c63430008140033",
  "linkReferences": {},
  "deployedLinkReferences": {}
}