{
  "_format": "hh-sol-artifact-1",
  "contractName": "OmniYieldVault",
  "sourceName": "contracts/OmniYieldVault.sol",
  "abi": [
    {
      "inputs": [
        {
          "internalType": "contract IERC20",
          "name": "asset_",
          "type": "address"
        },
        {
          "internalType": "string",
          "name": "name_",
          "type": "string"
        },
        {
          "internalType": "string",
          "name": "symbol_",
          "type": "string"
        },
        {
          "internalType": "contract IStrategy",
          "name": "strategy_",
          "type": "address"
        },
        {
          "internalType": "address",
          "name": "feeRecipient_",
          "type": "address"
        },
        {
          "internalType": "uint256",
          "name": "performanceFeeBps_",
          "type": "uint256"
        }
      ],
      "stateMutability": "nonpayable",
      "type": "constructor"
    },
    {
      "inputs": [
        {
          "internalType": "address",
          "name": "spender",
          "type": "address"
        },
        {
          "internalType": "uint256",
          "name": "allowance",
          "type": "uint256"
        },
        {
          "internalType": "uint256",
          "name": "needed",
          "type": "uint256"
        }
      ],
      "name": "ERC20InsufficientAllowance",
      "type": "error"
    },
    {
      "inputs": [
        {
          "internalType": "address",
          "name": "sender",
          "type": "address"
        },
        {
          "internalType": "uint256",
          "name": "balance",
          "type": "uint256"
        },
        {
          "internalType": "uint256",
          "name": "needed",
          "type": "uint256"
        }
      ],
      "name": "ERC20InsufficientBalance",
      "type": "error"
    },
    {
      "inputs": [
        {
          "internalType": "address",
          "name": "approver",
          "type": "address"
        }
      ],
      "name": "ERC20InvalidApprover",
      "type": "error"
    },
    {
      "inputs": [
        {
          "internalType": "address",
          "name": "receiver",
          "type": "address"
        }
      ],
      "name": "ERC20InvalidReceiver",
      "type": "error"
    },
    {
      "inputs": [
        {
          "internalType": "address",
          "name": "sender",
          "type": "address"
        }
      ],
      "name": "ERC20InvalidSender",
      "type": "error"
    },
    {
      "inputs": [
        {
          "internalType": "address",
          "name": "spender",
          "type": "address"
        }
      ],
      "name": "ERC20InvalidSpender",
      "type": "error"
    },
    {
      "inputs": [
        {
          "internalType": "address",
          "name": "receiver",
          "type": "address"
        },
        {
          "internalType": "uint256",
          "name": "assets",
          "type": "uint256"
        },
        {
          "internalType": "uint256",
          "name": "max",
          "type": "uint256"
        }
      ],
      "name": "ERC4626ExceededMaxDeposit",
      "type": "error"
    },
    {
      "inputs": [
        {
          "internalType": "address",
          "name": "receiver",
          "type": "address"
        },
        {
          "internalType": "uint256",
          "name": "shares",
          "type": "uint256"
        },
        {
          "internalType": "uint256",
          "name": "max",
          "type": "uint256"
        }
      ],
      "name": "ERC4626ExceededMaxMint",
      "type": "error"
    },
    {
      "inputs": [
        {
          "internalType": "address",
          "name": "owner",
          "type": "address"
        },
        {
          "internalType": "uint256",
          "name": "shares",
          "type": "uint256"
        },
        {
          "internalType": "uint256",
          "name": "max",
          "type": "uint256"
        }
      ],
      "name": "ERC4626ExceededMaxRedeem",
      "type": "error"
    },
    {
      "inputs": [
        {
          "internalType": "address",
          "name": "owner",
          "type": "address"
        },
        {
          "internalType": "uint256",
          "name": "assets",
          "type": "uint256"
        },
        {
          "internalType": "uint256",
          "name": "max",
          "type": "uint256"
        }
      ],
      "name": "ERC4626ExceededMaxWithdraw",
      "type": "error"
    },
    {
      "inputs": [
        {
          "internalType": "address",
          "name": "owner",
          "type": "address"
        }
      ],
      "name": "OwnableInvalidOwner",
      "type": "error"
    },
    {
      "inputs": [
        {
          "internalType": "address",
          "name": "account",
          "type": "address"
        }
      ],
      "name": "OwnableUnauthorizedAccount",
      "type": "error"
    },
    {
      "inputs": [
        {
          "internalType": "address",
          "name": "token",
          "type": "address"
        }
      ],
      "name": "SafeERC20FailedOperation",
      "type": "error"
    },
    {
      "anonymous": false,
      "inputs": [
        {
          "indexed": true,
          "internalType": "address",
          "name": "owner",
          "type": "address"
        },
        {
          "indexed": true,
          "internalType": "address",
          "name": "spender",
          "type": "address"
        },
        {
          "indexed": false,
          "internalType": "uint256",
          "name": "value",
          "type": "uint256"
        }
      ],
      "name": "Approval",
      "type": "event"
    },
    {
      "anonymous": false,
      "inputs": [
        {
          "indexed": true,
          "internalType": "address",
          "name": "sender",
          "type": "address"
        },
        {
          "indexed": true,
          "internalType": "address",
          "name": "owner",
          "type": "address"
        },
        {
          "indexed": false,
          "internalType": "uint256",
          "name": "assets",
          "type": "uint256"
        },
        {
          "indexed": false,
          "internalType": "uint256",
          "name": "shares",
          "type": "uint256"
        }
      ],
      "name": "Deposit",
      "type": "event"
    },
    {
      "anonymous": false,
      "inputs": [
        {
          "indexed": true,
          "internalType": "address",
          "name": "recipient",
          "type": "address"
        },
        {
          "indexed": false,
          "internalType": "uint256",
          "name": "amount",
          "type": "uint256"
        }
      ],
      "name": "FeeCollected",
      "type": "event"
    },
    {
      "anonymous": false,
      "inputs": [
        {
          "indexed": true,
          "internalType": "address",
          "name": "oldRecipient",
          "type": "address"
        },
        {
          "indexed": true,
          "internalType": "address",
          "name": "newRecipient",
          "type": "address"
        }
      ],
      "name": "FeeRecipientUpdated",
      "type": "event"
    },
    {
      "anonymous": false,
      "inputs": [
        {
          "indexed": false,
          "internalType": "uint256",
          "name": "profit",
          "type": "uint256"
        },
        {
          "indexed": false,
          "internalType": "uint256",
          "name": "fee",
          "type": "uint256"
        },
        {
          "indexed": false,
          "internalType": "uint256",
          "name": "reinvested",
          "type": "uint256"
        }
      ],
      "name": "Harvested",
      "type": "event"
    },
    {
      "anonymous": false,
      "inputs": [
        {
          "indexed": true,
          "internalType": "address",
          "name": "previousOwner",
          "type": "address"
        },
        {
          "indexed": true,
          "internalType": "address",
          "name": "newOwner",
          "type": "address"
        }
      ],
      "name": "OwnershipTransferred",
      "type": "event"
    },
    {
      "anonymous": false,
      "inputs": [
        {
          "indexed": false,
          "internalType": "uint256",
          "name": "oldFeeBps",
          "type": "uint256"
        },
        {
          "indexed": false,
          "internalType": "uint256",
          "name": "newFeeBps",
          "type": "uint256"
        }
      ],
      "name": "PerformanceFeeUpdated",
      "type": "event"
    },
    {
      "anonymous": false,
      "inputs": [
        {
          "indexed": true,
          "internalType": "address",
          "name": "oldStrategy",
          "type": "address"
        },
        {
          "indexed": true,
          "internalType": "address",
          "name": "newStrategy",
          "type": "address"
        }
      ],
      "name": "StrategyUpdated",
      "type": "event"
    },
    {
      "anonymous": false,
      "inputs": [
        {
          "indexed": true,
          "internalType": "address",
          "name": "from",
          "type": "address"
        },
        {
          "indexed": true,
          "internalType": "address",
          "name": "to",
          "type": "address"
        },
        {
          "indexed": false,
          "internalType": "uint256",
          "name": "value",
          "type": "uint256"
        }
      ],
      "name": "Transfer",
      "type": "event"
    },
    {
      "anonymous": false,
      "inputs": [
        {
          "indexed": true,
          "internalType": "address",
          "name": "sender",
          "type": "address"
        },
        {
          "indexed": true,
          "internalType": "address",
          "name": "receiver",
          "type": "address"
        },
        {
          "indexed": true,
          "internalType": "address",
          "name": "owner",
          "type": "address"
        },
        {
          "indexed": false,
          "internalType": "uint256",
          "name": "assets",
          "type": "uint256"
        },
        {
          "indexed": false,
          "internalType": "uint256",
          "name": "shares",
          "type": "uint256"
        }
      ],
      "name": "Withdraw",
      "type": "event"
    },
    {
      "inputs": [],
      "name": "FEE_DENOMINATOR",
      "outputs": [
        {
          "internalType": "uint256",
          "name": "",
          "type": "uint256"
        }
      ],
      "stateMutability": "view",
      "type": "function"
    },
    {
      "inputs": [],
      "name": "MAX_FEE_BPS",
      "outputs": [
        {
          "internalType": "uint256",
          "name": "",
          "type": "uint256"
        }
      ],
      "stateMutability": "view",
      "type": "function"
    },
    {
      "inputs": [
        {
          "internalType": "address",
          "name": "owner",
          "type": "address"
        },
        {
          "internalType": "address",
          "name": "spender",
          "type": "address"
        }
      ],
      "name": "allowance",
      "outputs": [
        {
          "internalType": "uint256",
          "name": "",
          "type": "uint256"
        }
      ],
      "stateMutability": "view",
      "type": "function"
    },
    {
      "inputs": [
        {
          "internalType": "address",
          "name": "spender",
          "type": "address"
        },
        {
          "internalType": "uint256",
          "name": "value",
          "type": "uint256"
        }
      ],
      "name": "approve",
      "outputs": [
        {
          "internalType": "bool",
          "name": "",
          "type": "bool"
        }
      ],
      "stateMutability": "nonpayable",
      "type": "function"
    },
    {
      "inputs": [],
      "name": "asset",
      "outputs": [
        {
          "internalType": "address",
          "name": "",
          "type": "address"
        }
      ],
      "stateMutability": "view",
      "type": "function"
    },
    {
      "inputs": [
        {
          "internalType": "address",
          "name": "account",
          "type": "address"
        }
      ],
      "name": "balanceOf",
      "outputs": [
        {
          "internalType": "uint256",
          "name": "",
          "type": "uint256"
        }
      ],
      "stateMutability": "view",
      "type": "function"
    },
    {
      "inputs": [],
      "name": "compound",
      "outputs": [
        {
          "internalType": "uint256",
          "name": "profit",
          "type": "uint256"
        }
      ],
      "stateMutability": "nonpayable",
      "type": "function"
    },
    {
      "inputs": [
        {
          "internalType": "uint256",
          "name": "shares",
          "type": "uint256"
        }
      ],
      "name": "convertToAssets",
      "outputs": [
        {
          "internalType": "uint256",
          "name": "",
          "type": "uint256"
        }
      ],
      "stateMutability": "view",
      "type": "function"
    },
    {
      "inputs": [
        {
          "internalType": "uint256",
          "name": "assets",
          "type": "uint256"
        }
      ],
      "name": "convertToShares",
      "outputs": [
        {
          "internalType": "uint256",
          "name": "",
          "type": "uint256"
        }
      ],
      "stateMutability": "view",
      "type": "function"
    },
    {
      "inputs": [],
      "name": "decimals",
      "outputs": [
        {
          "internalType": "uint8",
          "name": "",
          "type": "uint8"
        }
      ],
      "stateMutability": "view",
      "type": "function"
    },
    {
      "inputs": [
        {
          "internalType": "uint256",
          "name": "assets",
          "type": "uint256"
        },
        {
          "internalType": "address",
          "name": "receiver",
          "type": "address"
        }
      ],
      "name": "deposit",
      "outputs": [
        {
          "internalType": "uint256",
          "name": "",
          "type": "uint256"
        }
      ],
      "stateMutability": "nonpayable",
      "type": "function"
    },
    {
      "inputs": [],
      "name": "feeRecipient",
      "outputs": [
        {
          "internalType": "address",
          "name": "",
          "type": "address"
        }
      ],
      "stateMutability": "view",
      "type": "function"
    },
    {
      "inputs": [],
      "name": "harvest",
      "outputs": [
        {
          "internalType": "uint256",
          "name": "profit",
          "type": "uint256"
        }
      ],
      "stateMutability": "nonpayable",
      "type": "function"
    },
    {
      "inputs": [],
      "name": "lastHarvestTimestamp",
      "outputs": [
        {
          "internalType": "uint256",
          "name": "",
          "type": "uint256"
        }
      ],
      "stateMutability": "view",
      "type": "function"
    },
    {
      "inputs": [
        {
          "internalType": "address",
          "name": "",
          "type": "address"
        }
      ],
      "name": "maxDeposit",
      "outputs": [
        {
          "internalType": "uint256",
          "name": "",
          "type": "uint256"
        }
      ],
      "stateMutability": "view",
      "type": "function"
    },
    {
      "inputs": [
        {
          "internalType": "address",
          "name": "",
          "type": "address"
        }
      ],
      "name": "maxMint",
      "outputs": [
        {
          "internalType": "uint256",
          "name": "",
          "type": "uint256"
        }
      ],
      "stateMutability": "view",
      "type": "function"
    },
    {
      "inputs": [
        {
          "internalType": "address",
          "name": "owner",
          "type": "address"
        }
      ],
      "name": "maxRedeem",
      "outputs": [
        {
          "internalType": "uint256",
          "name": "",
          "type": "uint256"
        }
      ],
      "stateMutability": "view",
      "type": "function"
    },
    {
      "inputs": [
        {
          "internalType": "address",
          "name": "owner",
          "type": "address"
        }
      ],
      "name": "maxWithdraw",
      "outputs": [
        {
          "internalType": "uint256",
          "name": "",
          "type": "uint256"
        }
      ],
      "stateMutability": "view",
      "type": "function"
    },
    {
      "inputs": [
        {
          "internalType": "uint256",
          "name": "shares",
          "type": "uint256"
        },
        {
          "internalType": "address",
          "name": "receiver",
          "type": "address"
        }
      ],
      "name": "mint",
      "outputs": [
        {
          "internalType": "uint256",
          "name": "",
          "type": "uint256"
        }
      ],
      "stateMutability": "nonpayable",
      "type": "function"
    },
    {
      "inputs": [],
      "name": "name",
      "outputs": [
        {
          "internalType": "string",
          "name": "",
          "type": "string"
        }
      ],
      "stateMutability": "view",
      "type": "function"
    },
    {
      "inputs": [
        {
          "internalType": "uint256",
          "name": "grossApyBps",
          "type": "uint256"
        }
      ],
      "name": "netApy",
      "outputs": [
        {
          "internalType": "uint256",
          "name": "netApyBps",
          "type": "uint256"
        }
      ],
      "stateMutability": "view",
      "type": "function"
    },
    {
      "inputs": [],
      "name": "owner",
      "outputs": [
        {
          "internalType": "address",
          "name": "",
          "type": "address"
        }
      ],
      "stateMutability": "view",
      "type": "function"
    },
    {
      "inputs": [],
      "name": "performanceFeeBps",
      "outputs": [
        {
          "internalType": "uint256",
          "name": "",
          "type": "uint256"
        }
      ],
      "stateMutability": "view",
      "type": "function"
    },
    {
      "inputs": [
        {
          "internalType": "uint256",
          "name": "assets",
          "type": "uint256"
        }
      ],
      "name": "previewDeposit",
      "outputs": [
        {
          "internalType": "uint256",
          "name": "",
          "type": "uint256"
        }
      ],
      "stateMutability": "view",
      "type": "function"
    },
    {
      "inputs": [
        {
          "internalType": "uint256",
          "name": "shares",
          "type": "uint256"
        }
      ],
      "name": "previewMint",
      "outputs": [
        {
          "internalType": "uint256",
          "name": "",
          "type": "uint256"
        }
      ],
      "stateMutability": "view",
      "type": "function"
    },
    {
      "inputs": [
        {
          "internalType": "uint256",
          "name": "shares",
          "type": "uint256"
        }
      ],
      "name": "previewRedeem",
      "outputs": [
        {
          "internalType": "uint256",
          "name": "",
          "type": "uint256"
        }
      ],
      "stateMutability": "view",
      "type": "function"
    },
    {
      "inputs": [
        {
          "internalType": "uint256",
          "name": "assets",
          "type": "uint256"
        }
      ],
      "name": "previewWithdraw",
      "outputs": [
        {
          "internalType": "uint256",
          "name": "",
          "type": "uint256"
        }
      ],
      "stateMutability": "view",
      "type": "function"
    },
    {
      "inputs": [
        {
          "internalType": "uint256",
          "name": "shares",
          "type": "uint256"
        },
        {
          "internalType": "address",
          "name": "receiver",
          "type": "address"
        },
        {
          "internalType": "address",
          "name": "owner",
          "type": "address"
        }
      ],
      "name": "redeem",
      "outputs": [
        {
          "internalType": "uint256",
          "name": "",
          "type": "uint256"
        }
      ],
      "stateMutability": "nonpayable",
      "type": "function"
    },
    {
      "inputs": [],
      "name": "renounceOwnership",
      "outputs": [],
      "stateMutability": "nonpayable",
      "type": "function"
    },
    {
      "inputs": [
        {
          "internalType": "address",
          "name": "newRecipient",
          "type": "address"
        }
      ],
      "name": "setFeeRecipient",
      "outputs": [],
      "stateMutability": "nonpayable",
      "type": "function"
    },
    {
      "inputs": [
        {
          "internalType": "uint256",
          "name": "newFeeBps",
          "type": "uint256"
        }
      ],
      "name": "setPerformanceFeeBps",
      "outputs": [],
      "stateMutability": "nonpayable",
      "type": "function"
    },
    {
      "inputs": [
        {
          "internalType": "contract IStrategy",
          "name": "newStrategy",
          "type": "address"
        }
      ],
      "name": "setStrategy",
      "outputs": [],
      "stateMutability": "nonpayable",
      "type": "function"
    },
    {
      "inputs": [],
      "name": "strategy",
      "outputs": [
        {
          "internalType": "contract IStrategy",
          "name": "",
          "type": "address"
        }
      ],
      "stateMutability": "view",
      "type": "function"
    },
    {
      "inputs": [],
      "name": "symbol",
      "outputs": [
        {
          "internalType": "string",
          "name": "",
          "type": "string"
        }
      ],
      "stateMutability": "view",
      "type": "function"
    },
    {
      "inputs": [],
      "name": "totalAssets",
      "outputs": [
        {
          "internalType": "uint256",
          "name": "",
          "type": "uint256"
        }
      ],
      "stateMutability": "view",
      "type": "function"
    },
    {
      "inputs": [],
      "name": "totalFeesCollected",
      "outputs": [
        {
          "internalType": "uint256",
          "name": "",
          "type": "uint256"
        }
      ],
      "stateMutability": "view",
      "type": "function"
    },
    {
      "inputs": [],
      "name": "totalHarvestedProfit",
      "outputs": [
        {
          "internalType": "uint256",
          "name": "",
          "type": "uint256"
        }
      ],
      "stateMutability": "view",
      "type": "function"
    },
    {
      "inputs": [],
      "name": "totalSupply",
      "outputs": [
        {
          "internalType": "uint256",
          "name": "",
          "type": "uint256"
        }
      ],
      "stateMutability": "view",
      "type": "function"
    },
    {
      "inputs": [
        {
          "internalType": "address",
          "name": "to",
          "type": "address"
        },
        {
          "internalType": "uint256",
          "name": "value",
          "type": "uint256"
        }
      ],
      "name": "transfer",
      "outputs": [
        {
          "internalType": "bool",
          "name": "",
          "type": "bool"
        }
      ],
      "stateMutability": "nonpayable",
      "type": "function"
    },
    {
      "inputs": [
        {
          "internalType": "address",
          "name": "from",
          "type": "address"
        },
        {
          "internalType": "address",
          "name": "to",
          "type": "address"
        },
        {
          "internalType": "uint256",
          "name": "value",
          "type": "uint256"
        }
      ],
      "name": "transferFrom",
      "outputs": [
        {
          "internalType": "bool",
          "name": "",
          "type": "bool"
        }
      ],
      "stateMutability": "nonpayable",
      "type": "function"
    },
    {
      "inputs": [
        {
          "internalType": "address",
          "name": "newOwner",
          "type": "address"
        }
      ],
      "name": "transferOwnership",
      "outputs": [],
      "stateMutability": "nonpayable",
      "type": "function"
    },
    {
      "inputs": [
        {
          "internalType": "uint256",
          "name": "assets",
          "type": "uint256"
        },
        {
          "internalType": "address",
          "name": "receiver",
          "type": "address"
        },
        {
          "internalType": "address",
          "name": "owner",
          "type": "address"
        }
      ],
      "name": "withdraw",
      "outputs": [
        {
          "internalType": "uint256",
          "name": "",
          "type": "uint256"
        }
      ],
      "stateMutability": "nonpayable",
      "type": "function"
    }
  ],
  "bytecode": "0x60c06040523480156200001157600080fd5b5060405162004ace38038062004ace833981810160405281019062000037919062000938565b3386868681600390816200004c919062000c53565b5080600490816200005e919062000c53565b50505060008062000075836200049b60201b60201c565b91509150816200008757601262000089565b805b60ff1660a08160ff16815250508273ffffffffffffffffffffffffffffffffffffffff1660808173ffffffffffffffffffffffffffffffffffffffff1681525050505050600073ffffffffffffffffffffffffffffffffffffffff168173ffffffffffffffffffffffffffffffffffffffff1603620001425760006040517f1e4fbdf700000000000000000000000000000000000000000000000000000000815260040162000139919062000d4b565b60405180910390fd5b6200015381620005b560201b60201c565b50600073ffffffffffffffffffffffffffffffffffffffff168373ffffffffffffffffffffffffffffffffffffffff1603620001c6576040517f08c379a0000000000000000000000000000000000000000000000000000000008152600401620001bd9062000dc9565b60405180910390fd5b8573ffffffffffffffffffffffffffffffffffffffff168373ffffffffffffffffffffffffffffffffffffffff166338d52e0f6040518163ffffffff1660e01b8152600401602060405180830381865afa15801562000229573d6000803e3d6000fd5b505050506040513d601f19601f820116820180604052508101906200024f919062000deb565b73ffffffffffffffffffffffffffffffffffffffff1614620002a8576040517f08c379a00000000000000000000000000000000000000000000000000000000081526004016200029f9062000e6d565b60405180910390fd5b600073ffffffffffffffffffffffffffffffffffffffff168273ffffffffffffffffffffffffffffffffffffffff16036200031a576040517f08c379a0000000000000000000000000000000000000000000000000000000008152600401620003119062000edf565b60405180910390fd5b610bb881111562000362576040517f08c379a0000000000000000000000000000000000000000000000000000000008152600401620003599062000f51565b60405180910390fd5b82600660006101000a81548173ffffffffffffffffffffffffffffffffffffffff021916908373ffffffffffffffffffffffffffffffffffffffff16021790555081600760006101000a81548173ffffffffffffffffffffffffffffffffffffffff021916908373ffffffffffffffffffffffffffffffffffffffff160217905550806008819055508573ffffffffffffffffffffffffffffffffffffffff1663095ea7b3847fffffffffffffffffffffffffffffffffffffffffffffffffffffffffffffffff6040518363ffffffff1660e01b81526004016200044892919062000f84565b6020604051808303816000875af115801562000468573d6000803e3d6000fd5b505050506040513d601f19601f820116820180604052508101906200048e919062000fee565b50505050505050620010b8565b6000806000808473ffffffffffffffffffffffffffffffffffffffff1660405160240160405160208183030381529060405263313ce56760e01b6020820180517bffffffffffffffffffffffffffffffffffffffffffffffffffffffff83818316178352505050506040516200051291906200106d565b600060405180830381855afa9150503d80600081146200054f576040519150601f19603f3d011682016040523d82523d6000602084013e62000554565b606091505b50915091508180156200056957506020815110155b15620005a65760008180602001905181019062000587919062001086565b905060ff80168111620005a45760018194509450505050620005b0565b505b6000809350935050505b915091565b6000600560009054906101000a900473ffffffffffffffffffffffffffffffffffffffff16905081600560006101000a81548173ffffffffffffffffffffffffffffffffffffffff021916908373ffffffffffffffffffffffffffffffffffffffff1602179055508173ffffffffffffffffffffffffffffffffffffffff168173ffffffffffffffffffffffffffffffffffffffff167f8be0079c531659141344cd1fd0a4f28419497f9722a3daafe3b4186f6b6457e060405160405180910390a35050565b6000604051905090565b600080fd5b600080fd5b600073ffffffffffffffffffffffffffffffffffffffff82169050919050565b6000620006bc826200068f565b9050919050565b6000620006d082620006af565b9050919050565b620006e281620006c3565b8114620006ee57600080fd5b50565b6000815190506200070281620006d7565b92915050565b600080fd5b600080fd5b6000601f19601f8301169050919050565b7f4e487b7100000000000000000000000000000000000000000000000000000000600052604160045260246000fd5b6200075d8262000712565b810181811067ffffffffffffffff821117156200077f576200077e62000723565b5b80604052505050565b6000620007946200067b565b9050620007a2828262000752565b919050565b600067ffffffffffffffff821115620007c557620007c462000723565b5b620007d08262000712565b9050602081019050919050565b60005b83811015620007fd578082015181840152602081019050620007e0565b60008484015250505050565b6000620008206200081a84620007a7565b62000788565b9050828152602081018484840111156200083f576200083e6200070d565b5b6200084c848285620007dd565b509392505050565b600082601f8301126200086c576200086b62000708565b5b81516200087e84826020860162000809565b91505092915050565b60006200089482620006af565b9050919050565b620008a68162000887565b8114620008b257600080fd5b50565b600081519050620008c6816200089b565b92915050565b620008d781620006af565b8114620008e357600080fd5b50565b600081519050620008f781620008cc565b92915050565b6000819050919050565b6200091281620008fd565b81146200091e57600080fd5b50565b600081519050620009328162000907565b92915050565b60008060008060008060c0878903121562000958576200095762000685565b5b60006200096889828a01620006f1565b965050602087015167ffffffffffffffff8111156200098c576200098b6200068a565b5b6200099a89828a0162000854565b955050604087015167ffffffffffffffff811115620009be57620009bd6200068a565b5b620009cc89828a0162000854565b9450506060620009df89828a01620008b5565b9350506080620009f289828a01620008e6565b92505060a062000a0589828a0162000921565b9150509295509295509295565b600081519050919050565b7f4e487b7100000000000000000000000000000000000000000000000000000000600052602260045260246000fd5b6000600282049050600182168062000a6557607f821691505b60208210810362000a7b5762000a7a62000a1d565b5b50919050565b60008190508160005260206000209050919050565b60006020601f8301049050919050565b600082821b905092915050565b60006008830262000ae57fffffffffffffffffffffffffffffffffffffffffffffffffffffffffffffffff8262000aa6565b62000af1868362000aa6565b95508019841693508086168417925050509392505050565b6000819050919050565b600062000b3462000b2e62000b2884620008fd565b62000b09565b620008fd565b9050919050565b6000819050919050565b62000b508362000b13565b62000b6862000b5f8262000b3b565b84845462000ab3565b825550505050565b600090565b62000b7f62000b70565b62000b8c81848462000b45565b505050565b5b8181101562000bb45762000ba860008262000b75565b60018101905062000b92565b5050565b601f82111562000c035762000bcd8162000a81565b62000bd88462000a96565b8101602085101562000be8578190505b62000c0062000bf78562000a96565b83018262000b91565b50505b505050565b600082821c905092915050565b600062000c286000198460080262000c08565b1980831691505092915050565b600062000c43838362000c15565b9150826002028217905092915050565b62000c5e8262000a12565b67ffffffffffffffff81111562000c7a5762000c7962000723565b5b62000c86825462000a4c565b62000c9382828562000bb8565b600060209050601f83116001811462000ccb576000841562000cb6578287015190505b62000cc2858262000c35565b86555062000d32565b601f19841662000cdb8662000a81565b60005b8281101562000d055784890151825560018201915060208501945060208101905062000cde565b8683101562000d25578489015162000d21601f89168262000c15565b8355505b6001600288020188555050505b505050505050565b62000d4581620006af565b82525050565b600060208201905062000d62600083018462000d3a565b92915050565b600082825260208201905092915050565b7f496e76616c696420737472617465677900000000000000000000000000000000600082015250565b600062000db160108362000d68565b915062000dbe8262000d79565b602082019050919050565b6000602082019050818103600083015262000de48162000da2565b9050919050565b60006020828403121562000e045762000e0362000685565b5b600062000e1484828501620006f1565b91505092915050565b7f4173736574206d69736d61746368000000000000000000000000000000000000600082015250565b600062000e55600e8362000d68565b915062000e628262000e1d565b602082019050919050565b6000602082019050818103600083015262000e888162000e46565b9050919050565b7f496e76616c69642066656520726563697069656e740000000000000000000000600082015250565b600062000ec760158362000d68565b915062000ed48262000e8f565b602082019050919050565b6000602082019050818103600083015262000efa8162000eb8565b9050919050565b7f46656520746f6f20686967680000000000000000000000000000000000000000600082015250565b600062000f39600c8362000d68565b915062000f468262000f01565b602082019050919050565b6000602082019050818103600083015262000f6c8162000f2a565b9050919050565b62000f7e81620008fd565b82525050565b600060408201905062000f9b600083018562000d3a565b62000faa602083018462000f73565b9392505050565b60008115159050919050565b62000fc88162000fb1565b811462000fd457600080fd5b50565b60008151905062000fe88162000fbd565b92915050565b60006020828403121562001007576200100662000685565b5b6000620010178482850162000fd7565b91505092915050565b600081519050919050565b600081905092915050565b6000620010438262001020565b6200104f81856200102b565b935062001061818560208601620007dd565b80840191505092915050565b60006200107b828462001036565b915081905092915050565b6000602082840312156200109f576200109e62000685565b5b6000620010af8482850162000921565b91505092915050565b60805160a0516139f0620010de6000396000610ae601526000610e6501526139f06000f3fe608060405234801561001057600080fd5b506004361061025e5760003560e01c806394bf804d11610146578063c6e6f592116100c3578063d905777e11610087578063d905777e146107b5578063dd62ed3e146107e5578063e74b981b14610815578063ef8b30f714610831578063f2fde38b14610861578063f69e20461461087d5761025e565b8063c6e6f592146106fb578063ce96cb771461072b578063d55be8c61461075b578063d73792a914610779578063d8cf6980146107975761025e565b8063b3d7f6b91161010a578063b3d7f6b91461061d578063b460af941461064d578063b9d4e8791461067d578063ba0876521461069b578063c63d75b6146106cb5761025e565b806394bf804d1461056557806395d89b41146105955780639f0caac9146105b3578063a8c62e76146105cf578063a9059cbb146105ed5761025e565b806338d52e0f116101df57806360c6d8ae116101a357806360c6d8ae1461048f5780636e553f65146104ad57806370a08231146104dd578063715018a61461050d5780638da5cb5b1461051757806394436d1b146105355761025e565b806338d52e0f146103d5578063402d267d146103f35780634641257d1461042357806346904840146104415780634cdad5061461045f5761025e565b806318160ddd1161022657806318160ddd1461032f5780632257a7381461034d57806323b872dd1461036b578063313ce5671461039b57806333a100ca146103b95761025e565b806301e1d1141461026357806306fdde031461028157806307a2d13a1461029f578063095ea7b3146102cf5780630a28a477146102ff575b600080fd5b61026b61089b565b6040516102789190612d2e565b60405180910390f35b6102896109be565b6040516102969190612dd9565b60405180910390f35b6102b960048036038101906102b49190612e2c565b610a50565b6040516102c69190612d2e565b60405180910390f35b6102e960048036038101906102e49190612eb7565b610a64565b6040516102f69190612f12565b60405180910390f35b61031960048036038101906103149190612e2c565b610a87565b6040516103269190612d2e565b60405180910390f35b610337610a9b565b6040516103449190612d2e565b60405180910390f35b610355610aa5565b6040516103629190612d2e565b60405180910390f35b61038560048036038101906103809190612f2d565b610aab565b6040516103929190612f12565b60405180910390f35b6103a3610ada565b6040516103b09190612f9c565b60405180910390f35b6103d360048036038101906103ce9190612ff5565b610b14565b005b6103dd610e61565b6040516103ea9190613031565b60405180910390f35b61040d6004803603810190610408919061304c565b610e89565b60405161041a9190612d2e565b60405180910390f35b61042b610eb3565b6040516104389190612d2e565b60405180910390f35b610449611216565b6040516104569190613031565b60405180910390f35b61047960048036038101906104749190612e2c565b61123c565b6040516104869190612d2e565b60405180910390f35b610497611250565b6040516104a49190612d2e565b60405180910390f35b6104c760048036038101906104c29190613079565b611256565b6040516104d49190612d2e565b60405180910390f35b6104f760048036038101906104f2919061304c565b6112d8565b6040516105049190612d2e565b60405180910390f35b610515611320565b005b61051f611334565b60405161052c9190613031565b60405180910390f35b61054f600480360381019061054a9190612e2c565b61135e565b60405161055c9190612d2e565b60405180910390f35b61057f600480360381019061057a9190613079565b61138d565b60405161058c9190612d2e565b60405180910390f35b61059d61140f565b6040516105aa9190612dd9565b60405180910390f35b6105cd60048036038101906105c89190612e2c565b6114a1565b005b6105d7611539565b6040516105e49190613118565b60405180910390f35b61060760048036038101906106029190612eb7565b61155f565b6040516106149190612f12565b60405180910390f35b61063760048036038101906106329190612e2c565b611582565b6040516106449190612d2e565b60405180910390f35b61066760048036038101906106629190613133565b611596565b6040516106749190612d2e565b60405180910390f35b61068561161a565b6040516106929190612d2e565b60405180910390f35b6106b560048036038101906106b09190613133565b611620565b6040516106c29190612d2e565b60405180910390f35b6106e560048036038101906106e0919061304c565b6116a4565b6040516106f29190612d2e565b60405180910390f35b61071560048036038101906107109190612e2c565b6116ce565b6040516107229190612d2e565b60405180910390f35b6107456004803603810190610740919061304c565b6116e2565b6040516107529190612d2e565b60405180910390f35b6107636116fe565b6040516107709190612d2e565b60405180910390f35b610781611704565b60405161078e9190612d2e565b60405180910390f35b61079f61170a565b6040516107ac9190612d2e565b60405180910390f35b6107cf60048036038101906107ca919061304c565b611710565b6040516107dc9190612d2e565b60405180910390f35b6107ff60048036038101906107fa9190613186565b611722565b60405161080c9190612d2e565b60405180910390f35b61082f600480360381019061082a919061304c565b6117a9565b005b61084b60048036038101906108469190612e2c565b6118e6565b6040516108589190612d2e565b60405180910390f35b61087b6004803603810190610876919061304c565b6118fa565b005b610885611980565b6040516108929190612d2e565b60405180910390f35b60006108a5610e61565b73ffffffffffffffffffffffffffffffffffffffff166370a08231306040518263ffffffff1660e01b81526004016108dd9190613031565b602060405180830381865afa1580156108fa573d6000803e3d6000fd5b505050506040513d601f19601f8201168201806040525081019061091e91906131db565b600660009054906101000a900473ffffffffffffffffffffffffffffffffffffffff1673ffffffffffffffffffffffffffffffffffffffff166301e1d1146040518163ffffffff1660e01b8152600401602060405180830381865afa15801561098b573d6000803e3d6000fd5b505050506040513d601f19601f820116820180604052508101906109af91906131db565b6109b99190613237565b905090565b6060600380546109cd9061329a565b80601f01602080910402602001604051908101604052809291908181526020018280546109f99061329a565b8015610a465780601f10610a1b57610100808354040283529160200191610a46565b820191906000526020600020905b815481529060010190602001808311610a2957829003601f168201915b5050505050905090565b6000610a5d826000611db3565b9050919050565b600080610a6f611e0c565b9050610a7c818585611e14565b600191505092915050565b6000610a94826001611e26565b9050919050565b6000600254905090565b60095481565b600080610ab6611e0c565b9050610ac3858285611e7f565b610ace858585611f14565b60019150509392505050565b6000610ae4612008565b7f0000000000000000000000000000000000000000000000000000000000000000610b0f91906132cb565b905090565b610b1c61200d565b600073ffffffffffffffffffffffffffffffffffffffff168173ffffffffffffffffffffffffffffffffffffffff1603610b8b576040517f08c379a0000000000000000000000000000000000000000000000000000000008152600401610b829061334c565b60405180910390fd5b610b93610e61565b73ffffffffffffffffffffffffffffffffffffffff168173ffffffffffffffffffffffffffffffffffffffff166338d52e0f6040518163ffffffff1660e01b8152600401602060405180830381865afa158015610bf4573d6000803e3d6000fd5b505050506040513d601f19601f82011682018060405250810190610c1891906133aa565b73ffffffffffffffffffffffffffffffffffffffff1614610c6e576040517f08c379a0000000000000000000000000000000000000000000000000000000008152600401610c6590613423565b60405180910390fd5b6000600660009054906101000a900473ffffffffffffffffffffffffffffffffffffffff169050610c9d610e61565b73ffffffffffffffffffffffffffffffffffffffff1663095ea7b38260006040518363ffffffff1660e01b8152600401610cd892919061347e565b6020604051808303816000875af1158015610cf7573d6000803e3d6000fd5b505050506040513d601f19601f82011682018060405250810190610d1b91906134d3565b5081600660006101000a81548173ffffffffffffffffffffffffffffffffffffffff021916908373ffffffffffffffffffffffffffffffffffffffff160217905550610d65610e61565b73ffffffffffffffffffffffffffffffffffffffff1663095ea7b3837fffffffffffffffffffffffffffffffffffffffffffffffffffffffffffffffff6040518363ffffffff1660e01b8152600401610dbf929190613500565b6020604051808303816000875af1158015610dde573d6000803e3d6000fd5b505050506040513d601f19601f82011682018060405250810190610e0291906134d3565b508173ffffffffffffffffffffffffffffffffffffffff168173ffffffffffffffffffffffffffffffffffffffff167fe4cec16b1a7e6b7979e923da619a8b1e5fd0f0fb6e5c1cf647f350430ee61ca960405160405180910390a35050565b60007f0000000000000000000000000000000000000000000000000000000000000000905090565b60007fffffffffffffffffffffffffffffffffffffffffffffffffffffffffffffffff9050919050565b6000600660009054906101000a900473ffffffffffffffffffffffffffffffffffffffff1673ffffffffffffffffffffffffffffffffffffffff16634641257d6040518163ffffffff1660e01b81526004016020604051808303816000875af1158015610f24573d6000803e3d6000fd5b505050506040513d601f19601f82011682018060405250810190610f4891906131db565b905060008103610f9f57426009819055507febdd323f18ba49318367d0c92a04d5c51a67f15a60ad50d46523db464661a3026000806000604051610f8e93929190613529565b60405180910390a160009050611213565b60008082905060006008541180156110065750600073ffffffffffffffffffffffffffffffffffffffff16600760009054906101000a900473ffffffffffffffffffffffffffffffffffffffff1673ffffffffffffffffffffffffffffffffffffffff1614155b1561111e576127106008548461101c9190613560565b61102691906135d1565b9150600082111561110f57611085600760009054906101000a900473ffffffffffffffffffffffffffffffffffffffff1683611060610e61565b73ffffffffffffffffffffffffffffffffffffffff166120949092919063ffffffff16565b81600b60008282546110979190613237565b92505081905550600760009054906101000a900473ffffffffffffffffffffffffffffffffffffffff1673ffffffffffffffffffffffffffffffffffffffff167f06c5efeff5c320943d265dc4e5f1af95ad523555ce0c1957e367dda5514572df836040516111069190612d2e565b60405180910390a25b818361111b9190613602565b90505b60008111156111b557600660009054906101000a900473ffffffffffffffffffffffffffffffffffffffff1673ffffffffffffffffffffffffffffffffffffffff16632afcf480826040518263ffffffff1660e01b81526004016111829190612d2e565b600060405180830381600087803b15801561119c57600080fd5b505af11580156111b0573d6000803e3d6000fd5b505050505b82600a60008282546111c79190613237565b92505081905550426009819055507febdd323f18ba49318367d0c92a04d5c51a67f15a60ad50d46523db464661a30283838360405161120893929190613636565b60405180910390a150505b90565b600760009054906101000a900473ffffffffffffffffffffffffffffffffffffffff1681565b6000611249826000611db3565b9050919050565b600b5481565b60008061126283610e89565b9050808411156112ad578284826040517f79012fb20000000000000000000000000000000000000000000000000000000081526004016112a49392919061366d565b60405180910390fd5b60006112b8856118e6565b90506112cd6112c5611e0c565b858784612113565b809250505092915050565b60008060008373ffffffffffffffffffffffffffffffffffffffff1673ffffffffffffffffffffffffffffffffffffffff168152602001908152602001600020549050919050565b61132861200d565b61133260006121b2565b565b6000600560009054906101000a900473ffffffffffffffffffffffffffffffffffffffff16905090565b6000612710600854836113719190613560565b61137b91906135d1565b826113869190613602565b9050919050565b600080611399836116a4565b9050808411156113e4578284826040517f284ff6670000000000000000000000000000000000000000000000000000000081526004016113db9392919061366d565b60405180910390fd5b60006113ef85611582565b90506114046113fc611e0c565b858388612113565b809250505092915050565b60606004805461141e9061329a565b80601f016020809104026020016040519081016040528092919081815260200182805461144a9061329a565b80156114975780601f1061146c57610100808354040283529160200191611497565b820191906000526020600020905b81548152906001019060200180831161147a57829003601f168201915b5050505050905090565b6114a961200d565b610bb88111156114ee576040517f08c379a00000000000000000000000000000000000000000000000000000000081526004016114e5906136f0565b60405180910390fd5b60006008549050816008819055507f607b1c943753982194530bf7133a5972ea2626e028005410efa54ab20035caf8818360405161152d929190613710565b60405180910390a15050565b600660009054906101000a900473ffffffffffffffffffffffffffffffffffffffff1681565b60008061156a611e0c565b9050611577818585611f14565b600191505092915050565b600061158f826001611db3565b9050919050565b6000806115a2836116e2565b9050808511156115ed578285826040517ffe9cceec0000000000000000000000000000000000000000000000000000000081526004016115e49392919061366d565b60405180910390fd5b60006115f886610a87565b905061160e611605611e0c565b86868985612278565b80925050509392505050565b60085481565b60008061162c83611710565b905080851115611677578285826040517fb94abeec00000000000000000000000000000000000000000000000000000000815260040161166e9392919061366d565b60405180910390fd5b60006116828661123c565b905061169861168f611e0c565b8686848a612278565b80925050509392505050565b60007fffffffffffffffffffffffffffffffffffffffffffffffffffffffffffffffff9050919050565b60006116db826000611e26565b9050919050565b60006116f76116f0836112d8565b6000611db3565b9050919050565b610bb881565b61271081565b600a5481565b600061171b826112d8565b9050919050565b6000600160008473ffffffffffffffffffffffffffffffffffffffff1673ffffffffffffffffffffffffffffffffffffffff16815260200190815260200160002060008373ffffffffffffffffffffffffffffffffffffffff1673ffffffffffffffffffffffffffffffffffffffff16815260200190815260200160002054905092915050565b6117b161200d565b600073ffffffffffffffffffffffffffffffffffffffff168173ffffffffffffffffffffffffffffffffffffffff1603611820576040517f08c379a000000000000000000000000000000000000000000000000000000000815260040161181790613785565b60405180910390fd5b6000600760009054906101000a900473ffffffffffffffffffffffffffffffffffffffff16905081600760006101000a81548173ffffffffffffffffffffffffffffffffffffffff021916908373ffffffffffffffffffffffffffffffffffffffff1602179055508173ffffffffffffffffffffffffffffffffffffffff168173ffffffffffffffffffffffffffffffffffffffff167faaebcf1bfa00580e41d966056b48521fa9f202645c86d4ddf28113e617c1b1d360405160405180910390a35050565b60006118f3826000611e26565b9050919050565b61190261200d565b600073ffffffffffffffffffffffffffffffffffffffff168173ffffffffffffffffffffffffffffffffffffffff16036119745760006040517f1e4fbdf700000000000000000000000000000000000000000000000000000000815260040161196b9190613031565b60405180910390fd5b61197d816121b2565b50565b60008061198b610e61565b73ffffffffffffffffffffffffffffffffffffffff166370a08231306040518263ffffffff1660e01b81526004016119c39190613031565b602060405180830381865afa1580156119e0573d6000803e3d6000fd5b505050506040513d601f19601f82011682018060405250810190611a0491906131db565b90506000811115611a9d57600660009054906101000a900473ffffffffffffffffffffffffffffffffffffffff1673ffffffffffffffffffffffffffffffffffffffff16632afcf480826040518263ffffffff1660e01b8152600401611a6a9190612d2e565b600060405180830381600087803b158015611a8457600080fd5b505af1158015611a98573d6000803e3d6000fd5b505050505b600660009054906101000a900473ffffffffffffffffffffffffffffffffffffffff1673ffffffffffffffffffffffffffffffffffffffff16634641257d6040518163ffffffff1660e01b81526004016020604051808303816000875af1158015611b0c573d6000803e3d6000fd5b505050506040513d601f19601f82011682018060405250810190611b3091906131db565b91506000821115611da8576000808390506000600854118015611ba25750600073ffffffffffffffffffffffffffffffffffffffff16600760009054906101000a900473ffffffffffffffffffffffffffffffffffffffff1673ffffffffffffffffffffffffffffffffffffffff1614155b15611cba5761271060085485611bb89190613560565b611bc291906135d1565b91506000821115611cab57611c21600760009054906101000a900473ffffffffffffffffffffffffffffffffffffffff1683611bfc610e61565b73ffffffffffffffffffffffffffffffffffffffff166120949092919063ffffffff16565b81600b6000828254611c339190613237565b92505081905550600760009054906101000a900473ffffffffffffffffffffffffffffffffffffffff1673ffffffffffffffffffffffffffffffffffffffff167f06c5efeff5c320943d265dc4e5f1af95ad523555ce0c1957e367dda5514572df83604051611ca29190612d2e565b60405180910390a25b8184611cb79190613602565b90505b6000811115611d5157600660009054906101000a900473ffffffffffffffffffffffffffffffffffffffff1673ffffffffffffffffffffffffffffffffffffffff16632afcf480826040518263ffffffff1660e01b8152600401611d1e9190612d2e565b600060405180830381600087803b158015611d3857600080fd5b505af1158015611d4c573d6000803e3d6000fd5b505050505b83600a6000828254611d639190613237565b925050819055507febdd323f18ba49318367d0c92a04d5c51a67f15a60ad50d46523db464661a302848383604051611d9d93929190613636565b60405180910390a150505b426009819055505090565b6000611e046001611dc261089b565b611dcc9190613237565b611dd4612008565b600a611de091906138d8565b611de8610a9b565b611df29190613237565b84866123cb909392919063ffffffff16565b905092915050565b600033905090565b611e21838383600161241a565b505050565b6000611e77611e33612008565b600a611e3f91906138d8565b611e47610a9b565b611e519190613237565b6001611e5b61089b565b611e659190613237565b84866123cb909392919063ffffffff16565b905092915050565b6000611e8b8484611722565b90507fffffffffffffffffffffffffffffffffffffffffffffffffffffffffffffffff811015611f0e5781811015611efe578281836040517ffb8f41b2000000000000000000000000000000000000000000000000000000008152600401611ef59392919061366d565b60405180910390fd5b611f0d8484848403600061241a565b5b50505050565b600073ffffffffffffffffffffffffffffffffffffffff168373ffffffffffffffffffffffffffffffffffffffff1603611f865760006040517f96c6fd1e000000000000000000000000000000000000000000000000000000008152600401611f7d9190613031565b60405180910390fd5b600073ffffffffffffffffffffffffffffffffffffffff168273ffffffffffffffffffffffffffffffffffffffff1603611ff85760006040517fec442f05000000000000000000000000000000000000000000000000000000008152600401611fef9190613031565b60405180910390fd5b6120038383836125f1565b505050565b600090565b612015611e0c565b73ffffffffffffffffffffffffffffffffffffffff16612033611334565b73ffffffffffffffffffffffffffffffffffffffff161461209257612056611e0c565b6040517f118cdaa70000000000000000000000000000000000000000000000000000000081526004016120899190613031565b60405180910390fd5b565b61210e838473ffffffffffffffffffffffffffffffffffffffff1663a9059cbb85856040516024016120c7929190613500565b604051602081830303815290604052915060e01b6020820180517bffffffffffffffffffffffffffffffffffffffffffffffffffffffff8381831617835250505050612816565b505050565b61211f848484846128b8565b600660009054906101000a900473ffffffffffffffffffffffffffffffffffffffff1673ffffffffffffffffffffffffffffffffffffffff16632afcf480836040518263ffffffff1660e01b815260040161217a9190612d2e565b600060405180830381600087803b15801561219457600080fd5b505af11580156121a8573d6000803e3d6000fd5b5050505050505050565b6000600560009054906101000a900473ffffffffffffffffffffffffffffffffffffffff16905081600560006101000a81548173ffffffffffffffffffffffffffffffffffffffff021916908373ffffffffffffffffffffffffffffffffffffffff1602179055508173ffffffffffffffffffffffffffffffffffffffff168173ffffffffffffffffffffffffffffffffffffffff167f8be0079c531659141344cd1fd0a4f28419497f9722a3daafe3b4186f6b6457e060405160405180910390a35050565b6000612282610e61565b73ffffffffffffffffffffffffffffffffffffffff166370a08231306040518263ffffffff1660e01b81526004016122ba9190613031565b602060405180830381865afa1580156122d7573d6000803e3d6000fd5b505050506040513d601f19601f820116820180604052508101906122fb91906131db565b9050808311156123b657600081846123139190613602565b9050600660009054906101000a900473ffffffffffffffffffffffffffffffffffffffff1673ffffffffffffffffffffffffffffffffffffffff16638ca17995826040518263ffffffff1660e01b81526004016123709190612d2e565b6020604051808303816000875af115801561238f573d6000803e3d6000fd5b505050506040513d601f19601f820116820180604052508101906123b391906131db565b50505b6123c38686868686612942565b505050505050565b60006123fb6123d983612a22565b80156123f65750600084806123f1576123f06135a2565b5b868809115b612a50565b612406868686612a5c565b6124109190613237565b9050949350505050565b600073ffffffffffffffffffffffffffffffffffffffff168473ffffffffffffffffffffffffffffffffffffffff160361248c5760006040517fe602df050000000000000000000000000000000000000000000000000000000081526004016124839190613031565b60405180910390fd5b600073ffffffffffffffffffffffffffffffffffffffff168373ffffffffffffffffffffffffffffffffffffffff16036124fe5760006040517f94280d620000000000000000000000000000000000000000000000000000000081526004016124f59190613031565b60405180910390fd5b81600160008673ffffffffffffffffffffffffffffffffffffffff1673ffffffffffffffffffffffffffffffffffffffff16815260200190815260200160002060008573ffffffffffffffffffffffffffffffffffffffff1673ffffffffffffffffffffffffffffffffffffffff1681526020019081526020016000208190555080156125eb578273ffffffffffffffffffffffffffffffffffffffff168473ffffffffffffffffffffffffffffffffffffffff167f8c5be1e5ebec7d5bd14f71427d1e84f3dd0314c0f7b2291e5b200ac8c7c3b925846040516125e29190612d2e565b60405180910390a35b50505050565b600073ffffffffffffffffffffffffffffffffffffffff168373ffffffffffffffffffffffffffffffffffffffff16036126435780600260008282546126379190613237565b92505081905550612716565b60008060008573ffffffffffffffffffffffffffffffffffffffff1673ffffffffffffffffffffffffffffffffffffffff168152602001908152602001600020549050818110156126cf578381836040517fe450d38c0000000000000000000000000000000000000000000000000000000081526004016126c69392919061366d565b60405180910390fd5b8181036000808673ffffffffffffffffffffffffffffffffffffffff1673ffffffffffffffffffffffffffffffffffffffff16815260200190815260200160002081905550505b600073ffffffffffffffffffffffffffffffffffffffff168273ffffffffffffffffffffffffffffffffffffffff160361275f57806002600082825403925050819055506127ac565b806000808473ffffffffffffffffffffffffffffffffffffffff1673ffffffffffffffffffffffffffffffffffffffff168152602001908152602001600020600082825401925050819055505b8173ffffffffffffffffffffffffffffffffffffffff168373ffffffffffffffffffffffffffffffffffffffff167fddf252ad1be2c89b69c2b068fc378daa952ba7f163c4a11628f55a4df523b3ef836040516128099190612d2e565b60405180910390a3505050565b600080602060008451602086016000885af180612839576040513d6000823e3d81fd5b3d925060005191505060008214612854576001811415612870565b60008473ffffffffffffffffffffffffffffffffffffffff163b145b156128b257836040517f5274afe70000000000000000000000000000000000000000000000000000000081526004016128a99190613031565b60405180910390fd5b50505050565b6128cb6128c3610e61565b853085612b44565b6128d58382612bc6565b8273ffffffffffffffffffffffffffffffffffffffff168473ffffffffffffffffffffffffffffffffffffffff167fdcbc1c05240f31ff3ad067ef1ee35ce4997762752e3a095284754544f4c709d78484604051612934929190613710565b60405180910390a350505050565b8273ffffffffffffffffffffffffffffffffffffffff168573ffffffffffffffffffffffffffffffffffffffff161461298157612980838683611e7f565b5b61298b8382612c48565b61299d612996610e61565b8584612094565b8273ffffffffffffffffffffffffffffffffffffffff168473ffffffffffffffffffffffffffffffffffffffff168673ffffffffffffffffffffffffffffffffffffffff167ffbde797d201c681b91056529119e0b02407c7bb96a4a2c75c01fc9667232c8db8585604051612a13929190613710565b60405180910390a45050505050565b600060016002836003811115612a3b57612a3a613923565b5b612a459190613952565b60ff16149050919050565b60008115159050919050565b6000806000612a6b8686612cca565b9150915060008203612a9157838181612a8757612a866135a2565b5b0492505050612b3d565b818411612ab157612ab0612aab6000861460126011612ce9565b612d03565b5b600084868809905081811183039250808203915060008560000386169050808604955080830492506001818260000304019050808402831792506000600287600302189050808702600203810290508087026002038102905080870260020381029050808702600203810290508087026002038102905080870260020381029050808402955050505050505b9392505050565b612bc0848573ffffffffffffffffffffffffffffffffffffffff166323b872dd868686604051602401612b7993929190613983565b604051602081830303815290604052915060e01b6020820180517bffffffffffffffffffffffffffffffffffffffffffffffffffffffff8381831617835250505050612816565b50505050565b600073ffffffffffffffffffffffffffffffffffffffff168273ffffffffffffffffffffffffffffffffffffffff1603612c385760006040517fec442f05000000000000000000000000000000000000000000000000000000008152600401612c2f9190613031565b60405180910390fd5b612c44600083836125f1565b5050565b600073ffffffffffffffffffffffffffffffffffffffff168273ffffffffffffffffffffffffffffffffffffffff1603612cba5760006040517f96c6fd1e000000000000000000000000000000000000000000000000000000008152600401612cb19190613031565b60405180910390fd5b612cc6826000836125f1565b5050565b6000806000198385098385029150818110828203039250509250929050565b6000612cf484612a50565b82841802821890509392505050565b634e487b71600052806020526024601cfd5b6000819050919050565b612d2881612d15565b82525050565b6000602082019050612d436000830184612d1f565b92915050565b600081519050919050565b600082825260208201905092915050565b60005b83811015612d83578082015181840152602081019050612d68565b60008484015250505050565b6000601f19601f8301169050919050565b6000612dab82612d49565b612db58185612d54565b9350612dc5818560208601612d65565b612dce81612d8f565b840191505092915050565b60006020820190508181036000830152612df38184612da0565b905092915050565b600080fd5b612e0981612d15565b8114612e1457600080fd5b50565b600081359050612e2681612e00565b92915050565b600060208284031215612e4257612e41612dfb565b5b6000612e5084828501612e17565b91505092915050565b600073ffffffffffffffffffffffffffffffffffffffff82169050919050565b6000612e8482612e59565b9050919050565b612e9481612e79565b8114612e9f57600080fd5b50565b600081359050612eb181612e8b565b92915050565b60008060408385031215612ece57612ecd612dfb565b5b6000612edc85828601612ea2565b9250506020612eed85828601612e17565b9150509250929050565b60008115159050919050565b612f0c81612ef7565b82525050565b6000602082019050612f276000830184612f03565b92915050565b600080600060608486031215612f4657612f45612dfb565b5b6000612f5486828701612ea2565b9350506020612f6586828701612ea2565b9250506040612f7686828701612e17565b9150509250925092565b600060ff82169050919050565b612f9681612f80565b82525050565b6000602082019050612fb16000830184612f8d565b92915050565b6000612fc282612e79565b9050919050565b612fd281612fb7565b8114612fdd57600080fd5b50565b600081359050612fef81612fc9565b92915050565b60006020828403121561300b5761300a612dfb565b5b600061301984828501612fe0565b91505092915050565b61302b81612e79565b82525050565b60006020820190506130466000830184613022565b92915050565b60006020828403121561306257613061612dfb565b5b600061307084828501612ea2565b91505092915050565b600080604083850312156130905761308f612dfb565b5b600061309e85828601612e17565b92505060206130af85828601612ea2565b9150509250929050565b6000819050919050565b60006130de6130d96130d484612e59565b6130b9565b612e59565b9050919050565b60006130f0826130c3565b9050919050565b6000613102826130e5565b9050919050565b613112816130f7565b82525050565b600060208201905061312d6000830184613109565b92915050565b60008060006060848603121561314c5761314b612dfb565b5b600061315a86828701612e17565b935050602061316b86828701612ea2565b925050604061317c86828701612ea2565b9150509250925092565b6000806040838503121561319d5761319c612dfb565b5b60006131ab85828601612ea2565b92505060206131bc85828601612ea2565b9150509250929050565b6000815190506131d581612e00565b92915050565b6000602082840312156131f1576131f0612dfb565b5b60006131ff848285016131c6565b91505092915050565b7f4e487b7100000000000000000000000000000000000000000000000000000000600052601160045260246000fd5b600061324282612d15565b915061324d83612d15565b925082820190508082111561326557613264613208565b5b92915050565b7f4e487b7100000000000000000000000000000000000000000000000000000000600052602260045260246000fd5b600060028204905060018216806132b257607f821691505b6020821081036132c5576132c461326b565b5b50919050565b60006132d682612f80565b91506132e183612f80565b9250828201905060ff8111156132fa576132f9613208565b5b92915050565b7f496e76616c696420737472617465677900000000000000000000000000000000600082015250565b6000613336601083612d54565b915061334182613300565b602082019050919050565b6000602082019050818103600083015261336581613329565b9050919050565b600061337782612e79565b9050919050565b6133878161336c565b811461339257600080fd5b50565b6000815190506133a48161337e565b92915050565b6000602082840312156133c0576133bf612dfb565b5b60006133ce84828501613395565b91505092915050565b7f4173736574206d69736d61746368000000000000000000000000000000000000600082015250565b600061340d600e83612d54565b9150613418826133d7565b602082019050919050565b6000602082019050818103600083015261343c81613400565b9050919050565b6000819050919050565b600061346861346361345e84613443565b6130b9565b612d15565b9050919050565b6134788161344d565b82525050565b60006040820190506134936000830185613022565b6134a0602083018461346f565b9392505050565b6134b081612ef7565b81146134bb57600080fd5b50565b6000815190506134cd816134a7565b92915050565b6000602082840312156134e9576134e8612dfb565b5b60006134f7848285016134be565b91505092915050565b60006040820190506135156000830185613022565b6135226020830184612d1f565b9392505050565b600060608201905061353e600083018661346f565b61354b602083018561346f565b613558604083018461346f565b949350505050565b600061356b82612d15565b915061357683612d15565b925082820261358481612d15565b9150828204841483151761359b5761359a613208565b5b5092915050565b7f4e487b7100000000000000000000000000000000000000000000000000000000600052601260045260246000fd5b60006135dc82612d15565b91506135e783612d15565b9250826135f7576135f66135a2565b5b828204905092915050565b600061360d82612d15565b915061361883612d15565b92508282039050818111156136305761362f613208565b5b92915050565b600060608201905061364b6000830186612d1f565b6136586020830185612d1f565b6136656040830184612d1f565b949350505050565b60006060820190506136826000830186613022565b61368f6020830185612d1f565b61369c6040830184612d1f565b949350505050565b7f46656520746f6f20686967680000000000000000000000000000000000000000600082015250565b60006136da600c83612d54565b91506136e5826136a4565b602082019050919050565b60006020820190508181036000830152613709816136cd565b9050919050565b60006040820190506137256000830185612d1f565b6137326020830184612d1f565b9392505050565b7f496e76616c69642066656520726563697069656e740000000000000000000000600082015250565b600061376f601583612d54565b915061377a82613739565b602082019050919050565b6000602082019050818103600083015261379e81613762565b9050919050565b60008160011c9050919050565b6000808291508390505b60018511156137fc578086048111156137d8576137d7613208565b5b60018516156137e75780820291505b80810290506137f5856137a5565b94506137bc565b94509492505050565b60008261381557600190506138d1565b8161382357600090506138d1565b8160018114613839576002811461384357613872565b60019150506138d1565b60ff84111561385557613854613208565b5b8360020a91508482111561386c5761386b613208565b5b506138d1565b5060208310610133831016604e8410600b84101617156138a75782820a9050838111156138a2576138a1613208565b5b6138d1565b6138b484848460016137b2565b925090508184048111156138cb576138ca613208565b5b81810290505b9392505050565b60006138e382612d15565b91506138ee83612f80565b925061391b7fffffffffffffffffffffffffffffffffffffffffffffffffffffffffffffffff8484613805565b905092915050565b7f4e487b7100000000000000000000000000000000000000000000000000000000600052602160045260246000fd5b600061395d82612f80565b915061396883612f80565b925082613978576139776135a2565b5b828206905092915050565b60006060820190506139986000830186613022565b6139a56020830185613022565b6139b26040830184612d1f565b94935050505056fea264697066735822122038d0a0f5b0c9d6705f75bb93925f5004ade6e56850f3bb9822b6f297e89db21c64736f6c63430008140033",
  "linkReferences": {},
  "deployedLinkReferences": {}
}